:020000040800F2
:1000000000000220A52600088D2400089324000883
:10001000992400089F240008A5240008000000007F
:10002000000000000000000000000000AB240008F9
:10003000B924000800000000C7240008D5240008E7
:10004000F5260008F5260008F5260008F526000824
:10005000F5260008F5260008F5260008F526000814
:10006000F5260008F5260008F5260008F526000804
:10007000F5260008F5260008F5260008F5260008F4
:10008000F5260008F5260008F5260008F5260008E4
:10009000F5260008F5260008F5260008F5260008D4
:1000A000F5260008F5260008F5260008F5260008C4
:1000B000F5260008E1240008F5260008F5260008CA
:1000C000F5260008F5260008F5260008F5260008A4
:1000D000F5260008F5260008F5260008F526000894
:1000E000F5260008F5260008F5260008F526000884
:1000F000F5260008F5260008F5260008F526000874
:10010000F5260008F5260008F5260008F526000863
:10011000F5260008F5260008F5260008F526000853
:10012000F5260008F5260008F5260008F526000843
:10013000F5260008F5260008F5260008F526000833
:10014000F5260008F5260008F5260008F526000823
:10015000F5260008F5260008F5260008F526000813
:10016000F5260008F5260008F5260008F526000803
:10017000F5260008F5260008F52600080000000016
:08018000F5260008F526000831
:1001900010B5054C237833B9044B13B10448AFF3C1
:1001A00000800123237010BDE80100200000000042
:1001B000F085000808B5034B1BB103490348AFF3B2
:1001C000008008BD00000000EC010020F085000860
:1001D00001F0FF01102A2BDB10F0070F08D010F8F8
:1001E000013B013A8B422DD010F0070F42B3F6D1FC
:1001F000F0B441EA012141EA014122F007047FF015
:1002000000070023F0E80256083C85EA010586EA6B
:10021000010685FA47F5A3FA87F586FA47F6A5FAA7
:1002200087F68EB9EED1F0BC01F0FF0102F00702B3
:1002300032B110F8013B013A83EA010313B1F8D15E
:100240000020704701387047002D06BF354603383F
:10025000073815F0010F07D1013015F4807F02BF78
:10026000013015F4C03F0130F0BC0138704700BFC9
:10027000034613F8012B002AFBD1181A01387047E6
:1002800081F0004102E000BF83F0004330B54FEA47
:1002900041044FEA430594EA050F08BF90EA020FB4
:1002A0001FBF54EA000C55EA020C7FEA645C7FEA47
:1002B000655C00F0E2804FEA5454D4EB5555B8BF6A
:1002C0006D420CDD2C4480EA020281EA030382EADB
:1002D000000083EA010180EA020281EA0303362D6D
:1002E00088BF30BD11F0004F4FEA01314FF4801C40
:1002F0004CEA113102D0404261EB410113F0004F52
:100300004FEA03334CEA133302D0524263EB430308
:1003100094EA050F00F0A780A4F10104D5F1200EA6
:100320000DDB02FA0EFC22FA05F2801841F1000101
:1003300003FA0EF2801843FA05F359410EE0A5F1D5
:1003400020050EF1200E012A03FA0EFC28BF4CF006
:10035000020C43FA05F3C01851EBE37101F00045BC
:1003600007D54FF0000EDCF1000C7EEB00006EEBC9
:100370000101B1F5801F1BD3B1F5001F0CD3490853
:100380005FEA30004FEA3C0C04F101044FEA4452AA
:1003900012F5800F80F09A80BCF1004F08BF5FEA31
:1003A000500C50F1000041EB045141EA050130BD11
:1003B0005FEA4C0C404141EB0101013C28BFB1F523
:1003C000801FE9D291F0000F04BF01460020B1FA6E
:1003D00081F308BF2033A3F10B03B3F120020CDA41
:1003E0000C3208DD02F1140CC2F10C0201FA0CF01F
:1003F00021FA02F10CE002F11402D8BFC2F1200C84
:1004000001FA02F120FA0CFCDCBF41EA0C01904039
:10041000E41AA2BF01EB0451294330BD6FEA040482
:100420001F3C1CDA0C340EDC04F11404C4F120026D
:1004300020FA04F001FA02F340EA030021FA04F37F
:1004400045EA030130BDC4F10C04C4F1200220FAD6
:1004500002F001FA04F340EA0300294630BD21FA14
:1004600004F0294630BD94F0000F83F4801306BFDA
:1004700081F480110134013D4EE77FEA645C18BFCE
:100480007FEA655C29D094EA050F08BF90EA020F65
:1004900005D054EA000C04BF1946104630BD91EA5D
:1004A000030F1EBF0021002030BD5FEA545C05D160
:1004B0004000494128BF41F0004130BD14F580049F
:1004C0003CBF01F5801130BD01F0004545F0FE4113
:1004D00041F470014FF0000030BD7FEA645C1ABF48
:1004E000194610467FEA655C1CBF0B46024650EA7F
:1004F000013406BF52EA033591EA030F41F40021AB
:1005000030BD00BF90F0000F04BF0021704730B530
:100510004FF4806404F132044FF000054FF0000105
:1005200050E700BF90F0000F04BF0021704730B5C6
:100530004FF4806404F1320410F0004548BF40429B
:100540004FF000013EE700BF42004FEAE2014FEAF0
:1005500031014FEA02701FBF12F07F4393F07F4FCB
:1005600081F06051704732F07F4208BF704793F0CE
:100570007F4F04BF41F40021704730B54FF46074E1
:1005800001F0004521F000411CE700BF50EA0102E4
:1005900008BF704730B54FF000050AE050EA01028D
:1005A00008BF704730B511F0004502D5404261EBFD
:1005B00041014FF4806404F132045FEA915C3FF43E
:1005C000D8AE4FF003025FEADC0C18BF03325FEADB
:1005D000DC0C18BF033202EBDC02C2F1200300FA8C
:1005E00003FC20FA02F001FA03FE40EA0E0021FAB1
:1005F00002F11444BDE600BF70B54FF0FF0C4CF49F
:10060000E06C1CEA11541DBF1CEA135594EA0C0F50
:1006100095EA0C0F00F0DEF82C4481EA030621EA8B
:100620004C5123EA4C5350EA013518BF52EA0335C6
:1006300041F4801143F4801338D0A0FB02CE4FF078
:100640000005E1FB02E506F00042E0FB03E54FF0A8
:100650000006E1FB03569CF0000F18BF4EF0010EA0
:10066000A4F1FF04B6F5007F64F5407404D25FEA9C
:100670004E0E6D4146EB060642EAC62141EA55514F
:100680004FEAC52040EA5E504FEACE2EB4F1FD0C91
:1006900088BFBCF5E06F1ED8BEF1004F08BF5FEA0F
:1006A000500E50F1000041EB045170BD06F00046C1
:1006B00046EA010140EA020081EA0301B4EB5C046E
:1006C000C2BFD4EB0C0541EA045170BD41F4801166
:1006D0004FF0000E013C00F3AB8014F1360FDEBF8B
:1006E000002001F0004170BDC4F10004203C35DA67
:1006F0000C341BDC04F11404C4F1200500FA05F3EA
:1007000020FA04F001FA05F240EA020001F000428A
:1007100021F0004110EBD37021FA04F642EB060100
:100720005EEA430E08BF20EAD37070BDC4F10C042A
:10073000C4F1200500FA04F320FA05F001FA04F2EE
:1007400040EA020001F0004110EBD37041F10001DA
:100750005EEA430E08BF20EAD37070BDC4F12005E5
:1007600000FA05F24EEA020E20FA04F301FA05F24D
:1007700043EA020321FA04F001F0004121FA04F2F5
:1007800020EA020000EBD3705EEA430E08BF20EAC5
:10079000D37070BD94F0000F0FD101F000464000FF
:1007A00041EB010111F4801F08BF013CF7D041EA81
:1007B000060195F0000F18BF704703F00046520085
:1007C00043EB030313F4801F08BF013DF7D043EA56
:1007D0000603704794EA0C0F0CEA135518BF95EA0C
:1007E0000C0F0CD050EA410618BF52EA4306D1D193
:1007F00081EA030101F000414FF0000070BD50EAB2
:10080000410606BF1046194652EA430619D094EA3B
:100810000C0F02D150EA013613D195EA0C0F05D125
:1008200052EA03361CBF104619460AD181EA030179
:1008300001F0004141F0FE4141F470014FF0000031
:1008400070BD41F0FE4141F4780170BD70B54FF0CC
:10085000FF0C4CF4E06C1CEA11541DBF1CEA13554C
:1008600094EA0C0F95EA0C0F00F0A7F8A4EB05042E
:1008700081EA030E52EA03354FEA013100F0888025
:100880004FEA03334FF0805545EA131343EA1263EE
:100890004FEA022245EA111545EA10654FEA0026A3
:1008A0000EF000419D4208BF964244F1FD0404F55C
:1008B000407402D25B084FEA3202B61A65EB0305B8
:1008C0005B084FEA32024FF480104FF4002CB6EB75
:1008D000020E75EB030E22BFB61A754640EA0C00F5
:1008E0005B084FEA3202B6EB020E75EB030E22BF35
:1008F000B61A754640EA5C005B084FEA3202B6EB76
:10090000020E75EB030E22BFB61A754640EA9C0034
:100910005B084FEA3202B6EB020E75EB030E22BF04
:10092000B61A754640EADC0055EA060E18D04FEAC2
:10093000051545EA16754FEA06164FEAC30343EA62
:1009400052734FEAC2025FEA1C1CC0D111F4801F2F
:100950000BD141EA00014FF000004FF0004CB6E728
:1009600011F4801F04BF01430020B4F1FD0C88BFC7
:10097000BCF5E06F3FF6AFAEB5EB030C04BFB6EBD2
:10098000020C5FEA500C50F1000041EB045170BDC5
:100990000EF0004E4EEA113114EB5C04C2BFD4EBF2
:1009A0000C0541EA045170BD41F480114FF0000E76
:1009B000013C90E645EA060E8DE60CEA135594EAF2
:1009C0000C0F08BF95EA0C0F3FF43BAF94EA0C0FF5
:1009D0000AD150EA01347FF434AF95EA0C0F7FF46A
:1009E00025AF104619462CE795EA0C0F06D152EABE
:1009F00003353FF4FDAE1046194622E750EA4106A2
:100A000018BF52EA43067FF4C5AE50EA41047FF4B2
:100A10000DAF52EA43057FF4EBAE12E74FF0FF3C17
:100A200006E000BF4FF0010C02E000BF4FF0010CE8
:100A30004DF804CD4FEA410C7FEA6C5C4FEA430C61
:100A400018BF7FEA6C5C1BD001B050EA410C0CBFB0
:100A500052EA430C91EA030F02BF90EA020F002012
:100A6000704710F1000F91EA030F58BF994208BF79
:100A700090422CBFD8176FEAE37040F00100704736
:100A80004FEA410C7FEA6C5C02D150EA013C07D18D
:100A90004FEA430C7FEA6C5CD6D152EA033CD3D0D8
:100AA0005DF8040B704700BF8446104662468C46D2
:100AB0001946634600E000BF01B5FFF7B7FF002805
:100AC00048BF10F1000F01BD4DF808EDFFF7F4FF2E
:100AD0000CBF012000205DF808FB00BF4DF808EDB9
:100AE000FFF7EAFF34BF012000205DF808FB00BFDC
:100AF0004DF808EDFFF7E0FF94BF012000205DF8FE
:100B000008FB00BF4DF808EDFFF7CEFF94BF0120B2
:100B100000205DF808FB00BF4DF808EDFFF7C4FFAB
:100B200034BF012000205DF808FB00BF4FEA410CF4
:100B30007FEA6C5C02D150EA013C0AD14FEA430CD7
:100B40007FEA6C5C02D152EA033C02D14FF0000014
:100B500070474FF0010070474FEA410212F5001252
:100B600015D211D56FF47873B3EB625212D94FEAF4
:100B7000C12343F0004343EA505311F0004F23FADE
:100B800002F018BF404270474FF00000704750EA33
:100B9000013005D111F0004008BF6FF000407047F0
:100BA0004FF00000704700BF4FEA4102B2F1E0434E
:100BB00024BFB3F5001CDCF1FE5C0DD901F0004C44
:100BC0004FEAC0024CEA5070B2F1004F40EB830094
:100BD00008BF20F00100704711F0804F21D113F1C0
:100BE0003872BCBF01F00040704741F480114FEAF9
:100BF0005252C2F11802C2F1200C10FA0CF320FA82
:100C000002F018BF40F001004FEAC1234FEAD3239E
:100C100003FA0CFC40EA0C0023FA02F34FEA430308
:100C2000CCE77FEA625307D150EA01331EBF4FF091
:100C3000FE4040F44000704701F0004040F0FE40AC
:100C400040F40000704700BF53B94AB9002908BFFB
:100C500000281CBF4FF0FF314FF0FF3000F070B99B
:100C6000ADF1080C6DE904CE00F006F8DDF804E003
:100C7000DDE9022304B070472DE9F047089E0D46D8
:100C800004460F46002B4AD18A42944665D9B2FAEF
:100C900082F343B102FA03FCC3F120029F4020FA21
:100CA00002F217439C404FEA1C4E1FFA8CF5B7FB2B
:100CB000FEF1220C0EFB117742EA074201FB05F020
:100CC00090420AD91CEB020201F1FF3780F01C812F
:100CD000904240F2198102396244121AA4B2B2FB66
:100CE000FEF00EFB102244EA024400FB05F5A5428B
:100CF0000AD91CEB040400F1FF3280F00781A54201
:100D000040F204816444023840EA0140641B00213F
:100D10001EB1DC400023C6E90043BDE8F0878B42EA
:100D200008D9002E00F0ED800021C6E90005084634
:100D3000BDE8F087B3FA83F1002949D1AB4202D371
:100D4000824200F2F880841A65EB03020120174604
:100D5000002EE2D0C6E90047DFE702B9FFDEB2FAB3
:100D600082F3002B40F090808A1A4FEA1C471FFA4A
:100D70008CFE0121B2FBF7F507FB1520220C42EA9D
:100D800000420EFB05F0904208D91CEB020205F16F
:100D9000FF3802D2904200F2CB804546121AA4B22C
:100DA000B2FBF7F007FB102244EA02440EFB00FE00
:100DB000A64508D91CEB040400F1FF3202D2A64577
:100DC00000F2BB801046A4EB0E0440EA05409FE70A
:100DD000C1F120078B4022FA07FC4CEA030C05FA0C
:100DE00001F420FA07F3FD404FEA1C492343B5FB09
:100DF000F9F81FFA8CFE09FB18551C0C44EA05444F
:100E000008FB0EF5A54202FA01F200FA01F00BD937
:100E10001CEB040408F1FF3A80F08880A54240F200
:100E20008580A8F102086444641B9DB2B4FBF9F309
:100E300009FB134445EA044403FB0EFEA64508D90A
:100E40001CEB040403F1FF356CD2A6456AD9023BC2
:100E5000644443EA0843A3FB0295A4EB0E04AC42AE
:100E6000C846AE4656D353D056B1B0EB080264EB39
:100E70000E0404FA07F7CA40CC401743C6E90074D1
:100E800018460021BDE8F087C3F1200102FA03FCF7
:100E900020FA01F225FA01F19D402A434FEA1C474E
:100EA0001FFA8CFEB1FBF7F007FB1015110C41EA9D
:100EB000054100FB0EF58D4204FA03F408D91CEB42
:100EC000010100F1FF382FD28D422DD90238614443
:100ED000491B92B2B1FBF7F507FB151142EA01423B
:100EE00005FB0EF1914208D91CEB020205F1FF3817
:100EF00016D2914214D9023D6244521A45EA004189
:100F000038E73146304608E73946E6E61046FBE664
:100F10004845A9D2B9EB020865EB0C0E013BA3E7EB
:100F20004546EAE72B4694E74046D1E7D0467BE7C3
:100F3000023D624432E708460AE76444023842E769
:100F4000704700BF80B584B000AF0021002000F0E2
:100F5000B8FE094B1B681846FFF7F6FA02460B4627
:100F6000381D064905F0E8F93B1D184600F002FF60
:100F700000BF1037BD4680BD14020020088600085F
:100F800080B584B000AF0921002000F09AFE094B23
:100F90001B681846FFF7D8FA02460B46381D06496B
:100FA00005F0CAF93B1D184600F0E4FE00BF1037FB
:100FB000BD4680BD1C0200201486000880B483B0AA
:100FC00000AF0346FB80094B1B6800225A6200BF3A
:100FD000064B1B685A6AFB889A42F9D300BF00BFD0
:100FE0000C37BD465DF8047B704700BF2C03002022
:100FF00080B586B000AF0023FB753B4600221A6027
:101000005A609A60DA601A6104233B6001237B60B6
:101010000023FB600023BB603B4619462A4801F0D1
:1010200075FF00220421284802F024F9142001F061
:10103000D5FB01220421244802F01CF91E20FFF7F1
:10104000BDFF00237B600123BB603B4619461E4861
:1010500001F05CFF2820FFF7B1FF04211A4802F0DD
:10106000F1F80346002B0BD15020FFF7A7FF042116
:10107000154802F0E7F80346002B01D00123FB7569
:1010800001F0A0FB0346114A136001F09BFB0346ED
:101090000F4A136004E001F095FB03460C4A13600D
:1010A0000421094802F0CEF80346002B06D0074B76
:1010B0001B689A1C064B1B689A42ECD8FB7D1846AD
:1010C0001837BD4680BD00BF000002400C02002062
:1010D0001002002080B582B000AF0023FB7163E0F6
:1010E00001F070FB0346344A136001F06BFB0346CA
:1010F000324A136004E001F065FB03462F4A136097
:1011000004212F4802F09EF80346002B06D12A4BFB
:101110001B689A1C294B1B689A42ECD82820FFF7C1
:101120004DFF0421264802F08DF80346002B0ED116
:10113000FB79C3F10703012202FA03F35BB2DB433D
:101140005AB297F9063013405BB2BB710BE0FB79E2
:10115000C3F10703012202FA03F35AB297F90630EA
:1011600013435BB2BB7101F02DFB0346124A1360BF
:1011700001F028FB0346114A136004E001F022FB52
:1011800003460E4A136004210D4802F05BF8034643
:10119000002B06D0084B1B689A1C084B1B689A4210
:1011A000ECD8FB790133FB71FB79072B98D9BB791C
:1011B00018460837BD4680BD0C02002010020020F2
:1011C0000000024080B52DED028B00AFFFF710FF4D
:1011D0000346002B7AD0FFF77DFF03461A463E4BAD
:1011E0001A70FFF777FF03461A463C4B1A70FFF759
:1011F00071FF03461A463A4B1A70FFF76BFF03461E
:101200001A46384B1A70FFF765FF03461A46364BED
:101210001A70354B1B7819462F4B1B781A462F4BEB
:101220001B7813442E4A127813442E4A1278134422
:1012300099424BD12A4B1B7807EE903AB8EE678A59
:10124000284B1B781846FFF76DF94FF00002274B2B
:10125000FFF7FCFA02460B4610461946FFF7A4FCBE
:1012600007EE900A78EE277A214BC3ED007A204BE7
:10127000D3ED007AB2EE027A27EE877AF1EE046AB5
:10128000C7EE267A9FED1B7A77EE877A1A4BC3ED6D
:10129000007A114B1B7807EE903AB8EE678A0F4B35
:1012A0001B781846FFF73EF94FF000020F4BFFF78F
:1012B000CDFA02460B4610461946FFF775FC07EEBD
:1012C000900A78EE277A0D4BC3ED007A00BFBD4639
:1012D000BDEC028B80BD00BF04020020050200208F
:1012E000060200200702002008020020000024401F
:1012F0001402002000000042180200201C020020FE
:1013000080B483B000AF78607B680F4A82FB031221
:101310009210DB17D31ADBB21B01D8B27A680A4BE2
:1013200083FB02139910D317C91A0B469B000B4479
:101330005B00D11ACBB20344DBB218460C37BD4672
:101340005DF8047B704700BF6766666680B483B053
:1013500000AF0346FB71FB791B09DBB21A4613464B
:101360009B0013445B001A46FB7903F00F03134400
:1013700018460C37BD465DF8047B704780B586B0D3
:1013800004AF4FF47A730293072301933B46009313
:1013900001230022D0211F4802F0DCFA3B781846D6
:1013A000FFF7D4FF0346DAB21B4B1A707B7818465E
:1013B000FFF7CCFF0346DAB2174B5A70BB781846DA
:1013C000FFF7C4FF0346DAB2134B9A70FB78184656
:1013D000FFF7BCFF0346DAB20F4BDA703B791846D1
:1013E000FFF7B4FF0346DAB20B4B1A717B7918464C
:1013F000FFF7ACFF0346DAB2074B5A71BB791846C8
:10140000FFF7A4FF0346DAB2034B9A7100BF083717
:10141000BD4680BDD80200204002002080B588B0C3
:1014200004AF0346FB71FB791846FFF769FF0346DB
:10143000FB734FF47A7302930123019307F10F03B7
:10144000009301230022D021034802F089F900BF54
:101450001037BD4680BD00BFD802002080B588B0DF
:1014600004AF0346FB71FB791846FFF749FF0346BB
:10147000FB734FF47A7302930123019307F10F0377
:10148000009301230122D021034802F069F900BF33
:101490001037BD4680BD00BFD802002080B588B09F
:1014A00004AF0346FB71FB791846FFF729FF03469B
:1014B000FB734FF47A7302930123019307F10F0337
:1014C000009301230222D021034802F049F900BF12
:1014D0001037BD4680BD00BFD802002080B588B05F
:1014E00004AF0346FB71FB791846FFF709FF03467B
:1014F000FB734FF47A7302930123019307F10F03F7
:10150000009301230422D021034802F029F900BFEF
:101510001037BD4680BD00BFD802002080B588B01E
:1015200004AF0346FB71FB791846FFF7E9FE03465B
:10153000FB734FF47A7302930123019307F10F03B6
:10154000009301230522D021034802F009F900BFCE
:101550001037BD4680BD00BFD802002080B582B0E4
:1015600002AFFFF70BFF144B9B781A46124B5B78C8
:101570001249134804F0E0FE0021012000F0A1FB15
:101580000F4800F0F7FB0C4B1B791A460A4B5B79AE
:101590001946094B9B7900930B460A49084804F009
:1015A000CBFE0621012000F08CFB054800F0E2FB99
:1015B00000BFBD4680BD00BF400200201C86000861
:1015C000200200202886000880B588B000AFF860AF
:1015D000B9601346FB710021002000F072FB07F197
:1015E0001003FA681149184604F0A6FE07F110032B
:1015F000184600F0BFFB00233B740021012000F0DF
:1016000060FB07F11003184600F0B4FBFB7907F10B
:101610001000BA68064904F08FFE07F1100318465F
:1016200000F0A8FB00BF2037BD4680BD3C86000807
:101630004886000880B582B000AFA94B1B68052B17
:1016400000F2C38101A252F823F000BF6516000822
:1016500093160008ED1600089717000821180008D7
:101660005119000800F04CFB00F0C6F99D4800F04D
:1016700081FB4FF4FA6001F0B1F800F01BFB984BCE
:1016800001221A60642000F0B9FD642000F0CAFD58
:10169000A4E1954B1B68012B0BD14FF4FA7000F0BD
:1016A000ADFDFFF76DFCFFF74DFCFFF757FFFFF7B0
:1016B00089FD8E4B1B68012B02D1642000F0B2FD26
:1016C000002000F0D7F90346002B00F08081844B06
:1016D00002221A60642000F0A5FD00F0EBFA844BB2
:1016E0009A78844B1A7000F0E5FA70E1814B1B7810
:1016F0001A4681490220FFF767FF7C4B1B68012BCC
:1017000007D1642000F08EFD4FF400517B4801F0BA
:10171000CAFD012000F0AEF90346002B13D0754B33
:101720001B780133DAB2734B1A70724B1B78172B8C
:1017300002D9704B00221A706E4B1B781A466E4904
:101740000220FFF741FF022000F094F90346002B2E
:101750000AD0684B1B781846FFF7A0FE0020FFF761
:101760005DFE5F4B01221A60002000F083F9034602
:10177000002B00F02E8100F09DFA594B01221A60D7
:10178000642000F03BFD642000F04CFD584B5A787B
:10179000584B1A701DE1554B1B68012B07D1642073
:1017A00000F040FD4FF40051544801F07CFD012051
:1017B00000F060F90346002B0CD04E4B1B78013330
:1017C000DAB24C4B1A704B4B1B783C2B02D9494B6D
:1017D00000221A70022000F04DF90346002B0AD0B7
:1017E000444B1B781846FFF739FE0020FFF716FE22
:1017F0003B4B01221A60002000F03CF90346002B0D
:1018000000F0E980364B04221A60642000F0F6FCF8
:10181000642000F007FD364B1A79364B1A70DAE077
:10182000324B1B68012B07D1642000F0FBFC4FF406
:101830000051324801F037FD012000F01BF903464A
:10184000002B64D02B4B1B780133DAB2294B1A7072
:10185000274B5B79FB71264B9B79BB71FB79012B85
:1018600011D0FB79032B0ED0FB79052B0BD0FB7924
:10187000072B08D0FB79082B05D0FB790A2B02D067
:10188000FB790C2B07D11B4B1B781F2B3FD9194B16
:1018900001221A703BE0FB79042B08D0FB79062B60
:1018A00005D0FB79092B02D0FB790B2B07D1114B0B
:1018B0001B781E2B2BD90F4B01221A7027E0FB79C6
:1018C000022B24D1BB7903F00303DBB2002B17D129
:1018D000084B1B781D2B1AD9064B01221A7016E0F3
:1018E000BC03002050860008C0030020C80300206D
:1018F000400200204702002060860008000C0240E1
:10190000384B1B781C2B02D9364B01221A7002204F
:1019100000F0B0F80346002B07D0324B1B78184676
:10192000FFF7DCFD304B01221A60002000F0A2F826
:101930000346002B0CD02C4B05221A60642000F0CB
:101940005DFC642000F06EFC284B5A79254B1A7020
:10195000274B1B68012B07D1642000F063FC4FF478
:101960000051244801F09FFC012000F083F8034659
:10197000002B0CD01B4B1B780133DAB2194B1A70B9
:10198000184B1B780B2B02D9164B01221A70022020
:1019900000F070F80346002B07D0124B1B78184656
:1019A000FFF7BCFD104B01221A60002000F062F826
:1019B0000346002B11D00C4B01221A60642000F06A
:1019C0001DFC642000F02EFC07E000BF06E000BF15
:1019D00004E000BF02E000BF00E000BF00BF083726
:1019E000BD4680BD47020020BC030020400200200D
:1019F000C8030020000C024080B483B000AF002375
:101A00007B6020E0154A7B68012142F82310144ACC
:101A10007B68012142F82310124A7B68012142F8B9
:101A20002310114A7B68012142F823100F4A7B687A
:101A3000C82142F823100E4A7B68002142F8231087
:101A40007B6801337B607B68022BDBDD00BF00BF5E
:101A50000C37BD465DF8047B704700BF480200208C
:101A600054020020600200206C0200207802002056
:101A70008402002080B483B000AF7860094A7B689C
:101A800052F82330012B06D1064A7B68002142F828
:101A90002310012300E0002318460C37BD465DF8F3
:101AA000047B70478402002080B483B000AF78606C
:101AB000054A7B68012142F8231000BF0C37BD4660
:101AC0005DF8047B704700BF8402002080B582B0BF
:101AD00000AF00237B6076E03F4A7B6852F823200A
:101AE0003E497B6841F823203D4A7B6852F8232019
:101AF00039497B6841F823203A4A7B6852F8232011
:101B000039497B6831F813301946104601F09AFBC9
:101B100003461946324A7B6842F823102F4A7B68F5
:101B200052F823202C497B6851F823309A4247D140
:101B3000294A7B6852F8232029497B6851F82330D1
:101B40009A423DD1294A7B6852F8232024497B6878
:101B500051F823309A4216D0214A7B6852F823204C
:101B600022497B6841F823201D4A7B6852F82330C4
:101B7000002B25D17868FFF797FF1D4A7B68C821A5
:101B800042F823101CE01A4A7B6852F823305A1E90
:101B900017497B6841F82320154A7B6852F82330A7
:101BA000002B0DDC0E4A7B6852F82330002B02D14B
:101BB0007868FFF779FF0E4A7B68C82142F8231046
:101BC0007B6801337B607B68022B85DD00BF00BF33
:101BD0000837BD4680BD00BF5402002048020020E7
:101BE0006002002008000020000000206C0200209D
:101BF0007802002080B586B002AF0346FB71FB7906
:101C000023F00F03FB73FB791B01BB73FB7B43F0DA
:101C10000C03DBB23B72FB7B43F00803DBB27B724D
:101C2000BB7B43F00C03DBB2BB72BB7B43F008030E
:101C3000DBB2FB7207F108026423009304234E21F8
:101C4000034801F08FFC00BF1037BD4680BD00BFC8
:101C5000D802002080B586B002AF0346FB71FB7945
:101C600023F00F03FB73FB791B01BB73FB7B43F07A
:101C70000D03DBB23B72FB7B43F00903DBB27B72EB
:101C8000BB7B43F00D03DBB2BB72BB7B43F00903AC
:101C9000DBB2FB7207F108026423009304234E2198
:101CA000034801F05FFC00BF1037BD4680BD00BF98
:101CB000D802002080B500AF0120FFF79BFF00BFD6
:101CC00080BD80B582B000AF786039607B68002B42
:101CD00003D07B68012B05D009E03B6843F080030B
:101CE0003B6004E03B6843F0C0033B6000BF3B68DF
:101CF000DBB21846FFF77EFF00BF0837BD4680BD48
:101D000080B500AF322000F069FD3020FFF772FF90
:101D1000052000F063FD3020FFF76CFF012000F08C
:101D20005DFD3020FFF766FF0A2000F057FD202000
:101D3000FFF760FF0A2000F051FD2820FFF75AFF4F
:101D4000012000F04BFD0820FFF754FF012000F0B8
:101D500045FD0120FFF74EFF022000F03FFD062069
:101D6000FFF748FF012000F039FD0C20FFF742FF8C
:101D700000BF80BD80B582B000AF786006E07B68B0
:101D80005A1C7A601B781846FFF764FF7B681B7843
:101D9000002BF4D100BF00BF0837BD4680BD000056
:101DA00080B500AF00F0A8FC00F024F800F0A4F922
:101DB00000F0DAF800F006F900F084F800F04EF9CF
:101DC000094803F003F9084803F068F9074803F0ED
:101DD00065F9074B00221A60FFF72CFC4FF4FA70EC
:101DE00000F0FCFCF8E700BF2C0300207403002087
:101DF000BC03002080B594B000AF07F1200330226F
:101E00000021184604F0FBFA07F10C0300221A60C7
:101E10005A609A60DA601A610023BB60274B1B6C22
:101E2000264A43F080531364244B1B6C03F0805309
:101E3000BB60BB6800237B60214B1B68204A43F4D6
:101E4000804313601E4B1B6803F480437B607B68F8
:101E500001233B624FF480337B620223BB634FF468
:101E60008003FB6304233B6450237B640223BB6435
:101E70000423FB6407F12003184602F0D3FB03465A
:101E8000002B01D000F0B4F90F23FB6002233B616B
:101E900080237B610023BB610023FB6107F10C03FE
:101EA0000121184602F036FE0346002B01D000F057
:101EB0009FF900BF5037BD4680BD00BF00380240CB
:101EC0000070004080B584B000AF3B4600221A602D
:101ED0005A609A60DA60214B214A1A601F4B002237
:101EE0005A601E4B00229A601C4B00221A611B4B49
:101EF00001221A76194B002283F82020174B00226A
:101F0000DA62164B174A9A62144B0022DA60134BBE
:101F10000122DA61114B002283F830200F4B01229D
:101F20005A610E4800F07EFC0346002B01D000F001
:101F30005FF909233B6001237B600123BB603B46C3
:101F40001946064800F0B2FC0346002B01D000F011
:101F50004FF900BF1037BD4680BD00BF9002002082
:101F6000002001400100000F80B500AF124B134A62
:101F70001A60114B124A5A600F4B00229A600E4BA6
:101F80000022DA600C4B4FF480421A610A4B0022A7
:101F90005A61094B00229A61074B0022DA61064B15
:101FA00000221A62044801F099F90346002B01D07F
:101FB00000F01EF900BF80BDD80200200054004090
:101FC000A086010080B586B000AF07F108030022AB
:101FD0001A605A609A60DA603B4600221A605A60C2
:101FE0001D4B4FF080421A601B4B27225A601A4B40
:101FF00000229A60184B4FF6FE72DA60164B0022F0
:102000001A61154B00229A61134802F08FFF0346B4
:10201000002B01D000F0ECF84FF48053BB6007F1C7
:10202000080319460C4803F099F90346002B01D028
:1020300000F0DEF800233B6000237B603B4619463E
:10204000054803F0C1FB0346002B01D000F0D0F897
:1020500000BF1837BD4680BD2C03002080B586B078
:1020600000AF07F1080300221A605A609A60DA6034
:102070003B4600221A605A601D4B1E4A1A601C4BD8
:1020800027225A601A4B00229A60194B42F20F72B3
:10209000DA60174B00221A61154B00229A6114482E
:1020A00002F044FF0346002B01D000F0A1F84FF4EA
:1020B0008053BB6007F1080319460D4803F04EF941
:1020C0000346002B01D000F093F800233B6000236F
:1020D0007B603B461946064803F076FB0346002B1F
:1020E00001D000F085F800BF1837BD4680BD00BFA5
:1020F000740300200004004080B58AB000AF07F1EF
:10210000140300221A605A609A60DA601A61002390
:102110003B612E4B1B6B2D4A43F0800313632B4B0B
:102120001B6B03F080033B613B690023FB60274B83
:102130001B6B264A43F002031363244B1B6B03F013
:102140000203FB60FB680023BB60204B1B6B1F4A34
:1021500043F0080313631D4B1B6B03F00803BB60C4
:10216000BB6800237B60194B1B6B184A43F00103CB
:102170001363164B1B6B03F001037B607B6800222B
:102180004FF40051124801F075F84FF400537B6191
:102190000123BB610023FB6100233B6207F11403B1
:1021A00019460B4800F0B2FE4FF4E0637B61002358
:1021B000BB610123FB6107F114031946054800F0D8
:1021C000A5FE00BF2837BD4680BD00BF00380240D5
:1021D000000C02400000024080B582B000AF786081
:1021E00000F034F8FFF772FC00BF0837BD4680BD31
:1021F00080B400AF72B600BFFEE7000080B483B0C9
:1022000000AF7860054A7B681360054B00221A60B6
:1022100000BF0C37BD465DF8047B7047C403002047
:10222000C003002080B483B000AF7860054A7B68AB
:102230001360054B00221A6000BF0C37BD465DF8E5
:10224000047B7047CC030020C803002080B400AF9B
:10225000124B1B68002B0BDD104B1B68013B0F4A18
:1022600013600E4B1B68002B02DC0D4B01221A6021
:102270000C4B1B68002B0BDD0A4B1B68013B094A0A
:102280001360084B1B68002B02DC074B01221A600D
:1022900000BFBD465DF8047B704700BFC40300204B
:1022A000C0030020CC030020C803002080B483B00A
:1022B00000AF00237B60104B5B6C0F4A43F48043FC
:1022C00053640D4B5B6C03F480437B607B6800239D
:1022D0003B60094B1B6C084A43F080531364064B68
:1022E0001B6C03F080533B603B6800BF0C37BD465E
:1022F0005DF8047B704700BF0038024080B58AB0AB
:1023000000AF786007F1140300221A605A609A60E7
:10231000DA601A617B681B68174A934227D1002351
:102320003B61164B5B6C154A43F480735364134B4B
:102330005B6C03F480733B613B690023FB600F4BD4
:102340001B6B0E4A43F0020313630C4B1B6B03F031
:102350000203FB60FB6802237B610323BB61002354
:10236000FB6107F114031946054800F0CFFD00BFDB
:102370002837BD4680BD00BF002001400038024024
:102380000004024080B58AB000AF786007F1140302
:1023900000221A605A609A60DA601A617B681B68D2
:1023A000194A93422BD100233B61184B1B6B174AF0
:1023B00043F002031363154B1B6B03F002033B61F5
:1023C0003B69C0237B611223BB610023FB610323B4
:1023D0003B6204237B6207F1140319460C4800F0AA
:1023E00095FD0023FB60094B1B6C084A43F4001366
:1023F0001364064B1B6C03F40013FB60FB6800BF07
:102400002837BD4680BD00BF005400400038024060
:102410000004024080B584B000AF78607B681B6820
:10242000B3F1804F0ED10023FB60164B1B6C154A95
:1024300043F001031364134B1B6C03F00103FB60B7
:10244000FB681AE07B681B680F4A934215D1002392
:10245000BB600C4B1B6C0B4A43F002031364094B2B
:102460001B6C03F00203BB60BB68002200211D202F
:1024700000F015FD1D2000F02EFD00BF1037BD46F9
:1024800080BD00BF003802400004004080B400AFAF
:10249000FEE780B400AFFEE780B400AFFEE780B493
:1024A00000AFFEE780B400AFFEE780B400AF00BF2E
:1024B000BD465DF8047B704780B400AF00BFBD46E9
:1024C0005DF8047B704780B400AF00BFBD465DF887
:1024D000047B704780B500AF00F060F900BF80BD9D
:1024E00080B500AF024802F049FE00BF80BD00BFCA
:1024F0007403002080B400AF01231846BD465DF888
:10250000047B704780B582B000AF7860396003F01B
:10251000C9FF034616221A604FF0FF3318460837EA
:10252000BD4680BD80B582B000AF78604FF0FF310E
:102530007868FFF7E7FFFEE780B586B000AFF86088
:10254000B9607A6000237B610AE0AFF30080014646
:10255000BB685A1CBA60CAB21A707B6901337B61CE
:102560007A697B689A42F0DB7B6818461837BD466B
:1025700080BD80B586B000AFF860B9607A60002396
:102580007B6109E0BB685A1CBA601B781846AFF340
:1025900000807B6901337B617A697B689A42F1DB59
:1025A0007B6818461837BD4680BD80B483B000AF45
:1025B00078604FF0FF3318460C37BD465DF8047B5A
:1025C000704780B483B000AF786039603B684FF4E7
:1025D00000525A60002318460C37BD465DF8047B54
:1025E000704780B483B000AF7860012318460C3781
:1025F000BD465DF8047B704780B485B000AFF860DD
:10260000B9607A60002318461437BD465DF8047B34
:102610007047000080B586B000AF7860144A154B53
:10262000D31A7B617B693B61134B1B68002B02D182
:10263000114B124A1A60104B1A687B6813443A69AE
:102640009A4207D203F02EFF03460C221A604FF085
:10265000FF3309E0084B1B68FB60074B1A687B6877
:102660001344054A1360FB6818461837BD4680BD01
:102670000000022000040000D003002028050020F4
:1026800080B400AF064BD3F88830054A43F470039A
:10269000C2F8883000BFBD465DF8047B704700BFBC
:1026A00000ED00E0DFF834D0FFF7EAFF0C480D49F9
:1026B0000D4A002302E0D458C4500433C4188C429D
:1026C000F9D30A4A0A4C002301E013600432A24203
:1026D000FBD303F0EDFEFFF763FB70470000022021
:1026E00000000020E8010020048A0008E801002022
:1026F00024050020FEE7000080B500AF0E4B1B68EC
:102700000D4A43F4007313600B4B1B680A4A43F4F1
:1027100080631360084B1B68074A43F4807313609F
:10272000032000F0B1FB0F2000F008F8FFF7BEFD1A
:102730000023184680BD00BF003C024080B582B037
:1027400000AF7860124B1A68124B1B7819464FF491
:102750007A73B3FBF1F3B2FBF3F3184600F0C9FB55
:102760000346002B01D001230EE07B680F2B0AD813
:10277000002279684FF0FF3000F091FB064A7B6839
:102780001360002300E0012318460837BD4680BDD2
:10279000140000201C0000201800002080B400AFAE
:1027A000064B1B781A46064B1B681344044A1360F9
:1027B00000BFBD465DF8047B704700BF1C000020D1
:1027C000D403002080B400AF034B1B681846BD46FD
:1027D0005DF8047B704700BFD403002080B584B04F
:1027E00000AF7860FFF7EEFFB8607B68FB60FB68C6
:1027F000B3F1FF3F05D00A4B1B781A46FB68134420
:10280000FB6000BFFFF7DEFF0246BB68D31AFA6821
:102810009A42F7D800BF00BF1037BD4680BD00BF49
:102820001C00002080B584B000AF78600023FB73EB
:102830007B68002B01D1012333E07B681B6C002BEC
:1028400009D17868FFF75AFD7B6800225A647B68DB
:10285000002283F83C207B681B6C03F01003002BE4
:1028600018D17B681B6C23F4885323F0020343F0D8
:1028700002027B681A64786800F03AF97B680022EB
:102880005A647B681B6C23F0030343F001027B68EE
:102890001A6401E00123FB737B68002283F83C206B
:1028A000FB7B18461037BD4680BD000080B485B064
:1028B00000AF786039600023BB607B6893F83C30E0
:1028C000012B01D1022305E17B68012283F83C2022
:1028D0003B681B68092B25D97B681B68D9683B6856
:1028E0001B689BB21A4613465B0013441E3B07222B
:1028F00002FA03F3DA437B681B680A40DA607B68FC
:102900001B68D9683B689A683B681B689BB218468D
:1029100003465B0003441E3B9A407B681B680A43E6
:10292000DA6022E07B681B6819693B681B689BB210
:102930001A4613465B001344072202FA03F3DA43F4
:102940007B681B680A401A617B681B6819693B68D1
:102950009A683B681B689BB2184603465B000344B9
:102960009A407B681B680A431A613B685B68062BC8
:1029700024D87B681B68596B3B685A6813469B00D8
:102980001344053B1F2202FA03F3DA437B681B68FA
:102990000A405A637B681B68596B3B681B689BB293
:1029A00018463B685A6813469B001344053B00FADF
:1029B00003F27B681B680A435A634CE03B685B6820
:1029C0000C2B24D87B681B68196B3B685A6813462C
:1029D0009B001344233B1F2202FA03F3DA437B6874
:1029E0001B680A401A637B681B68196B3B681B688D
:1029F0009BB218463B685A6813469B001344233B1E
:102A000000FA03F27B681B680A431A6323E07B68C1
:102A10001B68D96A3B685A6813469B001344413BC4
:102A20001F2202FA03F3DA437B681B680A40DA626A
:102A30007B681B68D96A3B681B689BB218463B6879
:102A40005A6813469B001344413B00FA03F27B682B
:102A50001B680A43DA62224BFB607B681B68214AD1
:102A6000934209D13B681B68122B05D1FB685B6858
:102A700043F48002FB685A607B681B68194A9342E2
:102A800023D13B681B68102B03D03B681B68112BBC
:102A90001BD1FB685B6843F40002FB685A603B682B
:102AA0001B68102B11D1104B1B68104AA2FB03238B
:102AB0009A0C13469B0013445B00BB6002E0BB68AA
:102AC000013BBB60BB68002BF9D17B68002283F817
:102AD0003C20002318461437BD465DF8047B704740
:102AE00000230140002001401400002083DE1B432E
:102AF00080B485B000AF7860794BFB60FB685B68A1
:102B000023F44032FB685A60FB685A687B685B6854
:102B10001A43FB685A607B681B685A687B681B68AD
:102B200022F480725A607B681B6859687B681B6955
:102B30001A027B681B680A435A607B681B685A68E4
:102B40007B681B6822F040725A607B681B6859687A
:102B50007B689A687B681B680A435A607B681B68BD
:102B60009A687B681B6822F400629A607B681B6825
:102B700099687B68DA687B681B680A439A607B689F
:102B80009B6A584A934222D07B681B689A687B688C
:102B90001B6822F070629A607B681B6899687B688A
:102BA0009A6A7B681B680A439A607B681B689A680C
:102BB0007B681B6822F040529A607B681B689968AA
:102BC0007B68DA6A7B681B680A439A600FE07B685F
:102BD0001B689A687B681B6822F070629A607B6849
:102BE0001B689A687B681B6822F040529A607B6879
:102BF0001B689A687B681B6822F002029A607B68F7
:102C00001B6899687B681B7E5A007B681B680A43B7
:102C10009A607B6893F82030002B1BD07B681B6880
:102C20005A687B681B6842F400625A607B681B68C4
:102C30005A687B681B6822F460425A607B681B6894
:102C400059687B685B6A013B5A037B681B680A43CF
:102C50005A6007E07B681B685A687B681B6822F42F
:102C600000625A607B681B68DA6A7B681B6822F422
:102C70007002DA627B681B68D96A7B68DB69013B9A
:102C80001A057B681B680A43DA627B681B689A68CE
:102C90007B681B6822F400729A607B681B689968E5
:102CA0007B6893F830305A027B681B680A439A604D
:102CB0007B681B689A687B681B6822F480629A6054
:102CC0007B681B6899687B685B699A027B681B68F4
:102CD0000A439A6000BF1437BD465DF8047B704715
:102CE000002301400100000F80B485B000AF786080
:102CF0007B6803F00703FB600C4BDB68BB60BA68C2
:102D00004FF6FF031340BB60FB681A02BB68134316
:102D100043F0BF6343F40033BB60044ABB68D36035
:102D200000BF1437BD465DF8047B704700ED00E03E
:102D300080B400AF044BDB681B0A03F0070318469E
:102D4000BD465DF8047B704700ED00E080B483B0C1
:102D500000AF0346FB7197F90730002B0BDBFB79C3
:102D600003F01F02074997F907305B09012000FAB9
:102D700002F241F8232000BF0C37BD465DF8047B0A
:102D8000704700BF00E100E080B483B000AF0346AD
:102D90003960FB7197F90730002B0ADB3B68DAB228
:102DA0000C4997F907301201D2B20B4483F8002383
:102DB0000AE03B68DAB20849FB7903F00F03043BF1
:102DC0001201D2B20B441A7600BF0C37BD465DF833
:102DD000047B704700E100E000ED00E080B489B0C2
:102DE00000AFF860B9607A60FB6803F00703FB612D
:102DF000FB69C3F10703042B28BF0423BB61FB69F4
:102E00000433062B02D9FB69033B00E000237B61FE
:102E10004FF0FF32BB6902FA03F3DA43BB681A4092
:102E20007B699A404FF0FF317B6901FA03F3D94384
:102E30007B680B40134318462437BD465DF8047B7E
:102E40007047000080B582B000AF78607B68013BBE
:102E5000B3F1807F01D301230FE00A4A7B68013B75
:102E600053600F214FF0FF30FFF78EFF054B00221C
:102E70009A60044B07221A60002318460837BD46A3
:102E800080BD00BF10E000E080B582B000AF786088
:102E90007868FFF729FF00BF0837BD4680BD80B5C1
:102EA00086B000AF0346B9607A60FB7300237B6194
:102EB000FFF73EFF78617A68B9687869FFF78EFF9F
:102EC000024697F90F3011461846FFF75DFF00BF25
:102ED0001837BD4680BD80B582B000AF0346FB7198
:102EE00097F907301846FFF731FF00BF0837BD4696
:102EF00080BD80B582B000AF78607868FFF7A2FF30
:102F0000034618460837BD4680BD000080B489B02E
:102F100000AF7860396000237B6100233B610023B0
:102F2000BB610023FB616BE10122FB6902FA03F341
:102F30007B613B681B687A6913403B613A697B6936
:102F40009A4240F05A813B685B6803F00303012B0F
:102F500005D03B685B6803F00303022B30D17B682C
:102F60009B68BB61FB695B00032202FA03F3DB434E
:102F7000BA691340BB613B68DA68FB695B0002FA1F
:102F800003F3BA691343BB617B68BA699A607B68D3
:102F90005B68BB610122FB6902FA03F3DB43BA6998
:102FA0001340BB613B685B681B0903F00102FB69CE
:102FB00002FA03F3BA691343BB617B68BA695A60CA
:102FC0003B685B6803F00303032B17D07B68DB6867
:102FD000BB61FB695B00032202FA03F3DB43BA69BE
:102FE0001340BB613B689A68FB695B0002FA03F31C
:102FF000BA691343BB617B68BA69DA603B685B6896
:1030000003F00303022B23D1FB69DA087B68083243
:1030100053F82230BB61FB6903F007039B000F22CA
:1030200002FA03F3DB43BA691340BB613B681A69D8
:10303000FB6903F007039B0002FA03F3BA69134329
:10304000BB61FB69DA087B680832B96943F8221072
:103050007B681B68BB61FB695B00032202FA03F318
:10306000DB43BA691340BB613B685B6803F0030252
:10307000FB695B0002FA03F3BA691343BB617B6827
:10308000BA691A603B685B6803F44033002B00F0B8
:10309000B4800023FB60604B5B6C5F4A43F4804369
:1030A00053645D4B5B6C03F48043FB60FB685B4ADD
:1030B000FB699B08023352F82330BB61FB6903F0C4
:1030C00003039B000F2202FA03F3DB43BA691340A8
:1030D000BB617B68524A93422BD07B68514A934232
:1030E00025D07B68504A93421FD07B684F4A934259
:1030F00019D07B684E4A934213D07B684D4A934265
:103100000DD07B684C4A934207D07B684B4A934270
:1031100001D107230EE008230CE006230AE0052373
:1031200008E0042306E0032304E0022302E0012375
:1031300000E00023FA6902F0030292009340BA69AA
:103140001343BB613549FB699B080233BA6941F8F7
:1031500023203B4B9B68BB613B69DB43BA6913404F
:10316000BB613B685B6803F48013002B03D0BA6932
:103170003B691343BB61324ABB699360304BDB68E8
:10318000BB613B69DB43BA691340BB613B685B6869
:1031900003F40013002B03D0BA693B691343BB61EE
:1031A000274ABB69D360264B5B68BB613B69DB4345
:1031B000BA691340BB613B685B6803F40033002BC2
:1031C00003D0BA693B691343BB611D4ABB695360B5
:1031D0001B4B1B68BB613B69DB43BA691340BB6196
:1031E0003B685B6803F48033002B03D0BA693B690A
:1031F0001343BB61124ABB691360FB690133FB6176
:10320000FB690F2B7FF690AE00BF00BF2437BD4691
:103210005DF8047B704700BF003802400038014071
:10322000000002400004024000080240000C02407E
:10323000001002400014024000180240001C02402E
:10324000003C014080B485B000AF78600B467B80C5
:103250007B681A697B881340002B02D00123FB7323
:1032600001E00023FB73FB7B18461437BD465DF875
:10327000047B704780B483B000AF78600B467B80DE
:1032800013467B707B78002B03D07A887B689A6129
:1032900003E07B881A047B689A6100BF0C37BD4647
:1032A0005DF8047B704780B485B000AF78600B4652
:1032B0007B807B685B69FB607A88FB6813401A043B
:1032C000FB68D9437B880B401A437B689A6100BF37
:1032D0001437BD465DF8047B7047000080B584B0AC
:1032E00000AF78607B68002B01D101232BE17B6864
:1032F00093F83D30DBB2002B06D17B68002283F8C7
:103300003C207868FFF73EF87B68242283F83D2054
:103310007B681B681A687B681B6822F001021A60D0
:103320007B681B681A687B681B6842F400421A605D
:103330007B681B681A687B681B6822F400421A606D
:1033400001F0E0FDF8607B685B68814A934207D832
:10335000FB68804A934294BF01230023DBB206E05E
:10336000FB687D4A934294BF01230023DBB2002B0C
:1033700001D00123E7E0FB68784AA2FB03239B0C02
:10338000BB607B681B685B6823F03F017B681B6840
:10339000BA680A435A607B681B681B6A23F03F01C6
:1033A0007B685B686A4A934202D8BB68013309E0D4
:1033B000BB684FF4967202FB03F3694AA2FB032336
:1033C0009B0901337A6812680B4313627B681B68A0
:1033D000DB6923F44F4222F0FF027B685B685C49A3
:1033E0008B4219D8FB68591E7B685B685B00B1FB98
:1033F000F3F3591C40F6FC730B40002B0AD0FB681A
:10340000591E7B685B685B00B1FBF3F30133C3F3C8
:103410000B0351E004234FE07B689B68002B11D124
:10342000FB68581E7B6859680B465B000B44B0FB79
:10343000F3F30133C3F30B03002B0CBF0123002371
:10344000DBB212E0FB68581E7B6859680B469B0094
:103450000B4499000B44B0FBF3F30133C3F30B03AC
:10346000002B0CBF01230023DBB2002B01D0012372
:1034700022E07B689B68002B0ED1FB68581E7B689E
:1034800059680B465B000B44B0FBF3F30133C3F305
:103490000B0343F400430FE0FB68581E7B68596838
:1034A0000B469B000B4499000B44B0FBF3F3013334
:1034B000C3F30B0343F44043796809681343CB61BA
:1034C0007B681B681B6823F0C0017B68DA697B6836
:1034D0001B6A1A437B681B680A431A607B681B6877
:1034E0009B6823F4034323F0FF037A6811697A6829
:1034F000D26811437A6812680B4393607B681B683B
:10350000DB6823F0FF017B685A697B689B691A437B
:103510007B681B680A43DA607B681B681A687B68F3
:103520001B6842F001021A607B6800221A647B6803
:10353000202283F83D207B6800221A637B680022EA
:1035400083F83E20002318461037BD4680BD00BFDB
:10355000A08601007F841E00FF083D0083DE1B4320
:10356000D34D621080B588B002AFF8607A601A4619
:103570000B467B8113463B81FFF724F97861FB689A
:1035800093F83D30DBB2202B40F0E0807B69009364
:10359000192301227049F86800F00EFE0346002B43
:1035A00001D00223D3E0FB6893F83C30012B01D11A
:1035B0000223CCE0FB68012283F83C20FB681B68F7
:1035C0001B6803F00103012B07D0FB681B681A6816
:1035D000FB681B6842F001021A60FB681B681A68EE
:1035E000FB681B6822F400621A60FB68212283F8E2
:1035F0003D20FB68102283F83E20FB6800221A64FD
:10360000FB687A685A62FB683A895A85FB685B8D69
:103610009AB2FB681A85FB68504ADA6279897B693D
:103620003A6AF86800F0C8FB0346002B01D001237A
:103630008DE000233B61FB681B685B693B61FB68B5
:103640001B689B693B613B6966E07A69396AF86887
:1036500000F0CCFE0346002B0DD0FB681B6C042B46
:1036600007D1FB681B681A68FB681B6842F400728C
:103670001A6001236BE0FB685B6A1A78FB681B68C1
:103680001A61FB685B6A5A1CFB685A62FB685B8DB7
:103690009BB2013B9AB2FB685A85FB681B8D013BCC
:1036A0009AB2FB681A85FB681B685B6903F0040328
:1036B000042B1BD1FB681B8D002B17D0FB685B6AAA
:1036C0001A78FB681B681A61FB685B6A5A1CFB6806
:1036D0005A62FB685B8D9BB2013B9AB2FB685A85CC
:1036E000FB681B8D013B9AB2FB681A857A69396ABF
:1036F000F86800F0C3FE0346002B0DD0FB681B6C7E
:10370000042B07D1FB681B681A68FB681B6842F42E
:1037100000721A6001231AE0FB681B8D002B94D104
:10372000FB681B681A68FB681B6842F400721A6029
:10373000FB68202283F83D20FB68002283F83E20AE
:10374000FB68002283F83C20002300E00223184697
:103750001837BD4680BD00BF020010000000FFFF0B
:1037600080B588B002AFF860084611461A46034695
:103770007B810B463B811346FB80FFF723F8786182
:10378000FB6893F83D30DBB2202B40F0D9807B6999
:103790000093192301226D49F86800F00DFD0346DE
:1037A000002B01D00223CCE0FB6893F83C30012BC6
:1037B00001D10223C5E0FB68012283F83C20FB68AD
:1037C0001B681B6803F00103012B07D0FB681B6813
:1037D0001A68FB681B6842F001021A60FB681B68EC
:1037E0001A68FB681B6822F400621A60FB682122D9
:1037F00083F83D20FB68402283F83E20FB680022CE
:103800001A64FB683A6A5A62FB68BA8C5A85FB688C
:103810005B8D9AB2FB681A85FB684D4ADA62F888BC
:103820003A8979897B690193BB6A00930346F868FA
:1038300000F044FB0346002B52D0012381E07A695B
:10384000B96AF86800F0D2FD0346002B0DD0FB6882
:103850001B6C042B07D1FB681B681A68FB681B688C
:1038600042F400721A6001236BE0FB685B6A1A780D
:10387000FB681B681A61FB685B6A5A1CFB685A622A
:10388000FB681B8D013B9AB2FB681A85FB685B8D58
:103890009BB2013B9AB2FB685A85FB681B685B6967
:1038A00003F00403042B1BD1FB681B8D002B17D0E6
:1038B000FB685B6A1A78FB681B681A61FB685B6AC5
:1038C0005A1CFB685A62FB681B8D013B9AB2FB686D
:1038D0001A85FB685B8D9BB2013B9AB2FB685A85E7
:1038E000FB681B8D002BAAD17A69B96AF86800F0D1
:1038F000C5FD0346002B0DD0FB681B6C042B07D1C4
:10390000FB681B681A68FB681B6842F400721A6047
:10391000012316E0FB681B681A68FB681B6842F409
:1039200000721A60FB68202283F83D20FB680022A9
:1039300083F83E20FB68002283F83C20002300E04F
:10394000022318461837BD4680BD00BF0200100094
:103950000000FFFF80B58CB002AFF860084611464A
:103960001A4603467B810B463B811346FB80FEF7DC
:1039700029FF7862FB6893F83D30DBB2202B40F0E2
:1039800014827B6A0093192301227B49F86800F0B6
:1039900013FC0346002B01D0022307E2FB6893F8D7
:1039A0003C30012B01D1022300E2FB68012283F8A5
:1039B0003C20FB681B681B6803F00103012B07D048
:1039C000FB681B681A68FB681B6842F001021A60FA
:1039D000FB681B681A68FB681B6822F400621A60A7
:1039E000FB68222283F83D20FB68402283F83E20BA
:1039F000FB6800221A64FB683A6B5A62FB68BA8E55
:103A00005A85FB685B8D9AB2FB681A85FB685B4A36
:103A1000DA62F8883A8979897B6A0193BB6B0093F3
:103A20000346F86800F0E0FA0346002B01D00123BA
:103A3000BCE1FB681B8D002B13D100233B62FB68AC
:103A40001B685B693B62FB681B689B693B623B6A66
:103A5000FB681B681A68FB681B6842F400721A60F6
:103A600090E1FB681B8D012B1BD1FB681B681A685A
:103A7000FB681B6822F480621A600023FB61FB680C
:103A80001B685B69FB61FB681B689B69FB61FB69E9
:103A9000FB681B681A68FB681B6842F400721A60B6
:103AA00070E1FB681B8D022B1BD1FB681B681A6839
:103AB000FB681B6822F480621A60FB681B681A6846
:103AC000FB681B6842F400621A600023BB61FB685C
:103AD0001B685B69BB61FB681B689B69BB61BB6959
:103AE00050E100237B61FB681B685B697B61FB68BD
:103AF0001B689B697B617B6944E1FB681B8D032B21
:103B000000F2F180FB681B8D012B23D17A6AB96B1F
:103B1000F86800F0FBFC0346002B01D0012345E1CF
:103B2000FB681B681A69FB685B6AD2B21A70FB6893
:103B30005B6A5A1CFB685A62FB681B8D013B9AB298
:103B4000FB681A85FB685B8D9BB2013B9AB2FB68F0
:103B50005A8517E1FB681B8D022B4ED17B6A0093BF
:103B6000BB6B00220649F86800F026FB0346002BD9
:103B700008D001231AE100BF020010000000FFFF7F
:103B800004000100FB681B681A68FB681B6842F4AC
:103B900000721A60FB681B681A69FB685B6AD2B224
:103BA0001A70FB685B6A5A1CFB685A62FB681B8DC3
:103BB000013B9AB2FB681A85FB685B8D9BB2013BA7
:103BC0009AB2FB685A85FB681B681A69FB685B6AD6
:103BD000D2B21A70FB685B6A5A1CFB685A62FB68B7
:103BE0001B8D013B9AB2FB681A85FB685B8D9BB20B
:103BF000013B9AB2FB685A85C4E07B6A0093BB6BB9
:103C000000226C49F86800F0D7FA0346002B01D077
:103C10000123CBE0FB681B681A68FB681B6822F471
:103C200080621A60FB681B681A69FB685B6AD2B223
:103C30001A70FB685B6A5A1CFB685A62FB681B8D32
:103C4000013B9AB2FB681A85FB685B8D9BB2013B16
:103C50009AB2FB685A857B6A0093BB6B0022554978
:103C6000F86800F0A9FA0346002B01D001239DE07B
:103C7000FB681B681A68FB681B6842F400721A60D4
:103C8000FB681B681A69FB685B6AD2B21A70FB6832
:103C90005B6A5A1CFB685A62FB681B8D013B9AB237
:103CA000FB681A85FB685B8D9BB2013B9AB2FB688F
:103CB0005A85FB681B681A69FB685B6AD2B21A7086
:103CC000FB685B6A5A1CFB685A62FB681B8D013BF0
:103CD0009AB2FB681A85FB685B8D9BB2013B9AB276
:103CE000FB685A854EE07A6AB96BF86800F00EFC02
:103CF0000346002B01D0012358E0FB681B681A69BA
:103D0000FB685B6AD2B21A70FB685B6A5A1CFB687C
:103D10005A62FB681B8D013B9AB2FB681A85FB68EF
:103D20005B8D9BB2013B9AB2FB685A85FB681B68AE
:103D30005B6903F00403042B24D1FB681B8D032B68
:103D400007D1FB681B681A68FB681B6822F4806255
:103D50001A60FB681B681A69FB685B6AD2B21A704A
:103D6000FB685B6A5A1CFB685A62FB681B8D013B4F
:103D70009AB2FB681A85FB685B8D9BB2013B9AB2D5
:103D8000FB685A85FB681B8D002B7FF4B6AEFB6881
:103D9000202283F83D20FB68002283F83E20FB6848
:103DA000002283F83C20002300E002231846283735
:103DB000BD4680BD0400010080B588B002AFF86048
:103DC0007A603B600B467B81FB68DB6A7B617B69C9
:103DD000082B06D07B69012B03D07B6913F5803F4C
:103DE00008D1FB681B681A68FB681B6842F4807284
:103DF0001A600BE0FB681B6B122B07D1FB681B687A
:103E00001A68FB681B6842F480721A603B68009372
:103E10007B6800224FF00111F86800F0CDF90346ED
:103E2000002B0DD0FB681B681B6803F48073B3F58F
:103E3000807F03D1FB684FF400721A64032335E0DE
:103E4000FB681B69B3F5804F08D17B89DBB21A464A
:103E5000FB681B6802F0FE021A611BE07B89DB1124
:103E6000DBB203F00603DBB263F00F03DAB2FB68E8
:103E70001B681A613B687A680E49F86800F016FA08
:103E80000346002B01D0012310E07B89DAB2FB68E6
:103E90001B681A613B687A680749F86800F006FAFF
:103EA0000346002B01D0012300E0002318461837F9
:103EB000BD4680BD080001000200010080B588B049
:103EC00002AFF860084611461A4603467B810B464E
:103ED0003B811346FB80FB681B681A68FB681B6804
:103EE00042F480721A607B6A00933B6A00224FF0B2
:103EF0000111F86800F060F90346002B0DD0FB6853
:103F00001B681B6803F48073B3F5807F03D1FB68E3
:103F10004FF400721A6403235FE07B89DBB21A4618
:103F2000FB681B6802F0FE021A617B6A3A6A2D493F
:103F3000F86800F0BBF90346002B01D001234CE0E8
:103F400000237B61FB681B685B697B61FB681B6806
:103F50009B697B617B697A6A396AF86800F046FA86
:103F60000346002B0DD0FB681B6C042B07D1FB68AC
:103F70001B681A68FB681B6842F400721A60012310
:103F80002BE0FB88012B05D13B89DAB2FB681B686B
:103F90001A6121E03B891B0A9BB2DAB2FB681B68FD
:103FA0001A617A6A396AF86800F020FA0346002B31
:103FB0000DD0FB681B6C042B07D1FB681B681A68CB
:103FC000FB681B6842F400721A60012305E03B891C
:103FD000DAB2FB681B681A61002318461837BD4621
:103FE00080BD00BF0200010080B588B002AFF8605C
:103FF000084611461A4603467B810B463B81134611
:10400000FB80FB681B681A68FB681B6842F48062CF
:104010001A60FB681B681A68FB681B6842F48072B0
:104020001A607B6A00933B6A00224FF00111F86826
:1040300000F0C2F80346002B0DD0FB681B681B681C
:1040400003F48073B3F5807F03D1FB684FF40072F3
:104050001A640323AAE07B89DBB21A46FB681B685B
:1040600002F0FE021A617B6A3A6A5249F86800F06F
:104070001DF90346002B01D0012397E000237B614B
:10408000FB681B685B697B61FB681B689B697B61E4
:104090007B697A6A396AF86800F0A8F90346002B50
:1040A0000DD0FB681B6C042B07D1FB681B681A68DA
:1040B000FB681B6842F400721A60012376E0FB88FB
:1040C000012B05D13B89DAB2FB681B681A6121E03C
:1040D0003B891B0A9BB2DAB2FB681B681A617A6AD9
:1040E000396AF86800F082F90346002B0DD0FB68AE
:1040F0001B6C042B07D1FB681B681A68FB681B68E4
:1041000042F400721A60012350E03B89DAB2FB6886
:104110001B681A617A6A396AF86800F067F9034621
:10412000002B0DD0FB681B6C042B07D1FB681B68B0
:104130001A68FB681B6842F400721A60012335E0BC
:10414000FB681B681A68FB681B6842F480721A607F
:104150007B6A00933B6A00224FF00111F86800F07F
:104160002BF80346002B0DD0FB681B681B6803F47B
:104170008073B3F5807F03D1FB684FF400721A643B
:10418000032313E07B89DBB243F00103DAB2FB685F
:104190001B681A617B6A3A6A0649F86800F086F87B
:1041A0000346002B01D0012300E0002318461837F6
:1041B000BD4680BD0200010080B584B000AFF8604C
:1041C000B9603B601346FB7148E03B68B3F1FF3FC9
:1041D00044D0FEF7F7FA0246BB69D31A3A689A420E
:1041E00002D33B68002B39D1BB681B0CDBB2012B1F
:1041F0000DD1FB681B685B69DA43BB6813409BB257
:10420000002B0CBF01230023DBB21A460CE0FB6835
:104210001B689B69DA43BB6813409BB2002B0CBF41
:1042200001230023DBB21A46FB799A4216D1FB68C0
:1042300000221A63FB68202283F83D20FB680022DD
:1042400083F83E20FB681B6C43F02002FB681A6475
:10425000FB68002283F83C20012323E0BB681B0C91
:10426000DBB2012B0DD1FB681B685B69DA43BB68CD
:1042700013409BB2002B0CBF01230023DBB21A4674
:104280000CE0FB681B689B69DA43BB6813409BB278
:10429000002B0CBF01230023DBB21A46FB799A42A4
:1042A00093D0002318461037BD4680BD80B584B03A
:1042B00000AFF860B9607A603B6071E0FB681B6832
:1042C0005B6903F48063B3F5806F23D1FB681B68DF
:1042D0001A68FB681B6842F400721A60FB681B686E
:1042E0006FF480625A61FB6800221A63FB68202227
:1042F00083F83D20FB68002283F83E20FB681B6C9E
:1043000043F00402FB681A64FB68002283F83C2037
:10431000012367E07B68B3F1FF3F41D0FEF752FA1B
:1043200002463B68D31A7A689A4202D37B68002B14
:1043300036D1BB681B0CDBB2012B0CD1FB681B68B0
:104340005B69DA43BB6813409BB2002B14BF0123A7
:104350000023DBB20BE0FB681B689B69DA43BB6898
:1043600013409BB2002B14BF01230023DBB2002BB0
:1043700016D0FB6800221A63FB68202283F83D20D8
:10438000FB68002283F83E20FB681B6C43F0200290
:10439000FB681A64FB68002283F83C20012321E0BB
:1043A000BB681B0CDBB2012B0CD1FB681B685B6983
:1043B000DA43BB6813409BB2002B14BF01230023D8
:1043C000DBB20BE0FB681B689B69DA43BB681340F8
:1043D0009BB2002B14BF01230023DBB2002B7FF420
:1043E0006DAF002318461037BD4680BD80B584B040
:1043F00000AFF860B9607A6034E0F86800F0E3F884
:104400000346002B01D0012334E0BB68B3F1FF3F2A
:1044100028D0FEF7D7F902467B68D31ABA689A42C9
:1044200002D3BB68002B1DD1FB681B685B6903F0DE
:104430008003802B16D0FB6800221A63FB682022C1
:1044400083F83D20FB68002283F83E20FB681B6C4C
:1044500043F02002FB681A64FB68002283F83C20CA
:10446000012307E0FB681B685B6903F08003802B76
:10447000C3D1002318461037BD4680BD80B584B037
:1044800000AFF860B9607A6034E0F86800F09BF83B
:104490000346002B01D0012334E0BB68B3F1FF3F9A
:1044A00028D0FEF78FF902467B68D31ABA689A4281
:1044B00002D3BB68002B1DD1FB681B685B6903F04E
:1044C0000403042B16D0FB6800221A63FB68202229
:1044D00083F83D20FB68002283F83E20FB681B6CBC
:1044E00043F02002FB681A64FB68002283F83C203A
:1044F000012307E0FB681B685B6903F00403042BDE
:10450000C3D1002318461037BD4680BD80B584B0A6
:1045100000AFF860B9607A6049E0FB681B685B69CE
:1045200003F01003102B19D1FB681B686FF0100209
:104530005A61FB6800221A63FB68202283F83D2041
:10454000FB68002283F83E20FB681A6CFB681A6443
:10455000FB68002283F83C20012330E0FEF732F9AB
:1045600002467B68D31ABA689A4202D3BB68002B12
:104570001DD1FB681B685B6903F04003402B16D01C
:10458000FB6800221A63FB68202283F83D20FB6849
:10459000002283F83E20FB681B6C43F02002FB687E
:1045A0001A64FB68002283F83C20012307E0FB68C3
:1045B0001B685B6903F04003402BAED10023184613
:1045C0001037BD4680BD80B483B000AF78607B6893
:1045D0001B685B6903F48063B3F5806F1BD17B6854
:1045E0001B686FF480625A617B6800221A637B68E3
:1045F000202283F83D207B68002283F83E207B68E0
:104600001B6C43F004027B681A647B68002283F809
:104610003C20012300E0002318460C37BD465DF81E
:10462000047B704780B586B000AF78607B68002B54
:1046300001D1012367E27B681B6803F00103002BB3
:1046400075D0884B9B6803F00C03042B0CD0854B72
:104650009B6803F00C03082B12D1824B5B6803F4B8
:104660008003B3F5800F0BD17E4B1B6803F400333E
:10467000002B5BD07B685B68002B57D1012342E2A3
:104680007B685B68B3F5803F06D1764B1B68754A43
:1046900043F4803313601DE07B685B68B3F5A02FA3
:1046A0000CD1704B1B686F4A43F4802313606D4B31
:1046B0001B686C4A43F4803313600BE0694B1B6842
:1046C000684A23F480331360664B1B68654A23F401
:1046D000802313607B685B68002B13D0FEF772F8B1
:1046E000386108E0FEF76EF802463B69D31A642B86
:1046F00001D9032307E25B4B1B6803F40033002B53
:10470000F0D014E0FEF75EF8386108E0FEF75AF8E2
:1047100002463B69D31A642B01D90323F3E1514BC1
:104720001B6803F40033002BF0D100E000BF7B686E
:104730001B6803F00203002B63D04A4B9B6803F015
:104740000C03002B0BD0474B9B6803F00C03082B8A
:104750001CD1444B5B6803F48003002B16D1414B02
:104760001B6803F00203002B05D07B68DB68012B7C
:1047700001D00123C7E13B4B1B6823F0F8027B68A3
:104780001B69DB00374913430B603AE07B68DB6849
:10479000002B20D0344B01221A60FEF713F8386149
:1047A00008E0FEF70FF802463B69D31A022B01D945
:1047B0000323A8E12B4B1B6803F00203002BF0D06E
:1047C000284B1B6823F0F8027B681B69DB00254936
:1047D00013430B6015E0244B00221A60FDF7F2FF33
:1047E000386108E0FDF7EEFF02463B69D31A022B61
:1047F00001D9032387E11B4B1B6803F00203002B45
:10480000F0D17B681B6803F00803002B36D07B686F
:104810005B69002B16D0154B01221A60FDF7D2FF01
:10482000386108E0FDF7CEFF02463B69D31A022B40
:1048300001D9032367E10B4B5B6F03F00203002BED
:10484000F0D01BE0094B00221A60FDF7BBFF386176
:104850000EE0FDF7B7FF02463B69D31A022B07D9DA
:10486000032350E10038024000004742800E4742D7
:10487000884B5B6F03F00203002BEAD17B681B6857
:1048800003F00403002B00F097800023FB75814B9D
:104890001B6C03F08053002B0FD10023BB607D4BBA
:1048A0001B6C7C4A43F0805313647A4B1B6C03F0FF
:1048B0008053BB60BB680123FB75774B1B6803F417
:1048C0008073002B18D1744B1B68734A43F48073B8
:1048D0001360FDF777FF386108E0FDF773FF0246CC
:1048E0003B69D31A022B01D903230CE16A4B1B68E5
:1048F00003F48073002BF0D07B689B68012B06D1FA
:10490000644B1B6F634A43F0010313671CE07B6831
:104910009B68052B0CD15F4B1B6F5E4A43F0040371
:1049200013675C4B1B6F5B4A43F0010313670BE09B
:10493000584B1B6F574A23F001031367554B1B6FEE
:10494000544A23F0040313677B689B68002B15D03F
:10495000FDF738FF38610AE0FDF734FF02463B6996
:10496000D31A41F28832934201D90323CBE0494B59
:104970001B6F03F00203002BEED014E0FDF722FFC3
:1049800038610AE0FDF71EFF02463B69D31A41F287
:104990008832934201D90323B5E03E4B1B6F03F0ED
:1049A0000203002BEED1FB7D012B05D1394B1B6C93
:1049B000384A23F0805313647B689B69002B00F016
:1049C000A180344B9B6803F00C03082B5CD07B6800
:1049D0009B69022B41D1314B00221A60FDF7F2FE98
:1049E000386108E0FDF7EEFE02463B69D31A022B60
:1049F00001D9032387E0274B1B6803F00073002BCA
:104A0000F0D17B68DA697B681B6A1A437B685B6A52
:104A10009B011A437B689B6A5B08013B1B041A439A
:104A20007B68DB6A1B061B4913434B601B4B01224F
:104A30001A60FDF7C7FE386108E0FDF7C3FE0246C5
:104A40003B69D31A022B01D903235CE0114B1B688D
:104A500003F00073002BF0D054E0104B00221A60DA
:104A6000FDF7B0FE386108E0FDF7ACFE02463B6999
:104A7000D31A022B01D9032345E0064B1B6803F030
:104A80000073002BF0D13DE07B689B69012B07D1BF
:104A9000012338E0003802400070004060004742C7
:104AA0001B4B5B68FB607B689B69012B28D0FB6814
:104AB00003F480027B68DB699A4221D1FB6803F032
:104AC0003F027B681B6A9A421AD1FA6847F6C073A4
:104AD00013407A68526A9201934211D1FB6803F441
:104AE00040327B689B6A5B08013B1B049A4207D1FA
:104AF000FB6803F070627B68DB6A1B069A4201D098
:104B0000012300E0002318461837BD4680BD00BFD2
:104B10000038024080B584B000AF786039607B68AF
:104B2000002B01D10123CCE0684B1B6803F0070385
:104B30003A689A420CD9654B3A68D2B21A70634B04
:104B40001B6803F007033A689A4201D00123B8E0DA
:104B50007B681B6803F00203002B20D07B681B6876
:104B600003F00403002B05D0594B9B68584A43F4CB
:104B7000E05393607B681B6803F00803002B05D0AB
:104B8000534B9B68524A43F460439360504B9B687D
:104B900023F0F0027B689B684D4913438B607B6870
:104BA0001B6803F00103002B44D07B685B68012B7A
:104BB00007D1474B1B6803F40033002B19D10123A5
:104BC0007FE07B685B68022B03D07B685B68032B0C
:104BD00007D13F4B1B6803F00073002B09D1012361
:104BE0006FE03B4B1B6803F00203002B01D1012354
:104BF00067E0374B9B6823F003027B685B683449AE
:104C000013438B60FDF7DEFDF8600AE0FDF7DAFD87
:104C10000246FB68D31A41F28832934201D903233A
:104C20004FE02B4B9B6803F00C027B685B689B009A
:104C30009A42EBD1254B1B6803F007033A689A426E
:104C40000CD2224B3A68D2B21A70204B1B6803F088
:104C500007033A689A4201D0012332E07B681B685F
:104C600003F00403002B08D0194B9B6823F4E05297
:104C70007B68DB68164913438B607B681B6803F015
:104C80000803002B09D0124B9B6823F460427B6819
:104C90001B69DB000E4913438B6000F021F80246CC
:104CA0000B4B9B681B0903F00F030A49CB5C22FAEC
:104CB00003F3094A1360094B1B681846FDF73EFDD4
:104CC000002318461037BD4680BD00BF003C02409F
:104CD00000380240688600081400002018000020F8
:104CE0002DE9B04F94B000AF00237B640023FB6438
:104CF00000233B640023BB64794B9B6803F00C03E7
:104D0000082B0DD0082B00F2E180002B02D0042BE1
:104D100003D0DBE0734BBB64DBE0734BBB64D8E0D8
:104D20006F4B5B6803F03F037B646D4B5B6803F480
:104D30008003002B63D06A4B5B689B090022BB6336
:104D4000FA63BB6BC3F308033B6300237B63D7E9C0
:104D50000C4522462B464FF000004FF00001590150
:104D600041EAD261500102460B462146511A39618F
:104D7000294663EB01037B614FF000024FF0000313
:104D8000D7E904AB59468B01514643EA916351463A
:104D90008A015146B2EB0108594663EB01094FF015
:104DA00000024FF000034FEAC90343EA58734FEA89
:104DB000C80290469946234618EB0303BB602B4676
:104DC00049EB0303FB604FF000024FF00003D7E90B
:104DD000024529464B02214643EAD15321464A0265
:104DE000104619467B6C0022BB62FA62D7E90A239F
:104DF000FBF72AFF02460B461346FB6458E0384B8C
:104E00005B689B09002218461146C0F308033B6209
:104E100000237B62D7E9088942464B464FF00000E9
:104E20004FF00001590141EAD261500102460B46A0
:104E30004146B2EB010A494663EB010B4FF0000219
:104E40004FF000034FEA8B1343EA9A634FEA8A124A
:104E5000B2EB0A0463EB0B054FF000024FF00003C6
:104E6000EB0043EA5473E20014461D464346E31840
:104E70003B604B4645EB03037B604FF000024FF075
:104E80000003D7E9004529468B02214643EA9153A6
:104E900021468A02104619467B6C0022BB61FA61EA
:104EA000D7E90623FBF7D0FE02460B461346FB6408
:104EB0000B4B5B681B0C03F0030301335B003B648B
:104EC000FA6C3B6CB2FBF3F3BB6402E0054BBB64D2
:104ED00000BFBB6C18465037BD46BDE8B08F00BF61
:104EE000003802400024F40000127A0080B400AFC1
:104EF000034B1B681846BD465DF8047B704700BF36
:104F00001400002080B500AFFFF7F0FF0246054B0C
:104F10009B689B0A03F007030349CB5C22FA03F367
:104F2000184680BD003802407886000880B582B0FF
:104F300000AF78607B68002B01D1012341E07B68E2
:104F400093F83D30DBB2002B06D17B68002283F85A
:104F50003C207868FDF75EFA7B68022283F83D20EA
:104F60007B681A687B6804331946104600F0E6FA3D
:104F70007B68012283F846207B68012283F83E206B
:104F80007B68012283F83F207B68012283F8402060
:104F90007B68012283F841207B68012283F842204C
:104FA0007B68012283F843207B68012283F8442038
:104FB0007B68012283F845207B68012283F83D202D
:104FC000002318460837BD4680BD000080B485B078
:104FD00000AF78607B6893F83D30DBB2012B01D0E5
:104FE000012346E07B68022283F83D207B681B6832
:104FF000234A934222D07B681B68B3F1804F1DD0B7
:105000007B681B681F4A934218D07B681B681E4A46
:10501000934213D07B681B681C4A93420ED07B6876
:105020001B681B4A934209D07B681B68194A93424C
:1050300004D07B681B68184A934211D17B681B68B7
:105040009B6803F00703FB60FB68062B10D07B68AE
:105050001B681A687B681B6842F001021A6007E04F
:105060007B681B681A687B681B6842F001021A6043
:10507000002318461437BD465DF8047B704700BF17
:10508000000001400004004000080040000C004007
:1050900000040140004001400018004080B485B089
:1050A00000AF78607B6893F83D30DBB2012B01D014
:1050B00001234EE07B68022283F83D207B681B6859
:1050C000DA687B681B6842F00102DA607B681B6863
:1050D000234A934222D07B681B68B3F1804F1DD0D6
:1050E0007B681B681F4A934218D07B681B681E4A66
:1050F000934213D07B681B681C4A93420ED07B6896
:105100001B681B4A934209D07B681B68194A93426B
:1051100004D07B681B68184A934211D17B681B68D6
:105120009B6803F00703FB60FB68062B10D07B68CD
:105130001B681A687B681B6842F001021A6007E06E
:105140007B681B681A687B681B6842F001021A6062
:10515000002318461437BD465DF8047B704700BF36
:10516000000001400004004000080040000C004026
:1051700000040140004001400018004080B584B0A8
:1051800000AF78607B681B68DB68FB607B681B682E
:105190001B69BB60BB6803F00203002B20D0FB68D7
:1051A00003F00203002B1BD07B681B686FF0020228
:1051B0001A617B6801221A777B681B689B6903F080
:1051C0000303002B03D0786800F099F905E07868B4
:1051D00000F08BF9786800F09CF97B6800221A7760
:1051E000BB6803F00403002B20D0FB6803F004032A
:1051F000002B1BD07B681B686FF004021A617B6870
:1052000002221A777B681B689B6903F44073002BAA
:1052100003D0786800F073F905E0786800F065F96C
:10522000786800F076F97B6800221A77BB6803F093
:105230000803002B20D0FB6803F00803002B1BD0D1
:105240007B681B686FF008021A617B6804221A777A
:105250007B681B68DB6903F00303002B03D07868CD
:1052600000F04DF905E0786800F03FF9786800F04B
:1052700050F97B6800221A77BB6803F01003002BFB
:1052800020D0FB6803F01003002B1BD07B681B6849
:105290006FF010021A617B6808221A777B681B681E
:1052A000DB6903F44073002B03D0786800F027F922
:1052B00005E0786800F019F9786800F02AF97B6851
:1052C00000221A77BB6803F00103002B0CD0FB68A7
:1052D00003F00103002B07D07B681B686FF001020D
:1052E0001A617868FCF778FFBB6803F08003002B35
:1052F0000CD0FB6803F08003002B07D07B681B6891
:105300006FF080021A61786800F0E4FABB6803F07D
:105310004003002B0CD0FB6803F04003002B07D0A8
:105320007B681B686FF040021A61786800F0FBF838
:10533000BB6803F02003002B0CD0FB6803F02003B4
:10534000002B07D07B681B686FF020021A61786819
:1053500000F0B6FA00BF1037BD4680BD80B584B0FE
:1053600000AF786039600023FB737B6893F83C30B2
:10537000012B01D10223B4E07B68012283F83C2099
:105380007B68022283F83D207B681B689B68BB60BA
:10539000BB6823F07703BB60BB6823F47F43BB602B
:1053A0007B681B68BA689A603B681B68B3F5005F4E
:1053B0003ED0B3F5005F00F28780B3F5805F00F068
:1053C0008680B3F5805F7FD8702B1AD0702B7BD886
:1053D000602B50D0602B77D8502B3CD0502B73D8FB
:1053E000402B58D0402B6FD8302B64D0302B6BD84B
:1053F000202B60D0202B67D8002B5CD0102B5AD0EC
:1054000062E07B6818683B6899683B685A683B684B
:10541000DB6800F0B9F97B681B689B68BB60BB6800
:1054200043F07703BB607B681B68BA689A604FE003
:105430007B6818683B6899683B685A683B68DB681A
:1054400000F0A2F97B681B689A687B681B6842F4CD
:1054500080429A603CE07B6818683B6859683B680A
:10546000DB681A4600F016F97B681B685021184665
:1054700000F06FF92CE07B6818683B6859683B685E
:10548000DB681A4600F035F97B681B686021184616
:1054900000F05FF91CE07B6818683B6859683B685E
:1054A000DB681A4600F0F6F87B681B684021184656
:1054B00000F04FF90CE07B681A683B681B681946DE
:1054C000104600F046F903E00123FB7300E000BF43
:1054D0007B68012283F83D207B68002283F83C2012
:1054E000FB7B18461037BD4680BD80B483B000AF4B
:1054F000786000BF0C37BD465DF8047B704780B410
:1055000083B000AF786000BF0C37BD465DF8047B08
:10551000704780B483B000AF786000BF0C37BD46E1
:105520005DF8047B704780B483B000AF786000BF43
:105530000C37BD465DF8047B7047000080B485B031
:1055400000AF786039607B681B68FB607B68464A07
:10555000934213D07B68B3F1804F0FD07B68434AEE
:1055600093420BD07B68424A934207D07B68414A02
:10557000934203D07B68404A934208D1FB6823F0F2
:105580007003FB603B685B68FA681343FB607B68F1
:10559000354A93422BD07B68B3F1804F27D07B688C
:1055A000324A934223D07B68314A93421FD07B68B2
:1055B000304A93421BD07B682F4A934217D07B68B6
:1055C0002E4A934213D07B682D4A93420FD07B68BA
:1055D0002C4A93420BD07B682B4A934207D07B68BE
:1055E0002A4A934203D07B68294A934208D1FB6838
:1055F00023F44073FB603B68DB68FA681343FB608D
:10560000FB6823F080023B685B691343FB607B68A7
:10561000FA681A603B689A687B68DA623B681A68C5
:105620007B689A627B68104A934203D07B68124A77
:10563000934203D13B681A697B681A637B68012235
:105640005A617B681B6903F00103012B05D17B685C
:105650001B6923F001027B681A6100BF1437BD4645
:105660005DF8047B704700BF00000140000400406B
:1056700000080040000C00400004014000400140D0
:10568000004401400048014000180040001C004058
:105690000020004080B487B000AFF860B9607A6045
:1056A000FB681B6A7B61FB681B6A23F00102FB68D5
:1056B0001A62FB689B693B613B6923F0F0033B6125
:1056C0007B681B013A6913433B617B6923F00A0342
:1056D0007B617A69BB6813437B61FB683A699A61B5
:1056E000FB687A691A6200BF1C37BD465DF8047B0F
:1056F000704780B487B000AFF860B9607A60FB682B
:105700001B6A7B61FB681B6A23F01002FB681A624C
:10571000FB689B693B613B6923F470433B617B6899
:105720001B033A6913433B617B6923F0A0037B6150
:10573000BB681B017A6913437B61FB683A699A6114
:10574000FB687A691A6200BF1C37BD465DF8047BAE
:10575000704780B485B000AF786039607B689B6823
:10576000FB60FB6823F07003FB603A68FB6813433F
:1057700043F00703FB607B68FA689A6000BF143748
:10578000BD465DF8047B704780B487B000AFF86019
:10579000B9607A603B60FB689B687B617B6923F43E
:1057A0007F437B613B681A027B681A43BB681343E3
:1057B0007A6913437B61FB687A699A6000BF1C3782
:1057C000BD465DF8047B704780B485B000AF78605B
:1057D00039607B6893F83C30012B01D102235AE0F9
:1057E0007B68012283F83C207B68022283F83D20FD
:1057F0007B681B685B68FB607B681B689B68BB60A1
:10580000FB6823F07003FB603B681B68FA68134376
:10581000FB607B681B68FA685A607B681B68214ADA
:10582000934222D07B681B68B3F1804F1DD07B6808
:105830001B681D4A934218D07B681B681B4A934221
:1058400013D07B681B681A4A93420ED07B681B6892
:10585000184A934209D07B681B68174A934204D0C8
:105860007B681B68154A93420CD1BB6823F0800308
:10587000BB603B685B68BA681343BB607B681B68AE
:10588000BA689A607B68012283F83D207B68002219
:1058900083F83C20002318461437BD465DF8047B8E
:1058A000704700BF000001400004004000080040B5
:1058B000000C00400004014000400140001800407E
:1058C00080B483B000AF786000BF0C37BD465DF890
:1058D000047B704780B483B000AF786000BF0C37A2
:1058E000BD465DF8047B70472DE9FF4755EC104B32
:1058F000002D0E4619462B46BBBF05F100431D4641
:1059000000232D230B700D9BDDF830A0914623F072
:105910002008BCBF22461446B8F1460F05D0B8F1A6
:10592000450F00D10136022100E0032103AB0193B2
:1059300002AB009345EC104B5346324600F068FE34
:10594000B8F1470F074602D119F0010F22D0B8F184
:10595000460F07EB060910D13B78302B0AD1002205
:10596000002320462946FBF7AFF818B9C6F1010617
:10597000CAF80060DAF8003099440022002320467B
:105980002946FBF7A1F808B1CDF80C903022039B13
:105990004B4507D3039B0E9ADB1B3846136004B0BC
:1059A000BDE8F087591C03911A70F0E7F7B503467C
:1059B0000029B8BF494203F8022BB4BF2D222B2285
:1059C000092942702ADD0DF1070217460A2694467E
:1059D00091FBF6F506FB151430340CF8014C0C461F
:1059E000632C02F1FF322946F1DC3031ACF10204C4
:1059F00002F8011C411C2246BA420AD30DF10902E9
:105A0000A2EB0C02BC4288BF00221344181A03B058
:105A1000F0BD12F8015B01F8015FEDE73023303192
:105A20008370C170031DF1E72DE9F04F2DED028B5E
:105A30008DB00C46DDF8608016461F46054600F026
:105A4000E7FCD0F800A05046FAF712FC00230A93B6
:105A500023680593D8F8003094F818B0073323F082
:105A6000070303F10802C8F80020D3E9008929F0F0
:105A700000430793CDF8188008EE100AC4E9128994
:105A8000DDE906019E4B4FF0FF32FBF74FF888BB74
:105A9000DDE906019A4B4FF0FF32FBF729F848BBCE
:105AA0000022002340464946FBF718F810B12D2389
:105AB00084F84330934A944BBBF1470F94BF904610
:105AC000984603232361059B23F0040323604FF0D2
:105AD0000009009733460BAA2146284600F0DAF960
