:020000040800F2
:1000000000000220A51A00088D18000893180008A7
:10001000991800089F180008A518000800000000A3
:10002000000000000000000000000000AB18000805
:10003000B918000800000000C7180008D51800080B
:10004000F51A0008F51A0008F51A0008F51A000854
:10005000F51A0008F51A0008F51A0008F51A000844
:10006000F51A0008F51A0008F51A0008F51A000834
:10007000F51A0008F51A0008F51A0008F51A000824
:10008000F51A0008F51A0008F51A0008F51A000814
:10009000F51A0008F51A0008F51A0008F51A000804
:1000A000F51A0008F51A0008F51A0008F51A0008F4
:1000B000E1180008F51A0008F51A0008F51A0008FA
:1000C000F51A0008F51A0008F51A0008F51A0008D4
:1000D000F51A0008F51A0008F51A0008F51A0008C4
:1000E000F51A0008F51A0008F51A0008F51A0008B4
:1000F000F51A0008F51A0008F51A0008F51A0008A4
:10010000F51A0008F51A0008F51A0008F51A000893
:10011000F51A0008F51A0008F51A0008F51A000883
:10012000F51A0008F51A0008F51A0008F51A000873
:10013000F51A0008F51A0008F51A0008F51A000863
:10014000F51A0008F51A0008F51A0008F51A000853
:10015000F51A0008F51A0008F51A0008F51A000843
:10016000F51A0008F51A0008F51A0008F51A000833
:10017000F51A0008F51A0008F51A0008000000003A
:08018000F51A0008F51A000849
:1001900010B5054C237833B9044B13B10448AFF3C1
:1001A00000800123237010BDD40100200000000056
:1001B000006B000808B5034B1BB103490348AFF3BC
:1001C000008008BD00000000D8010020006B00087E
:1001D00001F0FF01102A2BDB10F0070F08D010F8F8
:1001E000013B013A8B422DD010F0070F42B3F6D1FC
:1001F000F0B441EA012141EA014122F007047FF015
:1002000000070023F0E80256083C85EA010586EA6B
:10021000010685FA47F5A3FA87F586FA47F6A5FAA7
:1002200087F68EB9EED1F0BC01F0FF0102F00702B3
:1002300032B110F8013B013A83EA010313B1F8D15E
:100240000020704701387047002D06BF354603383F
:10025000073815F0010F07D1013015F4807F02BF78
:10026000013015F4C03F0130F0BC0138704700BFC9
:10027000034613F8012B002AFBD1181A01387047E6
:1002800081F0004102E000BF83F0004330B54FEA47
:1002900041044FEA430594EA050F08BF90EA020FB4
:1002A0001FBF54EA000C55EA020C7FEA645C7FEA47
:1002B000655C00F0E2804FEA5454D4EB5555B8BF6A
:1002C0006D420CDD2C4480EA020281EA030382EADB
:1002D000000083EA010180EA020281EA0303362D6D
:1002E00088BF30BD11F0004F4FEA01314FF4801C40
:1002F0004CEA113102D0404261EB410113F0004F52
:100300004FEA03334CEA133302D0524263EB430308
:1003100094EA050F00F0A780A4F10104D5F1200EA6
:100320000DDB02FA0EFC22FA05F2801841F1000101
:1003300003FA0EF2801843FA05F359410EE0A5F1D5
:1003400020050EF1200E012A03FA0EFC28BF4CF006
:10035000020C43FA05F3C01851EBE37101F00045BC
:1003600007D54FF0000EDCF1000C7EEB00006EEBC9
:100370000101B1F5801F1BD3B1F5001F0CD3490853
:100380005FEA30004FEA3C0C04F101044FEA4452AA
:1003900012F5800F80F09A80BCF1004F08BF5FEA31
:1003A000500C50F1000041EB045141EA050130BD11
:1003B0005FEA4C0C404141EB0101013C28BFB1F523
:1003C000801FE9D291F0000F04BF01460020B1FA6E
:1003D00081F308BF2033A3F10B03B3F120020CDA41
:1003E0000C3208DD02F1140CC2F10C0201FA0CF01F
:1003F00021FA02F10CE002F11402D8BFC2F1200C84
:1004000001FA02F120FA0CFCDCBF41EA0C01904039
:10041000E41AA2BF01EB0451294330BD6FEA040482
:100420001F3C1CDA0C340EDC04F11404C4F120026D
:1004300020FA04F001FA02F340EA030021FA04F37F
:1004400045EA030130BDC4F10C04C4F1200220FAD6
:1004500002F001FA04F340EA0300294630BD21FA14
:1004600004F0294630BD94F0000F83F4801306BFDA
:1004700081F480110134013D4EE77FEA645C18BFCE
:100480007FEA655C29D094EA050F08BF90EA020F65
:1004900005D054EA000C04BF1946104630BD91EA5D
:1004A000030F1EBF0021002030BD5FEA545C05D160
:1004B0004000494128BF41F0004130BD14F580049F
:1004C0003CBF01F5801130BD01F0004545F0FE4113
:1004D00041F470014FF0000030BD7FEA645C1ABF48
:1004E000194610467FEA655C1CBF0B46024650EA7F
:1004F000013406BF52EA033591EA030F41F40021AB
:1005000030BD00BF90F0000F04BF0021704730B530
:100510004FF4806404F132044FF000054FF0000105
:1005200050E700BF90F0000F04BF0021704730B5C6
:100530004FF4806404F1320410F0004548BF40429B
:100540004FF000013EE700BF42004FEAE2014FEAF0
:1005500031014FEA02701FBF12F07F4393F07F4FCB
:1005600081F06051704732F07F4208BF704793F0CE
:100570007F4F04BF41F40021704730B54FF46074E1
:1005800001F0004521F000411CE700BF50EA0102E4
:1005900008BF704730B54FF000050AE050EA01028D
:1005A00008BF704730B511F0004502D5404261EBFD
:1005B00041014FF4806404F132045FEA915C3FF43E
:1005C000D8AE4FF003025FEADC0C18BF03325FEADB
:1005D000DC0C18BF033202EBDC02C2F1200300FA8C
:1005E00003FC20FA02F001FA03FE40EA0E0021FAB1
:1005F00002F11444BDE600BF70B54FF0FF0C4CF49F
:10060000E06C1CEA11541DBF1CEA135594EA0C0F50
:1006100095EA0C0F00F0DEF82C4481EA030621EA8B
:100620004C5123EA4C5350EA013518BF52EA0335C6
:1006300041F4801143F4801338D0A0FB02CE4FF078
:100640000005E1FB02E506F00042E0FB03E54FF0A8
:100650000006E1FB03569CF0000F18BF4EF0010EA0
:10066000A4F1FF04B6F5007F64F5407404D25FEA9C
:100670004E0E6D4146EB060642EAC62141EA55514F
:100680004FEAC52040EA5E504FEACE2EB4F1FD0C91
:1006900088BFBCF5E06F1ED8BEF1004F08BF5FEA0F
:1006A000500E50F1000041EB045170BD06F00046C1
:1006B00046EA010140EA020081EA0301B4EB5C046E
:1006C000C2BFD4EB0C0541EA045170BD41F4801166
:1006D0004FF0000E013C00F3AB8014F1360FDEBF8B
:1006E000002001F0004170BDC4F10004203C35DA67
:1006F0000C341BDC04F11404C4F1200500FA05F3EA
:1007000020FA04F001FA05F240EA020001F000428A
:1007100021F0004110EBD37021FA04F642EB060100
:100720005EEA430E08BF20EAD37070BDC4F10C042A
:10073000C4F1200500FA04F320FA05F001FA04F2EE
:1007400040EA020001F0004110EBD37041F10001DA
:100750005EEA430E08BF20EAD37070BDC4F12005E5
:1007600000FA05F24EEA020E20FA04F301FA05F24D
:1007700043EA020321FA04F001F0004121FA04F2F5
:1007800020EA020000EBD3705EEA430E08BF20EAC5
:10079000D37070BD94F0000F0FD101F000464000FF
:1007A00041EB010111F4801F08BF013CF7D041EA81
:1007B000060195F0000F18BF704703F00046520085
:1007C00043EB030313F4801F08BF013DF7D043EA56
:1007D0000603704794EA0C0F0CEA135518BF95EA0C
:1007E0000C0F0CD050EA410618BF52EA4306D1D193
:1007F00081EA030101F000414FF0000070BD50EAB2
:10080000410606BF1046194652EA430619D094EA3B
:100810000C0F02D150EA013613D195EA0C0F05D125
:1008200052EA03361CBF104619460AD181EA030179
:1008300001F0004141F0FE4141F470014FF0000031
:1008400070BD41F0FE4141F4780170BD70B54FF0CC
:10085000FF0C4CF4E06C1CEA11541DBF1CEA13554C
:1008600094EA0C0F95EA0C0F00F0A7F8A4EB05042E
:1008700081EA030E52EA03354FEA013100F0888025
:100880004FEA03334FF0805545EA131343EA1263EE
:100890004FEA022245EA111545EA10654FEA0026A3
:1008A0000EF000419D4208BF964244F1FD0404F55C
:1008B000407402D25B084FEA3202B61A65EB0305B8
:1008C0005B084FEA32024FF480104FF4002CB6EB75
:1008D000020E75EB030E22BFB61A754640EA0C00F5
:1008E0005B084FEA3202B6EB020E75EB030E22BF35
:1008F000B61A754640EA5C005B084FEA3202B6EB76
:10090000020E75EB030E22BFB61A754640EA9C0034
:100910005B084FEA3202B6EB020E75EB030E22BF04
:10092000B61A754640EADC0055EA060E18D04FEAC2
:10093000051545EA16754FEA06164FEAC30343EA62
:1009400052734FEAC2025FEA1C1CC0D111F4801F2F
:100950000BD141EA00014FF000004FF0004CB6E728
:1009600011F4801F04BF01430020B4F1FD0C88BFC7
:10097000BCF5E06F3FF6AFAEB5EB030C04BFB6EBD2
:10098000020C5FEA500C50F1000041EB045170BDC5
:100990000EF0004E4EEA113114EB5C04C2BFD4EBF2
:1009A0000C0541EA045170BD41F480114FF0000E76
:1009B000013C90E645EA060E8DE60CEA135594EAF2
:1009C0000C0F08BF95EA0C0F3FF43BAF94EA0C0FF5
:1009D0000AD150EA01347FF434AF95EA0C0F7FF46A
:1009E00025AF104619462CE795EA0C0F06D152EABE
:1009F00003353FF4FDAE1046194622E750EA4106A2
:100A000018BF52EA43067FF4C5AE50EA41047FF4B2
:100A10000DAF52EA43057FF4EBAE12E74FF0FF3C17
:100A200006E000BF4FF0010C02E000BF4FF0010CE8
:100A30004DF804CD4FEA410C7FEA6C5C4FEA430C61
:100A400018BF7FEA6C5C1BD001B050EA410C0CBFB0
:100A500052EA430C91EA030F02BF90EA020F002012
:100A6000704710F1000F91EA030F58BF994208BF79
:100A700090422CBFD8176FEAE37040F00100704736
:100A80004FEA410C7FEA6C5C02D150EA013C07D18D
:100A90004FEA430C7FEA6C5CD6D152EA033CD3D0D8
:100AA0005DF8040B704700BF8446104662468C46D2
:100AB0001946634600E000BF01B5FFF7B7FF002805
:100AC00048BF10F1000F01BD4DF808EDFFF7F4FF2E
:100AD0000CBF012000205DF808FB00BF4DF808EDB9
:100AE000FFF7EAFF34BF012000205DF808FB00BFDC
:100AF0004DF808EDFFF7E0FF94BF012000205DF8FE
:100B000008FB00BF4DF808EDFFF7CEFF94BF0120B2
:100B100000205DF808FB00BF4DF808EDFFF7C4FFAB
:100B200034BF012000205DF808FB00BF4FEA410CF4
:100B30007FEA6C5C02D150EA013C0AD14FEA430CD7
:100B40007FEA6C5C02D152EA033C02D14FF0000014
:100B500070474FF0010070474FEA410212F5001252
:100B600015D211D56FF47873B3EB625212D94FEAF4
:100B7000C12343F0004343EA505311F0004F23FADE
:100B800002F018BF404270474FF00000704750EA33
:100B9000013005D111F0004008BF6FF000407047F0
:100BA0004FF00000704700BF4FEA4102B2F1E0434E
:100BB00024BFB3F5001CDCF1FE5C0DD901F0004C44
:100BC0004FEAC0024CEA5070B2F1004F40EB830094
:100BD00008BF20F00100704711F0804F21D113F1C0
:100BE0003872BCBF01F00040704741F480114FEAF9
:100BF0005252C2F11802C2F1200C10FA0CF320FA82
:100C000002F018BF40F001004FEAC1234FEAD3239E
:100C100003FA0CFC40EA0C0023FA02F34FEA430308
:100C2000CCE77FEA625307D150EA01331EBF4FF091
:100C3000FE4040F44000704701F0004040F0FE40AC
:100C400040F40000704700BF53B94AB9002908BFFB
:100C500000281CBF4FF0FF314FF0FF3000F070B99B
:100C6000ADF1080C6DE904CE00F006F8DDF804E003
:100C7000DDE9022304B070472DE9F047089E0D46D8
:100C800004460F46002B4AD18A42944665D9B2FAEF
:100C900082F343B102FA03FCC3F120029F4020FA21
:100CA00002F217439C404FEA1C4E1FFA8CF5B7FB2B
:100CB000FEF1220C0EFB117742EA074201FB05F020
:100CC00090420AD91CEB020201F1FF3780F01C812F
:100CD000904240F2198102396244121AA4B2B2FB66
:100CE000FEF00EFB102244EA024400FB05F5A5428B
:100CF0000AD91CEB040400F1FF3280F00781A54201
:100D000040F204816444023840EA0140641B00213F
:100D10001EB1DC400023C6E90043BDE8F0878B42EA
:100D200008D9002E00F0ED800021C6E90005084634
:100D3000BDE8F087B3FA83F1002949D1AB4202D371
:100D4000824200F2F880841A65EB03020120174604
:100D5000002EE2D0C6E90047DFE702B9FFDEB2FAB3
:100D600082F3002B40F090808A1A4FEA1C471FFA4A
:100D70008CFE0121B2FBF7F507FB1520220C42EA9D
:100D800000420EFB05F0904208D91CEB020205F16F
:100D9000FF3802D2904200F2CB804546121AA4B22C
:100DA000B2FBF7F007FB102244EA02440EFB00FE00
:100DB000A64508D91CEB040400F1FF3202D2A64577
:100DC00000F2BB801046A4EB0E0440EA05409FE70A
:100DD000C1F120078B4022FA07FC4CEA030C05FA0C
:100DE00001F420FA07F3FD404FEA1C492343B5FB09
:100DF000F9F81FFA8CFE09FB18551C0C44EA05444F
:100E000008FB0EF5A54202FA01F200FA01F00BD937
:100E10001CEB040408F1FF3A80F08880A54240F200
:100E20008580A8F102086444641B9DB2B4FBF9F309
:100E300009FB134445EA044403FB0EFEA64508D90A
:100E40001CEB040403F1FF356CD2A6456AD9023BC2
:100E5000644443EA0843A3FB0295A4EB0E04AC42AE
:100E6000C846AE4656D353D056B1B0EB080264EB39
:100E70000E0404FA07F7CA40CC401743C6E90074D1
:100E800018460021BDE8F087C3F1200102FA03FCF7
:100E900020FA01F225FA01F19D402A434FEA1C474E
:100EA0001FFA8CFEB1FBF7F007FB1015110C41EA9D
:100EB000054100FB0EF58D4204FA03F408D91CEB42
:100EC000010100F1FF382FD28D422DD90238614443
:100ED000491B92B2B1FBF7F507FB151142EA01423B
:100EE00005FB0EF1914208D91CEB020205F1FF3817
:100EF00016D2914214D9023D6244521A45EA004189
:100F000038E73146304608E73946E6E61046FBE664
:100F10004845A9D2B9EB020865EB0C0E013BA3E7EB
:100F20004546EAE72B4694E74046D1E7D0467BE7C3
:100F3000023D624432E708460AE76444023842E769
:100F4000704700BF80B586B002AF0346FB71FB79E6
:100F500023F00F03FB73FB791B01BB73FB7B43F097
:100F60000C03DBB23B72FB7B43F00803DBB27B720A
:100F7000BB7B43F00C03DBB2BB72BB7B43F00803CB
:100F8000DBB2FB7207F108026423009304234E21B5
:100F9000034801F06BFA00BF1037BD4680BD00BFAB
:100FA000F001002080B586B002AF0346FB71FB79EB
:100FB00023F00F03FB73FB791B01BB73FB7B43F037
:100FC0000D03DBB23B72FB7B43F00903DBB27B72A8
:100FD000BB7B43F00D03DBB2BB72BB7B43F0090369
:100FE000DBB2FB7207F108026423009304234E2155
:100FF000034801F03BFA00BF1037BD4680BD00BF7B
:10100000F001002080B500AF0120FFF79BFF00BF7B
:1010100080BD80B582B000AF786039607B68002BFE
:1010200003D07B68012B05D009E03B6843F08003C7
:101030003B6004E03B6843F0C0033B6000BF3B689B
:10104000DBB21846FFF77EFF00BF0837BD4680BD04
:1010500080B500AF322000F0C1FD3020FFF772FFF5
:10106000052000F0BBFD3020FFF76CFF012000F0F1
:10107000B5FD3020FFF766FF0A2000F0AFFD20200D
:10108000FFF760FF0A2000F0A9FD2820FFF75AFFB4
:10109000012000F0A3FD0820FFF754FF012000F01D
:1010A0009DFD0120FFF74EFF022000F097FD062076
:1010B000FFF748FF012000F091FD0C20FFF742FFF1
:1010C00000BF80BD80B582B000AF786006E07B686D
:1010D0005A1C7A601B781846FFF764FF7B681B7800
:1010E000002BF4D100BF00BF0837BD4680BD000013
:1010F00080B58AB000AF87ED010A00210020FFF71C
:1011000088FF0B48FFF7DEFF7868FFF71DFA0246FD
:101110000B4607F10800074903F096FB07F10803A7
:101120001846FFF7CFFF00BF2837BD4680BD00BF80
:10113000186B0008206B000880B58AB000AF87EDFF
:10114000010A00210120FFF764FF0B48FFF7BAFFF7
:101150007868FFF7F9F902460B4607F108000749DE
:1011600003F072FB07F108031846FFF7ABFF00BF5F
:101170002837BD4680BD00BF286B0008206B0008E3
:1011800080B483B000AF0346FB80094B1B6800228C
:101190005A6200BF064B1B685A6AFB889A42F9D311
:1011A00000BF00BF0C37BD465DF8047B704700BF31
:1011B0004402002080B586B000AF0023FB753B469B
:1011C00000221A605A609A60DA601A6104233B6058
:1011D00001237B600023FB600023BB603B46194674
:1011E0002A4800F031FE00220421284800F0E0FFE8
:1011F000142000F0F3FC01220421244800F0D8FF61
:101200001E20FFF7BDFF00237B600123BB603B4630
:1012100019461E4800F018FE2820FFF7B1FF0421F0
:101220001A4800F0ADFF0346002B0BD15020FFF70A
:10123000A7FF0421154800F0A3FF0346002B01D0AF
:101240000123FB7500F0BEFC0346114A136000F059
:10125000B9FC03460F4A136004E000F0B3FC0346F8
:101260000C4A13600421094800F08AFF0346002B52
:1012700006D0074B1B689A1C064B1B689A42ECD899
:10128000FB7D18461837BD4680BD00BF00000240F8
:10129000A0020020A402002080B582B000AF00238D
:1012A000FB7163E000F08EFC0346344A136000F0EB
:1012B00089FC0346324A136004E000F083FC0346D5
:1012C0002F4A136004212F4800F05AFF0346002BD9
:1012D00006D12A4B1B689A1C294B1B689A42ECD8F2
:1012E0002820FFF74DFF0421264800F049FF034660
:1012F000002B0ED1FB79C3F10703012202FA03F39D
:101300005BB2DB435AB297F9063013405BB2BB7154
:101310000BE0FB79C3F10703012202FA03F35AB28F
:1013200097F9063013435BB2BB7100F04BFC0346E8
:10133000124A136000F046FC0346114A136004E0B1
:1013400000F040FC03460E4A136004210D4800F0F3
:1013500017FF0346002B06D0084B1B689A1C084B4E
:101360001B689A42ECD8FB790133FB71FB79072BA0
:1013700098D9BB7918460837BD4680BDA002002029
:10138000A40200200000024080B52DED028B00AFCA
:1013900000F0B2FB00F0C6F800F0A6F900F02AF960
:1013A00000F056F9534802F08FF8524802F0F4F872
:1013B000FFF74EFE5048FFF785FE4FF4FA6000F04D
:1013C0000DFCFFF71FFE4FF47A7000F007FC4B4B4B
:1013D000D3ED007AB0EE670AFFF78AFE484BD3EDF3
:1013E000007AB0EE670AFFF7A7FEFFF7E3FE0346B9
:1013F000002B7AD0FFF750FF03461A46414B1A7074
:10140000FFF74AFF03461A463F4B1A70FFF744FFA7
:1014100003461A463D4B1A70FFF73EFF03461A4635
:101420003B4B1A70FFF738FF03461A46394B1A70C8
:10143000384B1B781946334B1B781A46324B1B78B6
:101440001344324A12781344314A127813449942B1
:101450004BD12E4B1B7807EE903AB8EE678A2C4B97
:101460001B781846FFF75EF84FF000022A4BFFF793
:10147000EDF902460B4610461946FFF795FB07EEBD
:10148000900A78EE277A1D4BC3ED007A1B4BD3ED03
:10149000007AB2EE027A27EE877AF1EE046AC7EE9E
:1014A000267A9FED1E7A77EE877A1D4BC3ED007A80
:1014B000144B1B7807EE903AB8EE678A124B1B78F4
:1014C0001846FFF72FF84FF00002134BFFF7BEF955
:1014D00002460B4610461946FFF766FB07EE900AD8
:1014E00078EE277A064BC3ED007A4FF4FA6000F0ED
:1014F00075FB6CE744020020346B00089402002066
:101500009C0200208C0200208D0200208E02002010
:101510008F020020900200200000244000000042C2
:101520009802002080B594B000AF07F1200330226C
:101530000021184603F0EBF907F10C0300221A60B2
:101540005A609A60DA601A610023BB60274B1B6CFB
:10155000264A43F080531364244B1B6C03F08053E2
:10156000BB60BB6800237B60214B1B68204A43F4AF
:10157000804313601E4B1B6803F480437B607B68D1
:1015800001233B624FF480337B620223BB634FF441
:101590008003FB6304233B6450237B640223BB640E
:1015A0000423FB6407F12003184601F0B9FA03464F
:1015B000002B01D000F0CEF80F23FB6002233B612B
:1015C00080237B610023BB610023FB6107F10C03D7
:1015D0000121184601F01CFD0346002B01D000F04C
:1015E000B9F800BF5037BD4680BD00BF003802408B
:1015F0000070004080B500AF124B134A1A60114BC7
:10160000124A5A600F4B00229A600E4B0022DA6099
:101610000C4B4FF480421A610A4B00225A61094B6D
:1016200000229A61074B0022DA61064B00221A62FF
:10163000044800F0D7FD0346002B01D000F08AF8E3
:1016400000BF80BDF001002000540040A0860100D2
:1016500080B586B000AF07F1080300221A605A6017
:101660009A60DA603B4600221A605A601D4B4FF0C8
:1016700080421A601B4B27225A601A4B00229A6044
:10168000184B4FF6FE72DA60164B00221A61154BAA
:1016900000229A61134801F0C7FE0346002B01D0D7
:1016A00000F058F84FF48053BB6007F10803194667
:1016B0000C4802F0D1F80346002B01D000F04AF8A4
:1016C00000233B6000237B603B461946054802F03F
:1016D00003FB0346002B01D000F03CF800BF183795
:1016E000BD4680BD4402002080B485B000AF002319
:1016F000FB60174B1B6B164A43F080031363144BBC
:101700001B6B03F08003FB60FB680023BB60104B86
:101710001B6B0F4A43F0010313630D4B1B6B03F06C
:101720000103BB60BB6800237B60094B1B6B084A4D
:1017300043F002031363064B1B6B03F002037B6051
:101740007B6800BF1437BD465DF8047B704700BF5F
:101750000038024080B400AF72B600BFFEE7000060
:1017600080B483B000AF00237B60104B5B6C0F4AEA
:1017700043F4804353640D4B5B6C03F480437B6004
:101780007B6800233B60094B1B6C084A43F0805385
:101790001364064B1B6C03F080533B603B6800BF37
:1017A0000C37BD465DF8047B704700BF003802402F
:1017B00080B58AB000AF786007F1140300221A6088
:1017C0005A609A60DA601A617B681B68194A934212
:1017D0002BD100233B61184B1B6B174A43F00203CC
:1017E0001363154B1B6B03F002033B613B69C02382
:1017F0007B611223BB610023FB6103233B62042353
:101800007B6207F1140319460C4800F01DFB00230E
:10181000FB60094B1B6C084A43F400131364064B2E
:101820001B6C03F40013FB60FB6800BF2837BD4648
:1018300080BD00BF00540040003802400004024058
:1018400080B584B000AF78607B681B68B3F1804FCF
:1018500015D10023FB600C4B1B6C0B4A43F00103BA
:101860001364094B1B6C03F00103FB60FB6800224F
:1018700000211C2000F0B1FA1C2000F0CAFA00BFC1
:101880001037BD4680BD00BF0038024080B400AFB5
:10189000FEE780B400AFFEE780B400AFFEE780B49F
:1018A00000AFFEE780B400AFFEE780B400AF00BF3A
:1018B000BD465DF8047B704780B400AF00BFBD46F5
:1018C0005DF8047B704780B400AF00BFBD465DF893
:1018D000047B704780B500AF00F060F900BF80BDA9
:1018E00080B500AF024801F0C7FE00BF80BD00BF59
:1018F0004402002080B400AF01231846BD465DF8C5
:10190000047B704780B582B000AF7860396003F027
:1019100051F8034616221A604FF0FF331846083775
:10192000BD4680BD80B582B000AF78604FF0FF311A
:101930007868FFF7E7FFFEE780B586B000AFF86094
:10194000B9607A6000237B610AE0AFF30080014652
:10195000BB685A1CBA60CAB21A707B6901337B61DA
:101960007A697B689A42F0DB7B6818461837BD4677
:1019700080BD80B586B000AFF860B9607A600023A2
:101980007B6109E0BB685A1CBA601B781846AFF34C
:1019900000807B6901337B617A697B689A42F1DB65
:1019A0007B6818461837BD4680BD80B483B000AF51
:1019B00078604FF0FF3318460C37BD465DF8047B66
:1019C000704780B483B000AF786039603B684FF4F3
:1019D00000525A60002318460C37BD465DF8047B60
:1019E000704780B483B000AF7860012318460C378D
:1019F000BD465DF8047B704780B485B000AFF860E9
:101A0000B9607A60002318461437BD465DF8047B40
:101A10007047000080B586B000AF7860144A154B5F
:101A2000D31A7B617B693B61134B1B68002B02D18E
:101A3000114B124A1A60104B1A687B6813443A69BA
:101A40009A4207D202F0B6FF03460C221A604FF00A
:101A5000FF3309E0084B1B68FB60074B1A687B6883
:101A60001344054A1360FB6818461837BD4680BD0D
:101A70000000022000040000A80200200004002052
:101A800080B400AF064BD3F88830054A43F47003A6
:101A9000C2F8883000BFBD465DF8047B704700BFC8
:101AA00000ED00E0DFF834D0FFF7EAFF0C480D4905
:101AB0000D4A002302E0D458C4500433C4188C42A9
:101AC000F9D30A4A0A4C002301E013600432A2420F
:101AD000FBD302F075FFFFF757FC704700000220B0
:101AE00000000020D4010020DC6E0008D40100209A
:101AF000FC030020FEE7000080B500AF0E4B1B6822
:101B00000D4A43F4007313600B4B1B680A4A43F4FD
:101B100080631360084B1B68074A43F480731360AB
:101B2000032000F04FF90F2000F008F8FFF718FE2F
:101B30000023184680BD00BF003C024080B582B043
:101B400000AF7860124B1A68124B1B7819464FF49D
:101B50007A73B3FBF1F3B2FBF3F3184600F067F9C5
:101B60000346002B01D001230EE07B680F2B0AD81F
:101B7000002279684FF0FF3000F02FF9064A7B68A9
:101B80001360002300E0012318460837BD4680BDDE
:101B900000000020080000200400002080B400AFF6
:101BA000064B1B781A46064B1B681344044A136005
:101BB00000BFBD465DF8047B704700BF08000020F1
:101BC000AC02002080B400AF034B1B681846BD4632
:101BD0005DF8047B704700BFAC02002080B584B084
:101BE00000AF7860FFF7EEFFB8607B68FB60FB68D2
:101BF000B3F1FF3F05D00A4B1B781A46FB6813442C
:101C0000FB6000BFFFF7DEFF0246BB68D31AFA682D
:101C10009A42F7D800BF00BF1037BD4680BD00BF55
:101C20000800002080B485B000AF78607B6803F0C6
:101C30000703FB600C4BDB68BB60BA684FF6FF0321
:101C40001340BB60FB681A02BB68134343F0BF63D9
:101C500043F40033BB60044ABB68D36000BF143751
:101C6000BD465DF8047B704700ED00E080B400AF36
:101C7000044BDB681B0A03F007031846BD465DF8FA
:101C8000047B704700ED00E080B483B000AF0346F2
:101C9000FB7197F90730002B0BDBFB7903F01F0278
:101CA000074997F907305B09012000FA02F241F871
:101CB000232000BF0C37BD465DF8047B704700BF92
:101CC00000E100E080B483B000AF03463960FB71EF
:101CD00097F90730002B0ADB3B68DAB20C4997F919
:101CE00007301201D2B20B4483F800230AE03B68AC
:101CF000DAB20849FB7903F00F03043B1201D2B2B8
:101D00000B441A7600BF0C37BD465DF8047B704764
:101D100000E100E000ED00E080B489B000AFF860C1
:101D2000B9607A60FB6803F00703FB61FB69C3F1EC
:101D30000703042B28BF0423BB61FB690433062B74
:101D400002D9FB69033B00E000237B614FF0FF32C7
:101D5000BB6902FA03F3DA43BB681A407B699A4015
:101D60004FF0FF317B6901FA03F3D9437B680B40E5
:101D7000134318462437BD465DF8047B70470000C6
:101D800080B582B000AF78607B68013BB3F1807FA3
:101D900001D301230FE00A4A7B68013B53600F2106
:101DA0004FF0FF30FFF78EFF054B00229A60044B87
:101DB00007221A60002318460837BD4680BD00BFC1
:101DC00010E000E080B582B000AF78607868FFF77F
:101DD00029FF00BF0837BD4680BD80B586B000AF83
:101DE0000346B9607A60FB7300237B61FFF73EFF17
:101DF00078617A68B9687869FFF78EFF024697F9CB
:101E00000F3011461846FFF75DFF00BF1837BD467B
:101E100080BD80B582B000AF0346FB7197F90730F3
:101E20001846FFF731FF00BF0837BD4680BD80B5BB
:101E300082B000AF78607868FFF7A2FF03461846CB
:101E40000837BD4680BD000080B489B000AF78601F
:101E5000396000237B6100233B610023BB610023C9
:101E6000FB616BE10122FB6902FA03F37B613B68D2
:101E70001B687A6913403B613A697B699A4240F07A
:101E80005A813B685B6803F00303012B05D03B6874
:101E90005B6803F00303022B30D17B689B68BB6156
:101EA000FB695B00032202FA03F3DB43BA691340C8
:101EB000BB613B68DA68FB695B0002FA03F3BA694D
:101EC0001343BB617B68BA699A607B685B68BB61DE
:101ED0000122FB6902FA03F3DB43BA691340BB61D9
:101EE0003B685B681B0903F00102FB6902FA03F31C
:101EF000BA691343BB617B68BA695A603B685B6827
:101F000003F00303032B17D07B68DB68BB61FB691D
:101F10005B00032202FA03F3DB43BA691340BB619F
:101F20003B689A68FB695B0002FA03F3BA691343E2
:101F3000BB617B68BA69DA603B685B6803F00303E6
:101F4000022B23D1FB69DA087B68083253F8223070
:101F5000BB61FB6903F007039B000F2202FA03F346
:101F6000DB43BA691340BB613B681A69FB6903F044
:101F700007039B0002FA03F3BA691343BB61FB69D1
:101F8000DA087B680832B96943F822107B681B685D
:101F9000BB61FB695B00032202FA03F3DB43BA690E
:101FA0001340BB613B685B6803F00302FB695B00A5
:101FB00002FA03F3BA691343BB617B68BA691A601A
:101FC0003B685B6803F44033002B00F0B4800023CF
:101FD000FB60604B5B6C5F4A43F4804353645D4B32
:101FE0005B6C03F48043FB60FB685B4AFB699B0806
:101FF000023352F82330BB61FB6903F003039B00FB
:102000000F2202FA03F3DB43BA691340BB617B681A
:10201000524A93422BD07B68514A934225D07B6829
:10202000504A93421FD07B684F4A934219D07B6835
:102030004E4A934213D07B684D4A93420DD07B6841
:102040004C4A934207D07B684B4A934201D1072305
:102050000EE008230CE006230AE0052308E0042331
:1020600006E0032304E0022302E0012300E0002352
:10207000FA6902F0030292009340BA691343BB610C
:102080003549FB699B080233BA6941F823203B4B71
:102090009B68BB613B69DB43BA691340BB613B682A
:1020A0005B6803F48013002B03D0BA693B691343C8
:1020B000BB61324ABB699360304BDB68BB613B69F3
:1020C000DB43BA691340BB613B685B6803F40013F0
:1020D000002B03D0BA693B691343BB61274ABB6934
:1020E000D360264B5B68BB613B69DB43BA69134035
:1020F000BB613B685B6803F40033002B03D0BA6913
:102100003B691343BB611D4ABB6953601B4B1B6892
:10211000BB613B69DB43BA691340BB613B685B68E9
:1021200003F48033002B03D0BA693B691343BB61CE
:10213000124ABB691360FB690133FB61FB690F2B1A
:102140007FF690AE00BF00BF2437BD465DF8047B2C
:10215000704700BF003802400038014000000240D4
:102160000004024000080240000C0240001002403F
:102170000014024000180240001C0240003C0140D4
:1021800080B485B000AF78600B467B807B681A69AD
:102190007B881340002B02D00123FB7301E0002356
:1021A000FB73FB7B18461437BD465DF8047B704714
:1021B00080B483B000AF78600B467B8013467B70A1
:1021C0007B78002B03D07A887B689A6103E07B8858
:1021D0001A047B689A6100BF0C37BD465DF8047B2A
:1021E0007047000080B584B000AF78607B68002B3A
:1021F00001D101232BE17B6893F83D30DBB2002B4A
:1022000006D17B68002283F83C207868FFF7D0FA7B
:102210007B68242283F83D207B681B681A687B68F2
:102220001B6822F001021A607B681B681A687B68D1
:102230001B6842F400421A607B681B681A687B685E
:102240001B6822F400421A6001F0DAF8F8607B683B
:102250005B68814A934207D8FB68804A934294BFE7
:1022600001230023DBB206E0FB687D4A934294BF62
:1022700001230023DBB2002B01D00123E7E0FB6840
:10228000784AA2FB03239B0CBB607B681B685B68DE
:1022900023F03F017B681B68BA680A435A607B6879
:1022A0001B681B6A23F03F017B685B686A4A9342A4
:1022B00002D8BB68013309E0BB684FF4967202FB99
:1022C00003F3694AA2FB03239B0901337A6812686E
:1022D0000B4313627B681B68DB6923F44F4222F0D7
:1022E000FF027B685B685C498B4219D8FB68591E0A
:1022F0007B685B685B00B1FBF3F3591C40F6FC7331
:102300000B40002B0AD0FB68591E7B685B685B00A2
:10231000B1FBF3F30133C3F30B0351E004234FE0AC
:102320007B689B68002B11D1FB68581E7B6859683D
:102330000B465B000B44B0FBF3F30133C3F30B0319
:10234000002B0CBF01230023DBB212E0FB68581EF8
:102350007B6859680B469B000B4499000B44B0FB0B
:10236000F3F30133C3F30B03002B0CBF0123002352
:10237000DBB2002B01D0012322E07B689B68002B9D
:102380000ED1FB68581E7B6859680B465B000B44F6
:10239000B0FBF3F30133C3F30B0343F400430FE04B
:1023A000FB68581E7B6859680B469B000B449900DC
:1023B0000B44B0FBF3F30133C3F30B0343F440438B
:1023C000796809681343CB617B681B681B6823F03D
:1023D000C0017B68DA697B681B6A1A437B681B68EB
:1023E0000A431A607B681B689B6823F4034323F04D
:1023F000FF037A6811697A68D26811437A681268B3
:102400000B4393607B681B68DB6823F0FF017B68EC
:102410005A697B689B691A437B681B680A43DA60C8
:102420007B681B681A687B681B6842F001021A60AF
:102430007B6800221A647B68202283F83D207B6839
:1024400000221A637B68002283F83E20002318468E
:102450001037BD4680BD00BFA08601007F841E00EE
:10246000FF083D0083DE1B43D34D621080B588B06A
:1024700002AFF8607A601A460B467B8113463B81B7
:10248000FFF7A0FB7861FB6893F83D30DBB2202BAF
:1024900040F0E0807B690093192301227049F868BD
:1024A00000F064F90346002B01D00223D3E0FB685F
:1024B00093F83C30012B01D10223CCE0FB680122D0
:1024C00083F83C20FB681B681B6803F00103012BA9
:1024D00007D0FB681B681A68FB681B6842F00102A2
:1024E0001A60FB681B681A68FB681B6822F40062AC
:1024F0001A60FB68212283F83D20FB68102283F8D4
:102500003E20FB6800221A64FB687A685A62FB6806
:102510003A895A85FB685B8D9AB2FB681A85FB681D
:10252000504ADA6279897B693A6AF86800F09CF867
:102530000346002B01D001238DE000233B61FB68A3
:102540001B685B693B61FB681B689B693B613B697E
:1025500066E07A69396AF86800F022FA0346002BCF
:102560000DD0FB681B6C042B07D1FB681B681A6835
:10257000FB681B6842F400721A6001236BE0FB6881
:102580005B6A1A78FB681B681A61FB685B6A5A1CF5
:10259000FB685A62FB685B8D9BB2013B9AB2FB6899
:1025A0005A85FB681B8D013B9AB2FB681A85FB6854
:1025B0001B685B6903F00403042B1BD1FB681B8DB4
:1025C000002B17D0FB685B6A1A78FB681B681A61DE
:1025D000FB685B6A5A1CFB685A62FB685B8D9BB2A6
:1025E000013B9AB2FB685A85FB681B8D013B9AB28E
:1025F000FB681A857A69396AF86800F019FA0346A7
:10260000002B0DD0FB681B6C042B07D1FB681B68EB
:102610001A68FB681B6842F400721A6001231AE012
:10262000FB681B8D002B94D1FB681B681A68FB6844
:102630001B6842F400721A60FB68202283F83D2078
:10264000FB68002283F83E20FB68002283F83C20D0
:10265000002300E0022318461837BD4680BD00BFA6
:10266000020010000000FFFF80B588B002AFF860E4
:102670007A603B600B467B81FB68DB6A7B617B6930
:10268000082B06D07B69012B03D07B6913F5803FB3
:1026900008D1FB681B681A68FB681B6842F48072EB
:1026A0001A600BE0FB681B6B122B07D1FB681B68E1
:1026B0001A68FB681B6842F480721A603B680093DA
:1026C0007B6800224FF00111F86800F04FF80346D4
:1026D000002B0DD0FB681B681B6803F48073B3F5F7
:1026E000807F03D1FB684FF400721A64032335E046
:1026F000FB681B69B3F5804F08D17B89DBB21A46B2
:10270000FB681B6802F0FE021A611BE07B89DB118B
:10271000DBB203F00603DBB263F00F03DAB2FB684F
:102720001B681A613B687A680E49F86800F098F8EF
:102730000346002B01D0012310E07B89DAB2FB684D
:102740001B681A613B687A680749F86800F088F8E6
:102750000346002B01D0012300E000231846183760
:10276000BD4680BD080001000200010080B584B0B4
:1027700000AFF860B9603B601346FB7148E03B680E
:10278000B3F1FF3F44D0FFF71DFA0246BB69D31AED
:102790003A689A4202D33B68002B39D1BB681B0CC4
:1027A000DBB2012B0DD1FB681B685B69DA43BB68A8
:1027B00013409BB2002B0CBF01230023DBB21A464F
:1027C0000CE0FB681B689B69DA43BB6813409BB253
:1027D000002B0CBF01230023DBB21A46FB799A427F
:1027E00016D1FB6800221A63FB68202283F83D2083
:1027F000FB68002283F83E20FB681B6C43F020023C
:10280000FB681A64FB68002283F83C20012323E064
:10281000BB681B0CDBB2012B0DD1FB681B685B692D
:10282000DA43BB6813409BB2002B0CBF012300238B
:10283000DBB21A460CE0FB681B689B69DA43BB6895
:1028400013409BB2002B0CBF01230023DBB21A46BE
:10285000FB799A4293D0002318461037BD4680BDBD
:1028600080B584B000AFF860B9607A603B6071E019
:10287000FB681B685B6903F48063B3F5806F23D149
:10288000FB681B681A68FB681B6842F400721A60D8
:10289000FB681B686FF480625A61FB6800221A6350
:1028A000FB68202283F83D20FB68002283F83E204D
:1028B000FB681B6C43F00402FB681A64FB6800228F
:1028C00083F83C20012367E07B68B3F1FF3F41D0F0
:1028D000FFF778F902463B68D31A7A689A4202D326
:1028E0007B68002B36D1BB681B0CDBB2012B0CD1F3
:1028F000FB681B685B69DA43BB6813409BB2002B23
:1029000014BF01230023DBB20BE0FB681B689B694B
:10291000DA43BB6813409BB2002B14BF0123002392
:10292000DBB2002B16D0FB6800221A63FB68202262
:1029300083F83D20FB68002283F83E20FB681B6C77
:1029400043F02002FB681A64FB68002283F83C20F5
:10295000012321E0BB681B0CDBB2012B0CD1FB680F
:102960001B685B69DA43BB6813409BB2002B14BF42
:1029700001230023DBB20BE0FB681B689B69DA4391
:10298000BB6813409BB2002B14BF01230023DBB2B2
:10299000002B7FF46DAF002318461037BD4680BD75
:1029A00080B584B000AFF860B9607A6034E0F86850
:1029B00000F086F80346002B01D0012334E0BB6809
:1029C000B3F1FF3F28D0FFF7FDF802467B68D31A2A
:1029D000BA689A4202D3BB68002B1DD1FB681B6802
:1029E0005B6903F08003802B16D0FB6800221A631A
:1029F000FB68202283F83D20FB68002283F83E20FC
:102A0000FB681B6C43F02002FB681A64FB68002221
:102A100083F83C20012307E0FB681B685B6903F037
:102A20008003802BC3D1002318461037BD4680BDDC
:102A300080B584B000AFF860B9607A6034E0F868BF
:102A400000F03EF80346002B01D0012334E0BB68C0
:102A5000B3F1FF3F28D0FFF7B5F802467B68D31AE1
:102A6000BA689A4202D3BB68002B1DD1FB681B6871
:102A70005B6903F00403042B16D0FB6800221A6381
:102A8000FB68202283F83D20FB68002283F83E206B
:102A9000FB681B6C43F02002FB681A64FB68002291
:102AA00083F83C20012307E0FB681B685B6903F0A7
:102AB0000403042BC3D1002318461037BD4680BD44
:102AC00080B483B000AF78607B681B685B6903F4F7
:102AD0008063B3F5806F1BD17B681B686FF48062E5
:102AE0005A617B6800221A637B68202283F83D20AC
:102AF0007B68002283F83E207B681B6C43F0040255
:102B00007B681A647B68002283F83C20012300E084
:102B1000002318460C37BD465DF8047B7047000063
:102B200080B586B000AF78607B68002B01D10123AF
:102B300067E27B681B6803F00103002B75D0884BAC
:102B40009B6803F00C03042B0CD0854B9B6803F0AF
:102B50000C03082B12D1824B5B6803F48003B3F59E
:102B6000800F0BD17E4B1B6803F40033002B5BD02E
:102B70007B685B68002B57D1012342E27B685B686E
:102B8000B3F5803F06D1764B1B68754A43F480331A
:102B900013601DE07B685B68B3F5A02F0CD1704B10
:102BA0001B686F4A43F4802313606D4B1B686C4AAB
:102BB00043F4803313600BE0694B1B68684A23F4CD
:102BC00080331360664B1B68654A23F480231360CF
:102BD0007B685B68002B13D0FEF7F4FF386108E0D8
:102BE000FEF7F0FF02463B69D31A642B01D9032399
:102BF00007E25B4B1B6803F40033002BF0D014E0BA
:102C0000FEF7E0FF386108E0FEF7DCFF02463B69B3
:102C1000D31A642B01D90323F3E1514B1B6803F44E
:102C20000033002BF0D100E000BF7B681B6803F08D
:102C30000203002B63D04A4B9B6803F00C03002B6C
:102C40000BD0474B9B6803F00C03082B1CD1444B63
:102C50005B6803F48003002B16D1414B1B6803F023
:102C60000203002B05D07B68DB68012B01D0012318
:102C7000C7E13B4B1B6823F0F8027B681B69DB0054
:102C8000374913430B603AE07B68DB68002B20D0A8
:102C9000344B01221A60FEF795FF386108E0FEF719
:102CA00091FF02463B69D31A022B01D90323A8E105
:102CB0002B4B1B6803F00203002BF0D0284B1B6842
:102CC00023F0F8027B681B69DB00254913430B6086
:102CD00015E0244B00221A60FEF774FF386108E00B
:102CE000FEF770FF02463B69D31A022B01D903237A
:102CF00087E11B4B1B6803F00203002BF0D17B68BC
:102D00001B6803F00803002B36D07B685B69002B3F
:102D100016D0154B01221A60FEF754FF386108E007
:102D2000FEF750FF02463B69D31A022B01D9032359
:102D300067E10B4B5B6F03F00203002BF0D01BE04D
:102D4000094B00221A60FEF73DFF38610EE0FEF7E6
:102D500039FF02463B69D31A022B07D9032350E1FE
:102D60000038024000004742800E4742884B5B6FAC
:102D700003F00203002BEAD17B681B6803F0040315
:102D8000002B00F097800023FB75814B1B6C03F038
:102D90008053002B0FD10023BB607D4B1B6C7C4A02
:102DA00043F0805313647A4B1B6C03F08053BB6079
:102DB000BB680123FB75774B1B6803F48073002B02
:102DC00018D1744B1B68734A43F480731360FEF789
:102DD000F9FE386108E0FEF7F5FE02463B69D31ABA
:102DE000022B01D903230CE16A4B1B6803F48073A7
:102DF000002BF0D07B689B68012B06D1644B1B6FC6
:102E0000634A43F0010313671CE07B689B68052B52
:102E10000CD15F4B1B6F5E4A43F0040313675C4B9E
:102E20001B6F5B4A43F0010313670BE0584B1B6FAA
:102E3000574A23F001031367554B1B6F544A23F085
:102E4000040313677B689B68002B15D0FEF7BAFE5E
:102E500038610AE0FEF7B6FE02463B69D31A41F23A
:102E60008832934201D90323CBE0494B1B6F03F017
:102E70000203002BEED014E0FEF7A4FE38610AE056
:102E8000FEF7A0FE02463B69D31A41F28832934214
:102E900001D90323B5E03E4B1B6F03F00203002B67
:102EA000EED1FB7D012B05D1394B1B6C384A23F049
:102EB000805313647B689B69002B00F0A180344B26
:102EC0009B6803F00C03082B5CD07B689B69022B8A
:102ED00041D1314B00221A60FEF774FE386108E0E0
:102EE000FEF770FE02463B69D31A022B01D9032379
:102EF00087E0274B1B6803F00073002BF0D17B6841
:102F0000DA697B681B6A1A437B685B6A9B011A4318
:102F10007B689B6A5B08013B1B041A437B68DB6A86
:102F20001B061B4913434B601B4B01221A60FEF723
:102F300049FE386108E0FEF745FE02463B69D31AB8
:102F4000022B01D903235CE0114B1B6803F00073D3
:102F5000002BF0D054E0104B00221A60FEF732FE36
:102F6000386108E0FEF72EFE02463B69D31A022BB9
:102F700001D9032345E0064B1B6803F00073002BC7
:102F8000F0D13DE07B689B69012B07D1012338E03C
:102F90000038024000700040600047421B4B5B68F5
:102FA000FB607B689B69012B28D0FB6803F48002DF
:102FB0007B68DB699A4221D1FB6803F03F027B68A2
:102FC0001B6A9A421AD1FA6847F6C07313407A68AE
:102FD000526A9201934211D1FB6803F440327B683C
:102FE0009B6A5B08013B1B049A4207D1FB6803F014
:102FF00070627B68DB6A1B069A4201D0012300E005
:10300000002318461837BD4680BD00BF0038024077
:1030100080B584B000AF786039607B68002B01D147
:103020000123CCE0684B1B6803F007033A689A421F
:103030000CD9654B3A68D2B21A70634B1B6803F027
:1030400007033A689A4201D00123B8E07B681B6805
:1030500003F00203002B20D07B681B6803F00403FD
:10306000002B05D0594B9B68584A43F4E0539360BA
:103070007B681B6803F00803002B05D0534B9B684B
:10308000524A43F460439360504B9B6823F0F00234
:103090007B689B684D4913438B607B681B6803F01A
:1030A0000103002B44D07B685B68012B07D1474BA1
:1030B0001B6803F40033002B19D101237FE07B68E8
:1030C0005B68022B03D07B685B68032B07D13F4B07
:1030D0001B6803F00073002B09D101236FE03B4B09
:1030E0001B6803F00203002B01D1012367E0374B7B
:1030F0009B6823F003027B685B68344913438B6051
:10310000FEF760FDF8600AE0FEF75CFD0246FB6832
:10311000D31A41F28832934201D903234FE02B4B5B
:103120009B6803F00C027B685B689B009A42EBD1C2
:10313000254B1B6803F007033A689A420CD2224BD6
:103140003A68D2B21A70204B1B6803F007033A6842
:103150009A4201D0012332E07B681B6803F004032C
:10316000002B08D0194B9B6823F4E0527B68DB6886
:10317000164913438B607B681B6803F00803002B20
:1031800009D0124B9B6823F460427B681B69DB000B
:103190000E4913438B6000F021F802460B4B9B68ED
:1031A0001B0903F00F030A49CB5C22FA03F3094A17
:1031B0001360094B1B681846FEF7C0FC0023184635
:1031C0001037BD4680BD00BF003C024000380240C1
:1031D000446B000800000020040000202DE9B04FDF
:1031E00094B000AF00237B640023FB6400233B64A6
:1031F0000023BB64794B9B6803F00C03082B0DD0B4
:10320000082B00F2E180002B02D0042B03D0DBE07E
:10321000734BBB64DBE0734BBB64D8E06F4B5B6804
:1032200003F03F037B646D4B5B6803F48003002B6A
:1032300063D06A4B5B689B090022BB63FA63BB6B7C
:10324000C3F308033B6300237B63D7E90C452246A5
:103250002B464FF000004FF00001590141EAD261C6
:10326000500102460B462146511A3961294663EB4B
:1032700001037B614FF000024FF00003D7E904AB7C
:1032800059468B01514643EA916351468A015146A2
:10329000B2EB0108594663EB01094FF000024FF011
:1032A00000034FEAC90343EA58734FEAC802904645
:1032B0009946234618EB0303BB602B4649EB0303F7
:1032C000FB604FF000024FF00003D7E902452946AA
:1032D0004B02214643EAD15321464A021046194681
:1032E0007B6C0022BB62FA62D7E90A23FDF7ACFCD3
:1032F00002460B461346FB6458E0384B5B689B095B
:10330000002218461146C0F308033B6200237B628B
:10331000D7E9088942464B464FF000004FF00001C4
:10332000590141EAD261500102460B464146B2EBD7
:10333000010A494663EB010B4FF000024FF0000316
:103340004FEA8B1343EA9A634FEA8A12B2EB0A04FC
:1033500063EB0B054FF000024FF00003EB0043EA74
:103360005473E20014461D464346E3183B604B4647
:1033700045EB03037B604FF000024FF00003D7E9F9
:10338000004529468B02214643EA915321468A0291
:10339000104619467B6C0022BB61FA61D7E906230F
:1033A000FDF752FC02460B461346FB640B4B5B6871
:1033B0001B0C03F0030301335B003B64FA6C3B6CB2
:1033C000B2FBF3F3BB6402E0054BBB6400BFBB6C14
:1033D00018465037BD46BDE8B08F00BF00380240E8
:1033E0000024F40000127A0080B400AF034B1B6885
:1033F0001846BD465DF8047B704700BF0000002002
:1034000080B500AFFFF7F0FF0246054B9B689B0AB3
:1034100003F007030349CB5C22FA03F3184680BD8F
:1034200000380240546B000880B582B000AF78606D
:103430007B68002B01D1012341E07B6893F83D308C
:10344000DBB2002B06D17B68002283F83C20786831
:10345000FEF7F6F97B68022283F83D207B681A6844
:103460007B6804331946104600F0F0FA7B680122AD
:1034700083F846207B68012283F83E207B68012286
:1034800083F83F207B68012283F840207B6801227B
:1034900083F841207B68012283F842207B68012267
:1034A00083F843207B68012283F844207B68012253
:1034B00083F845207B68012283F83D2000231846CD
:1034C0000837BD4680BD000080B485B000AF78608D
:1034D0007B6893F83D30DBB2012B01D0012346E03D
:1034E0007B68022283F83D207B681B68234A934255
:1034F00022D07B681B68B3F1804F1DD07B681B68AE
:103500001F4A934218D07B681B681E4A934213D00F
:103510007B681B681C4A93420ED07B681B681B4A61
:10352000934209D07B681B68194A934204D07B6898
:103530001B68184A934211D17B681B689B6803F093
:103540000703FB60FB68062B10D07B681B681A68BA
:103550007B681B6842F001021A6007E07B681B6809
:103560001A687B681B6842F001021A600023184643
:103570001437BD465DF8047B704700BF0000014072
:103580000004004000080040000C0040000401401E
:10359000004001400018004080B485B000AF786062
:1035A0007B6893F83D30DBB2012B01D001234EE064
:1035B0007B68022283F83D207B681B68DA687B68A1
:1035C0001B6842F00102DA607B681B68234A934261
:1035D00022D07B681B68B3F1804F1DD07B681B68CD
:1035E0001F4A934218D07B681B681E4A934213D02F
:1035F0007B681B681C4A93420ED07B681B681B4A81
:10360000934209D07B681B68194A934204D07B68B7
:103610001B68184A934211D17B681B689B6803F0B2
:103620000703FB60FB68062B10D07B681B681A68D9
:103630007B681B6842F001021A6007E07B681B6828
:103640001A687B681B6842F001021A600023184662
:103650001437BD465DF8047B704700BF0000014091
:103660000004004000080040000C0040000401403D
:10367000004001400018004080B584B000AF786081
:103680007B681B68DB68FB607B681B681B69BB6031
:10369000BB6803F00203002B20D0FB6803F0020399
:1036A000002B1BD07B681B686FF002021A617B68DD
:1036B00001221A777B681B689B6903F00303002BC8
:1036C00003D0786800F0A3F905E0786800F095F978
:1036D000786800F0A6F97B6800221A77BB6803F0CF
:1036E0000403002B20D0FB6803F00403002B1BD045
:1036F0007B681B686FF004021A617B6802221A77EC
:103700007B681B689B6903F44073002B03D07868C7
:1037100000F07DF905E0786800F06FF9786800F056
:1037200080F97B6800221A77BB6803F00803002B3E
:1037300020D0FB6803F00803002B1BD07B681B68BC
:103740006FF008021A617B6804221A777B681B6895
:10375000DB6903F00303002B03D0786800F057F90E
:1037600005E0786800F049F9786800F05AF97B685C
:1037700000221A77BB6803F01003002B20D0FB68EF
:1037800003F01003002B1BD07B681B686FF0100246
:103790001A617B6808221A777B681B68DB6903F46F
:1037A0004073002B03D0786800F031F905E07868A9
:1037B00000F023F9786800F034F97B6800221A776A
:1037C000BB6803F00103002B0CD0FB6803F001037E
:1037D000002B07D07B681B686FF001021A617868C4
:1037E00000F001F9BB6803F08003002B0CD0FB68EC
:1037F00003F08003002B07D07B681B686FF080020A
:103800001A61786800F0EEFABB6803F04003002B01
:103810000CD0FB6803F04003002B07D07B681B68CB
:103820006FF040021A61786800F005F9BB6803F098
:103830002003002B0CD0FB6803F02003002B07D0E3
:103840007B681B686FF020021A61786800F0C0FA8C
:1038500000BF1037BD4680BD80B584B000AF786032
:1038600039600023FB737B6893F83C30012B01D156
:103870000223B4E07B68012283F83C207B680222AB
:1038800083F83D207B681B689B68BB60BB6823F0A6
:103890007703BB60BB6823F47F43BB607B681B6816
:1038A000BA689A603B681B68B3F5005F3ED0B3F519
:1038B000005F00F28780B3F5805F00F08680B3F58B
:1038C000805F7FD8702B1AD0702B7BD8602B50D0A4
:1038D000602B77D8502B3CD0502B73D8402B58D02E
:1038E000402B6FD8302B64D0302B6BD8202B60D07E
:1038F000202B67D8002B5CD0102B5AD062E07B685D
:1039000018683B6899683B685A683B68DB6800F058
:10391000C3F97B681B689B68BB60BB6843F0770397
:10392000BB607B681B68BA689A604FE07B68186868
:103930003B6899683B685A683B68DB6800F0ACF903
:103940007B681B689A687B681B6842F480429A60B7
:103950003CE07B6818683B6859683B68DB681A463E
:1039600000F020F97B681B685021184600F079F9B7
:103970002CE07B6818683B6859683B68DB681A462E
:1039800000F03FF97B681B686021184600F069F978
:103990001CE07B6818683B6859683B68DB681A461E
:1039A00000F000F97B681B684021184600F059F9C7
:1039B0000CE07B681A683B681B681946104600F0EB
:1039C00050F903E00123FB7300E000BF7B68012294
:1039D00083F83D207B68002283F83C20FB7B18465F
:1039E0001037BD4680BD80B483B000AF786000BFA3
:1039F0000C37BD465DF8047B704780B483B000AFE0
:103A0000786000BF0C37BD465DF8047B704780B41A
:103A100083B000AF786000BF0C37BD465DF8047B13
:103A2000704780B483B000AF786000BF0C37BD46EC
:103A30005DF8047B704780B483B000AF786000BF4E
:103A40000C37BD465DF8047B7047000080B485B03C
:103A500000AF786039607B681B68FB607B68464A12
:103A6000934213D07B68B3F1804F0FD07B68434AF9
:103A700093420BD07B68424A934207D07B68414A0D
:103A8000934203D07B68404A934208D1FB6823F0FD
:103A90007003FB603B685B68FA681343FB607B68FC
:103AA000354A93422BD07B68B3F1804F27D07B6897
:103AB000324A934223D07B68314A93421FD07B68BD
:103AC000304A93421BD07B682F4A934217D07B68C1
:103AD0002E4A934213D07B682D4A93420FD07B68C5
:103AE0002C4A93420BD07B682B4A934207D07B68C9
:103AF0002A4A934203D07B68294A934208D1FB6843
:103B000023F44073FB603B68DB68FA681343FB6097
:103B1000FB6823F080023B685B691343FB607B68B2
:103B2000FA681A603B689A687B68DA623B681A68D0
:103B30007B689A627B68104A934203D07B68124A82
:103B4000934203D13B681A697B681A637B68012240
:103B50005A617B681B6903F00103012B05D17B6867
:103B60001B6923F001027B681A6100BF1437BD4650
:103B70005DF8047B704700BF000001400004004076
:103B800000080040000C00400004014000400140DB
:103B9000004401400048014000180040001C004063
:103BA0000020004080B487B000AFF860B9607A6050
:103BB000FB681B6A7B61FB681B6A23F00102FB68E0
:103BC0001A62FB689B693B613B6923F0F0033B6130
:103BD0007B681B013A6913433B617B6923F00A034D
:103BE0007B617A69BB6813437B61FB683A699A61C0
:103BF000FB687A691A6200BF1C37BD465DF8047B1A
:103C0000704780B487B000AFF860B9607A60FB6835
:103C10001B6A7B61FB681B6A23F01002FB681A6257
:103C2000FB689B693B613B6923F470433B617B68A4
:103C30001B033A6913433B617B6923F0A0037B615B
:103C4000BB681B017A6913437B61FB683A699A611F
:103C5000FB687A691A6200BF1C37BD465DF8047BB9
:103C6000704780B485B000AF786039607B689B682E
:103C7000FB60FB6823F07003FB603A68FB6813434A
:103C800043F00703FB607B68FA689A6000BF143753
:103C9000BD465DF8047B704780B487B000AFF86024
:103CA000B9607A603B60FB689B687B617B6923F449
:103CB0007F437B613B681A027B681A43BB681343EE
:103CC0007A6913437B61FB687A699A6000BF1C378D
:103CD000BD465DF8047B704780B485B000AF786066
:103CE00039607B6893F83C30012B01D102235AE004
:103CF0007B68012283F83C207B68022283F83D2008
:103D00007B681B685B68FB607B681B689B68BB60AB
:103D1000FB6823F07003FB603B681B68FA68134381
:103D2000FB607B681B68FA685A607B681B68214AE5
:103D3000934222D07B681B68B3F1804F1DD07B6813
:103D40001B681D4A934218D07B681B681B4A93422C
:103D500013D07B681B681A4A93420ED07B681B689D
:103D6000184A934209D07B681B68174A934204D0D3
:103D70007B681B68154A93420CD1BB6823F0800313
:103D8000BB603B685B68BA681343BB607B681B68B9
:103D9000BA689A607B68012283F83D207B68002224
:103DA00083F83C20002318461437BD465DF8047B99
:103DB000704700BF000001400004004000080040C0
:103DC000000C004000040140004001400018004089
:103DD00080B483B000AF786000BF0C37BD465DF89B
:103DE000047B704780B483B000AF786000BF0C37AD
:103DF000BD465DF8047B70472DE9FF4755EC104B3D
:103E0000002D0E4619462B46BBBF05F100431D464B
:103E100000232D230B700D9BDDF830A0914623F07D
:103E20002008BCBF22461446B8F1460F05D0B8F1B1
:103E3000450F00D10136022100E0032103AB0193BD
:103E400002AB009345EC104B5346324600F068FE3F
:103E5000B8F1470F074602D119F0010F22D0B8F18F
:103E6000460F07EB060910D13B78302B0AD1002210
:103E7000002320462946FCF727FE18B9C6F10106A3
:103E8000CAF80060DAF80030994400220023204686
:103E90002946FCF719FE08B1CDF80C903022039B9F
:103EA0004B4507D3039B0E9ADB1B3846136004B0C7
:103EB000BDE8F087591C03911A70F0E7F7B5034687
:103EC0000029B8BF494203F8022BB4BF2D222B2290
:103ED000092942702ADD0DF1070217460A26944689
:103EE00091FBF6F506FB151430340CF8014C0C462A
:103EF000632C02F1FF322946F1DC3031ACF10204CF
:103F000002F8011C411C2246BA420AD30DF10902F3
:103F1000A2EB0C02BC4288BF00221344181A03B063
:103F2000F0BD12F8015B01F8015FEDE7302330319D
:103F30008370C170031DF1E72DE9F04F2DED028B69
:103F40008DB00C46DDF8608016461F46054600F031
:103F5000E7FCD0F800A05046FCF78AF900230A934A
:103F600023680593D8F8003094F818B0073323F08D
:103F7000070303F10802C8F80020D3E9008929F0FB
:103F800000430793CDF8188008EE100AC4E912899F
:103F9000DDE906019E4B4FF0FF32FCF7C7FD88BB01
:103FA000DDE906019A4B4FF0FF32FCF7A1FD48BB5B
:103FB0000022002340464946FCF790FD10B12D2316
:103FC00084F84330934A944BBBF1470F94BF90461B
:103FD000984603232361059B23F0040323604FF0DD
:103FE0000009009733460BAA2146284600F0DAF96B
:103FF000013040F090804FF0FF300DB0BDEC028BEF
:10400000BDE8F08F42464B4640464946FCF78EFDE0
:1040100040B14B46002BBCBF2D2384F843307F4A70
:104020007F4BD1E763680BF0DF0206925A1C3FD149
:1040300006236360059B616843F480620023039359
:104040000AABCDE901B309AB49EC108B00932260B8
:104050000DF123032846FFF7CFFE069B0999472B56
:10406000804608D1C81C02DB6368994241DDABF190
:1040700002035FFA83FBBBF1650F20D801395A4672
:1040800004F150000991FFF719FF0A9A1318012A49
:104090008146236102DC2268D20701D50133236106
:1040A0009DF82330002B9CD02D2384F8433098E7D3
:1040B000069A472ABED1002BBCD10123B9E7BBF138
:1040C000660F18D1002963680BDD216113B92268DE
:1040D000D00702D501330B442361A1654FF00009DD
:1040E000DEE713B92268D20701D50233F4E70123D2
:1040F000F2E74FF0670B0A9B994205DB23682161C9
:10410000D807EAD54B1CE7E70029D4BFC1F102026A
:1041100001221344E0E723685A0507D42369424685
:1041200031462846B84701302CD164E7BBF1650F12
:1041300040F2E080D4E9120100220023FCF7C4FC25
:10414000002834D0374A012331462846B847013089
:104150003FF451AFDDE909239A4202DB2368D80717
:1041600010D518EE103A524631462846B84701306D
:104170003FF441AF4FF0000804F11A090A9B013BDC
:10418000434509DC23689B0700F10781E0680B9B2E
:104190009842B8BF184630E701234A4631462846C0
:1041A000B84701303FF427AF08F10108E6E7099B63
:1041B000002B39DC1B4A012331462846B847013021
:1041C0003FF419AFDDE90932134302D12368D9075F
:1041D000D8D518EE103A524631462846B847013035
:1041E0003FF409AF4FF0000904F11A0A099B5B4242
:1041F0004B4501DC0A9B92E7012352463146284693
:10420000B84701303FF4F7AE09F10109EEE700BF0E
:10421000FFFFEF7F5C6B0008606B0008646B0008B9
:10422000686B00086C6B00080A9AA36D9A42A8BFDD
:104230001A46002A914637DC4FF0000B29EAE9794B
:1042400004F11A02A36D0593A3EB09035B4533DC6C
:10425000DDE909239A423BDB2368DA0738D4DDE93C
:104260000932A2EB0309059BD21A9145A8BF9146DA
:10427000B9F1000F35DC4FF0000829EAE97904F1C3
:104280001A0ADDE909239B1AA3EB090343457FF7CB
:1042900079AF0123524631462846B84701303FF4F2
:1042A000AAAE08F10108ECE713463146424628461B
:1042B000B8470130C0D19EE6012331462846059219
:1042C000B84701303FF497AE059A0BF1010BB9E7FF
:1042D00018EE103A524631462846B8470130BED152
:1042E00089E6059A4B46424431462846B847013094
:1042F000C1D180E60A9A012A01DCDB073AD5012305
:10430000424631462846B84701303FF474AE18EEB5
:10431000103A524631462846B84701303FF46BAE5A
:10432000D4E9120100220023DDF828A0FCF7CCFB21
:10433000D8B90AF1FF3308F1010231462846B847DF
:1043400001300ED157E60123524631462846B84780
:1043500001303FF450AE08F101080A9B013B434590
:10436000F1DC4B4604F15002DAE64FF0000804F1AC
:104370001A0AF2E701234246DFE701234A463146A3
:104380002846B84701303FF436AE08F10108E3682B
:104390000B995B1A4345F0DCF8E64FF0000804F196
:1043A0001909F4E72DE9F047164699468A680B6922
:1043B000DDF820809342B8BF1346336091F8432064
:1043C00007460C460AB1013333602368990642BFA1
:1043D000336802333360256815F0060506D104F111
:1043E000190AE36832689B1AAB4226DC94F8432032
:1043F000131E226818BF012392062BD404F1430236
:1044000049463846C04701301ED02368226903F070
:104410000603042B02BFE5683368ED1AA3680CBFDE
:1044200025EAE57500259342C4BF9B1AED180026C6
:104430001A34B5421AD1002008E0012352464946F9
:104440003846C047013003D14FF0FF30BDE8F08758
:104450000135C6E7E1185A1C302081F84300224498
:1044600094F8451082F843100233C7E7012322462F
:1044700049463846C0470130E6D00136D9E700004A
:104480002DE9FF470F7E0C9D782F914680460C4604
:104490009A4601F1430207D8622F0AD8002F00F094
:1044A000D480582F00F0C08004F1420584F8427097
:1044B0003AE0A7F16303152BF6D801A151F823F0D8
:1044C000194500082D450008A9440008A944000822
:1044D000A9440008A94400082D450008A944000883
:1044E000A9440008A9440008A9440008314600086E
:1044F00059450008EB450008A9440008A9440008F4
:1045000053460008A944000859450008A94400087A
:10451000A9440008F34500082B681A1D1B682A608F
:1045200004F1420584F8423001239FE020682B68A3
:10453000070603F10401296001D51E6803E0460661
:10454000FBD5B3F90060002E03DA2D23764284F800
:1045500043305A480A2312E02B682068191D29604D
:10456000050601D51E6802E04106FBD51E885348AA
:104570006F2F0CBF08230A23002184F843106568BD
:10458000A560002DA2BF216821F0040121600EB9B1
:10459000002D4BD01546B6FBF3F103FB1167C75D49
:1045A00005F8017D3746BB420E46F4D9082B0BD1E6
:1045B0002368DE0708D5236961689942DEBF30238E
:1045C00005F8013C05F1FF35521B2261CDF800A032
:1045D0004B4603AA21464046FFF7E4FE01304AD18C
:1045E0004FF0FF3004B0BDE8F087236843F02003AC
:1045F00023603348782784F84570236829681F06AC
:1046000051F8046B02D45F0648BFB6B2DF0748BF5B
:1046100043F02003296048BF23601EB9236823F0BC
:10462000200323601023A7E72448E4E71546BDE7ED
:104630002B6826686169181D286035061B6801D53E
:10464000196002E07006FBD519800023236115462E
:10465000BCE72B681A1D2A601D6862680021284685
:10466000FBF7B6FD08B1401B60606368236100235F
:1046700084F84330AAE723692A4649464046D04792
:104680000130ADD023689B0713D4E068039B9842A8
:10469000B8BF1846A6E70123324649464046D047F0
:1046A00001309DD00135E36803995B1AAB42F2DC1F
:1046B000EBE7002504F11906F5E700BF6E6B000873
:1046C0007F6B0008002310B50446C0E90033C0E941
:1046D0000433836081814366C28183611946082265
:1046E0005C3000F014F90D4B63620D4BA3620D4B6F
:1046F000E3620D4B23630D4B24629C4206D003F111
:104700006802944202D0D0339C4205D104F1580093
:10471000BDE8104000F078B910BD00BF894800081E
:10472000AB480008E348000807490008B002002031
:10473000024A0349034800F069B800BF0C0000209A
:10474000B96300081800002041680C4B994210B56D
:10475000044601D001F030FEA168094B994202D015
:10476000204601F029FEE168064B994204D020461C
:10477000BDE8104001F020BE10BD00BFB002002017
:10478000180300208003002010B50B4B0B4C0C4A83
:104790001A60204600220421FFF794FF04F168000C
:1047A00001220921FFF78EFF04F1D0000222BDE8AB
:1047B00010401221FFF786BFE8030020B00200205E
:1047C00031470008014800F020B900BFF103002084
:1047D000014800F01BB900BFF103002010B50446EA
:1047E000FFF7F0FF236A1BB1BDE81040FFF7F0BFF1
:1047F000044B2362044B1B68002BF5D1FFF7C4FF69
:10480000F2E700BF49470008E80300202DE9F8431C
:104810000746884614460026D4E90195B9F10109F6
:1048200005D52468002CF7D13046BDE8F883AB8964
:10483000012B07D9B5F90E30013303D0294638468C
:10484000C04706436835E9E70EB400B59CB01DAB20
:10485000029006906FF000410948079104910949C0
:1048600053F8042B05910068019302A901F020FC84
:10487000029B00221A701CB05DF804EB03B0704775
:10488000640000200802FFFF10B50C46B1F90E10BD
:1048900000F06CF80028ABBF636DA3891B1823F4EC
:1048A0008053ACBF6365A38110BD2DE9F0411F4665
:1048B0008B89DB0505460C46164605D5B1F90E1069
:1048C0000223002200F040F8A389B4F90E1023F46B
:1048D0008053A38132463B462846BDE8F04100F0B4
:1048E00057B810B50C46B1F90E1000F02DF8431C66
:1048F000A38915BF606523F4805343F48053A381DB
:1049000018BFA38110BDB1F90E1000F00DB802441C
:104910000346934200D1704703F8011BF9E70000FA
:10492000004870475801002038B5064D0023044662
:1049300008462B60FDF739F8431C02D12B6803B100
:10494000236038BDEC03002038B5074D0446084607
:10495000114600222A601A46FDF74EF8431C02D188
:104960002B6803B1236038BDEC03002038B5074D38
:1049700004460846114600222A601A46FCF7DCFF6E
:10498000431C02D12B6803B1236038BDEC03002027
:1049900038B5074D04460846114600222A601A46DB
:1049A000FCF7E7FF431C02D12B6803B1236038BD3D
:1049B000EC030020014B1868704700BF6400002022
:1049C00070B50D4D0D4C641BA4100026A64209D1F4
:1049D0000B4D0C4C02F094F8641BA4100026A64268
:1049E00005D170BD55F8043B98470136EEE755F800
:1049F000043B98470136F2E7D46E0008D46E0008F5
:104A0000D46E0008D86E00087047704770472DE9D3
:104A1000F74F03690C69A34207467EDB013C01F1B5
:104A2000140800F1140505EB8403019358F82430B1
:104A300055F8242001339A424FEA840B08EB84098D
:104A4000B2FBF3F631D34FF0000E4046AC46F246CF
:104A500050F8042B93B206FB03E34FEA124E1A0CF4
:104A60009BB2AAEB0303DCF800A013FA8AF306FB5F
:104A70000E220093009B4FEA124E92B2C2EB1A42F2
:104A800002EB2342BDF80030814543EA02434CF873
:104A9000043B4FEA224ADBD255F80B302BB9019B7D
:104AA000043B9D421A462CD33C61384601F0A6F9DE
:104AB000002822DB01362946002058F8042BD1F8C3
:104AC00000C093B2C31A120C13FA8CF3C2EB1C424F
:104AD00002EB23429BB243EA0243C14541F8043B47
:104AE0004FEA2240E9D255F8242005EB840322B98D
:104AF000043B9D421A460AD33C61304603B0BDE8F0
:104B0000F08F1268043B002ACED1013CC9E712683D
:104B1000043B002AF0D1013CEBE70020EEE7000067
:104B20002DE9F04F2DED048BC56993B08DED020B8F
:104B300057EC106BDDF88080079104460A920D93C4
:104B400075B9102000F02AFE0246E06120B9AE4B94
:104B5000EF21AE4801F090FCC0E901550560C56049
:104B6000E369196851B15A684A60012393408B6028
:104B7000204600F007FFE36900221A603B1EBBBF1E
:104B800023F00043039300230122ACBFC8F8003098
:104B9000C8F800209E4BDDF80C8033EA08031BD1D7
:104BA0000D9A42F20F731360C8F31303334300F0FE
:104BB0009385219B63B9974B27E0974B009308336C
:104BC000219A1360009813B0BDEC048BBDE8F08F00
:104BD000904B00930333F3E79DED027B002251ECF1
:104BE000170BB0EE478AF0EE678A0023FBF76CFFE5
:104BF000814660B10D9A01231360219B002B00F0C8
:104C00006885864B219A1360013B0093DAE710AA6E
:104C100011A92046B0EE480AF0EE680A01F094F9B6
:104C2000C8F30A558246002D7FD018EE903AC3F3A0
:104C3000130343F07F5351EC180B43F44013A5F2D8
:104C4000FF35CDF8389019460022754BFBF71CFB59
:104C500067A3D3E90023FBF7CFFC67A3D3E90023C5
:104C6000FBF714FB064628460F46FBF75BFC64A3E4
:104C7000D3E90023FBF7C0FC02460B463046394619
:104C8000FBF704FB06460F46FBF766FF0022834650
:104C9000002330463946FBF721FF48B15846FBF761
:104CA00041FC32463B46FBF70FFF08B90BF1FF3BD7
:104CB000BBF1160F57D85B4B03EBCB03D3E90023B3
:104CC00051EC180BFBF70AFF00284ED00BF1FF3B0D
:104CD00000230C93109B5B1B5A1E45BFC3F10103BD
:104CE000059300230023069254BF05930693BBF15E
:104CF000000F3CDB069BCDF82CB05B4406930023F1
:104D00000893079B092B68D8052BC4BF043B079366
:104D1000079BA3F10203CCBF00250125032B00F262
:104D20008580DFE803F02E3B3958DDE910531D4440
:104D300005F23243202BC1BFC3F1400308FA03F848
:104D400005F2124326FA03F3D6BFC3F1200348EA63
:104D5000030006FA03F0FBF7D5FB0122A1F1F8737B
:104D6000013D0E926FE70123B3E70C90B2E7059B7C
:104D7000A3EB0B030593CBF10003089300230B93E4
:104D8000BFE7002309930A9B002B52DC0123019308
:104D900004931A460A920BE00123F3E700230993D8
:104DA0000A9B5B4401930133012B0493B8BF012399
:104DB000E0690021042202F114069E423DD94160BF
:104DC000204600F09FFD0090002839D1164B024686
:104DD00040F2AF11BDE60123E1E70125002307936F
:104DE00009954FF0FF330193049300221223D1E77A
:104DF00061436F63A787D23FB3C8608B288AC63FE1
:104E0000FB799F501344D33F9D6B0008B46B00089F
:104E10000000F07F996B0008906B00086D6B000834
:104E20000000F83FA06C00080C6C000801230993F7
:104E3000D7E70A9B01930493BAE701315200BAE71E
:104E4000E369009A1A60049B0E2B00F2A880002DE3
:104E500000F0A580BBF1000F38DDC04B0BF00F0256
:104E600003EBC2031BF4807FD3E900674FEA2B18E2
:104E700019D0BB4B51EC180BD3E90823FBF7E6FC28
:104E8000CDE9020108F00F080325DFF8D492B8F14C
:104E9000000F0AD1DDE9020132463B46FBF7D6FCA2
:104EA000CDE902012BE00225EFE718F0010F08D051
:104EB00030463946D9E90023FBF79EFB013506460B
:104EC0000F464FEA680809F10809E0E700F09F8003
:104ED000CBF10006A14BA24F06F00F0203EBC20379
:104EE000D3E9002351EC180BFBF786FBCDE9020157
:104EF000361100230225002E7ED1002BD0D10C9B31
:104F0000DDE90289002B00F08480964B00224046A8
:104F10004946FBF7E3FD00287BD0049B002B78D0AB
:104F2000019B002B39DD904B002240464946FBF7A0
:104F300063FBCDE90201019E0BF1FF370135DDE98D
:104F400002892846FBF7EEFA42464B46FBF754FB34
:104F5000864B0022FBF79AF9A1F15073CDE90201CB
:104F60000393002E58D1824B002240464946FBF75E
:104F70008BF9DDE9022380468946FBF7CDFD002849
:104F800040F09682DDE90221404601F100434946A6
:104F9000FBF7A4FD002840F089828DED028B119B68
:104FA000002BC0F24E81BBF10E0F00F34A816B4B18
:104FB00003EBCB03D3E900890A9B002B80F2DC8052
:104FC000049B002B00F3D88040F06F82684B0022D6
:104FD00040464946FBF710FBDDE90223FBF792FD53
:104FE000049E3746002840F04582009D312305F895
:104FF000013B0BF1010B41E2F20705D5D7E9002394
:10500000FBF7FAFA013501237610083773E702251A
:1050100075E7049E5F4692E70099504B9DED027B39
:10502000314402910999B0EE479AF0EE679A03EB8A
:10503000C60353E90223002944D04E490020FBF760
:1050400005FC53EC192BFBF71FF9009D41EC190BE4
:1050500049464046FBF780FD0646FBF763FA0246E9
:105060000B4640464946FBF70FF9303605F8016B11
:1050700053EC192B80468946FBF730FD002864D19C
:1050800042464B4637490020FBF7FEF853EC192BFC
:10509000FBF724FD002840F0B680029B9D423FF4C0
:1050A0007CAF314B51EC190B0022FBF7A5FA2E4BCC
:1050B00041EC190B002240464946FBF79DFA804619
:1050C0008946C5E751EC170BFBF796FA029B009D4A
:1050D0000F9341EC190B49464046FBF73DFD064650
:1050E000FBF720FA303602460B4640464946FBF7AE
:1050F000CBF805F8016B029B9D42804689464FF034
:10510000000224D11B4B51EC190BFBF7BFF80246F0
:105110000B4640464946FBF7FFFC002873D153EC91
:10512000192B14490020FBF7AFF802460B46404606
:105130004946FBF7D3FC00283FF42FAF0F9D6B1EB1
:105140000F9315F8013C302BF8D0BB464AE0064BD4
:10515000FBF752FA80468946BDE700BFA06C000805
:10516000786C00080000F03F0000244000001C4064
:10517000000014400000E03FDDE90267009D424668
:105180004B4630463946FBF761FBFBF7E5FC0190E7
:10519000FBF7C8F942464B46FBF72EFA02460B4690
:1051A00030463946FBF770F8019E049F303605F80B
:1051B000016B009EAE1BB74202460B4634D1FBF793
:1051C00065F842464B4606460F46FBF7A5FCC8B9B4
:1051D00042464B4630463946FBF776FC10B1019B00
:1051E000DB070FD45146204600F0CCFB00230D9A7C
:1051F0002B700BF101031360219B002B3FF4E2ACF9
:105200001D60DFE45F462B461D4613F8012D392A49
:1052100006D1009A9A42F7D10099302201370A70DC
:105220001A7801321A7090E7A34B0022FBF7E4F9D9
:105230000022002306460F46FBF746FC00289ED0BE
:10524000D0E7099A002A00F0CA80079A012A00F3E1
:10525000AD800E9A002A00F0A58003F23343089E29
:10526000059D059A1A440592069A01211A44204682
:10527000069200F03DFC074665B1069B002B09DD58
:10528000AB42059AA8BF2B46D21A0592069AED1A90
:10529000D31A0693089BF3B1099B002B00F0A3805F
:1052A000002E10DD39463246204600F0E1FC524621
:1052B00001460746204600F031FC51468046204614
:1052C00000F060FBC246089B9A1B04D05146204662
:1052D00000F0CEFC82460121204600F009FC0B9B29
:1052E000002B064640F381801A460146204600F016
:1052F000BFFC079B012B06467ADD4FF0000833699F
:1053000006EB8303186900F0A5FBC0F12000069BA3
:10531000184410F01F0000F09480C0F12003042B0B
:1053200040F38580059BC0F11C0003440593069B58
:10533000034405440693059B002B05DD51461A46A0
:10534000204600F0EFFC8246069B002B05DD31462F
:105350001A46204600F0E6FC06460C9B002B72D055
:105360003146504600F04AFD00286CDA00235146D1
:105370000A22204600F028FB099B0BF1FF3B8246E6
:10538000002B00F0B081002339460A22204600F0AD
:105390001BFB019B002B074600F39680079B022B0B
:1053A00059DC91E0109BC3F1360358E7049B5E1E65
:1053B000089BB342BFBF089B0B9A0896F31AB4BF71
:1053C000D2189E1B049BBCBF0B920026002BB7BFBC
:1053D000DDE90423DDE904359D1A002341E7089E39
:1053E000059D099F48E7089A70E7079B012B19DC88
:1053F000029BBBB9039BC3F313039BB9039B23F02D
:1054000000431B0D1B0583B1059B01330593069BD0
:10541000013306934FF001080B9B002B7FF46FAF15
:10542000012074E74FF00008F6E79846F4E782D0D1
:10543000059A1C331A440592069A1A441D44069292
:1054400079E70346F4E7049B002B37DC079B022B2C
:1054500034DD049B0193019B63B93146052220464C
:1054600000F0B2FA01460646504600F0C7FC00289C
:105470003FF7BBAD0A9B009D6FEA030B4FF000089E
:105480003146204600F07EFA002F3FF4ABAEB8F173
:10549000000F05D0B84503D04146204600F072FA0F
:1054A0003946204600F06EFA9CE600263746E1E7D2
:1054B000BB46374699E500BF00002440099B002BFE
:1054C00000F0C880049B0193002D05DD39462A4673
:1054D000204600F027FC0746B8F1000F5BD0796842
:1054E000204600F00FFA054628B9834B024640F2E9
:1054F000EF21FFF72EBB3A690232920007F10C014F
:105500000C3000F0ABFF01222946204600F00AFCD7
:10551000009B01330493DDE9002313440893029BAD
:1055200003F00103B84606930746049B3146013B4E
:1055300050460193FFF76BFA4146029000F13009A3
:10554000504600F05BFC3A4605903146204600F09C
:1055500071FCC268054602BB0146504600F04EFC95
:10556000024629462046099200F00CFA079B099A48
:10557000049D43EA0201069B194310D1B9F1390F8A
:1055800029D0059B002B02DD029B03F13109019B11
:1055900083F8009074E73846BAE70122E1E7059BFB
:1055A000002B04DB07990B4306990B4320D1002AFB
:1055B000EDDD51460122204600F0B4FB3146824623
:1055C00000F01CFC002803DCE1D119F0010FDED053
:1055D000B9F1390FD8D1019A392313702B461D46E2
:1055E000013B15F8012C392A6CD001321A7047E7BB
:1055F000002A07DDB9F1390FEDD0019A09F1010355
:1056000013703DE7049B089A03F8019C934243D032
:10561000514600230A22204600F0D6F9B8458246BA
:105620004FF000034FF00A024146204607D100F038
:10563000CBF980460746049B0133049375E700F0DD
:10564000C3F93946804600230A22204600F0BCF9FF
:105650000746F0E7049B0193009D31465046FFF753
:10566000D6F900F13009009B05F8019BEA1A019B6D
:10567000934207DD514600230A22204600F0A4F998
:105680008246EAE7019B002BC8BF1D46009BD8BF9E
:1056900001251D444FF0000851460122204600F02C
:1056A00041FB3146824600F0A9FB002896DC02D17E
:1056B00019F0010F92D12B461D4613F8012D302A07
:1056C000FAD0DDE6009A9A4289D10BF1010B312321
:1056D00096E70A4BFFF799BA219B002B7FF46DAA3E
:1056E000074BFFF792BA019B002BB5DC079B022BFF
:1056F0003FF7B1AEB0E700BF0C6C00086C6B000860
:10570000906B000837B5002944D051F8043C019053
:10571000002BA1F10404B8BFE41800F0E7F81E4A1A
:105720000198136833B96360146003B0BDE830407A
:1057300000F0E2B8A34208D9256861198B4201BF85
:1057400019685B6849192160EDE71A465B680BB17F
:10575000A342FAD911685518A5420BD124682144F7
:105760005418A3421160E0D11C685B6853600C447C
:105770001460DAE702D90C230360D6E725686119C3
:105780008B4204BF19685B68636004BF49192160DC
:105790005460CAE703B030BDF4030020024B014659
:1057A000186800F023B800BF6400002070B50E4EEA
:1057B0000C463168054611B900F040FE30602146C4
:1057C000284600F03BFE431C0AD0C41C24F003040E
:1057D000A04207D0211A284600F030FE013001D146
:1057E0004FF0FF34204670BDF80300202DE9F84348
:1057F000CD1C25F0030508350C2D38BF0C25002DD8
:10580000074601DBA94205D90C233B600026304640
:10581000BDE8F883DFF8D08000F068F8D8F80030F1
:105820001C465CBB29463846FFF7C0FF431C0446B4
:1058300055D1D8F800402646002E45D1002C48D03E
:1058400023683146384604EB030900F0F7FD814533
:105850003FD121686D1A29463846FFF7A7FF01306E
:1058600037D023682B442360D8F80030002B38D081
:105870005A68A2422BD100225A600FE02268521BC4
:105880001FD40B2A17D96119A342256018BF59608C
:10589000636808BFC8F8001062514B60384604F1D5
:1058A0000B0600F029F826F00706231DF21AAED0E9
:1058B0009B1BA350ABE7A3426268DDD1C8F8002070
:1058C000ECE723466468ACE734467668B4E71346F1
:1058D000CCE70C233B60384600F00EF897E72560D4
:1058E000DCE75B60FFDE00BFF40300200148FFF748
:1058F0008CB800BFF00300200148FFF787B800BF55
:10590000F003002070B5C66904460D4676B9102034
:10591000FFF744FF0246E06120B9184B18486B219D
:1059200000F0AAFDC0E901660660C660E669F3689A
:1059300083B1E369DB6853F82500B8B9012101FAA6
:1059400005F6721D9200204600F0B4FD60B1C0E97A
:1059500001560EE021220421204600F0ABFDE36950
:10596000F060DB68002BE4D1002070BD026843F8D2
:1059700025200023C0E90333F7E700BF9D6B000833
:105980001D6C000870B5C66905460C4676B9102036
:10599000FFF704FF0246E86120B9094B09488F214F
:1059A00000F06AFDC0E901660660C6603CB1EB69C3
:1059B0006268DB6853F82210216043F8224070BD12
:1059C0009D6B00081D6C00082DE9F0410D6907462C
:1059D0000C461E4601F1140C0020DCF8003099B290
:1059E00002FB01611E0C0B0C02FB063389B2013075
:1059F00001EB034185424CF8041B4FEA1346ECDCF3
:105A00000EB3A368AB4219DC616838460131FFF779
:105A100079FF804628B902460C4B0D48BA2100F0A8
:105A20002BFD2269023204F10C0192000C3000F0CF
:105A300015FD21463846FFF7A5FF444604EB8503D4
:105A400001355E6125612046BDE8F0810C6C0008DF
:105A50001D6C0008030C1B04D3B90004102310F0C4
:105A60007F4F04BF0002083310F0704F04BF0001E5
:105A7000043310F0404F04BF80000233002805DBE0
:105A800010F0804F03F1010308BF20231846704730
:105A90000023E4E7036813F007020CD0D90722D4EF
:105AA0009A0749BF5B089B08036001225CBF036043
:105AB00002221046704799B209B91B0C1022D9B2C4
:105AC00009B908321B0A190704BF1B0904329907D8
:105AD00004BF9B080232D90703D45B0802F101021C
