:020000040800F2
:1000000000000220652B00084D2900085329000834
:10001000592900085F290008652900080000000030
:100020000000000000000000000000006B29000834
:100030007929000800000000872900089529000898
:10004000B52B0008B52B0008B52B0008B52B000810
:10005000B52B0008B52B0008B52B0008B52B000800
:10006000B52B0008B52B0008B52B0008B52B0008F0
:10007000B52B0008B52B0008B52B0008B52B0008E0
:10008000B52B0008B52B0008B52B0008B52B0008D0
:10009000B52B0008B52B0008B52B0008B52B0008C0
:1000A000B52B0008B52B0008B52B0008B52B0008B0
:1000B000B52B0008A1290008B52B0008B52B0008B6
:1000C000B52B0008B52B0008B52B0008B52B000890
:1000D000B52B0008B52B0008B52B0008B52B000880
:1000E000B52B0008B52B0008B52B0008B52B000870
:1000F000B52B0008B52B0008B52B0008B52B000860
:10010000B52B0008B52B0008B52B0008B52B00084F
:10011000B52B0008B52B0008B52B0008B52B00083F
:10012000B52B0008B52B0008B52B0008B52B00082F
:10013000B52B0008B52B0008B52B0008B52B00081F
:10014000B52B0008B52B0008B52B0008B52B00080F
:10015000B52B0008B52B0008B52B0008B52B0008FF
:10016000B52B0008B52B0008B52B0008B52B0008EF
:10017000B52B0008B52B0008B52B000800000000C7
:08018000B52B0008B52B0008A7
:1001900010B5054C237833B9044B13B10448AFF3C1
:1001A00000800123237010BDE80100200000000042
:1001B0003C9E000808B5034B1BB103490348AFF34D
:1001C000008008BD00000000EC0100203C9E0008FB
:1001D00001F0FF01102A2BDB10F0070F08D010F8F8
:1001E000013B013A8B422DD010F0070F42B3F6D1FC
:1001F000F0B441EA012141EA014122F007047FF015
:1002000000070023F0E80256083C85EA010586EA6B
:10021000010685FA47F5A3FA87F586FA47F6A5FAA7
:1002200087F68EB9EED1F0BC01F0FF0102F00702B3
:1002300032B110F8013B013A83EA010313B1F8D15E
:100240000020704701387047002D06BF354603383F
:10025000073815F0010F07D1013015F4807F02BF78
:10026000013015F4C03F0130F0BC0138704700BFC9
:10027000034613F8012B002AFBD1181A01387047E6
:1002800081F0004102E000BF83F0004330B54FEA47
:1002900041044FEA430594EA050F08BF90EA020FB4
:1002A0001FBF54EA000C55EA020C7FEA645C7FEA47
:1002B000655C00F0E2804FEA5454D4EB5555B8BF6A
:1002C0006D420CDD2C4480EA020281EA030382EADB
:1002D000000083EA010180EA020281EA0303362D6D
:1002E00088BF30BD11F0004F4FEA01314FF4801C40
:1002F0004CEA113102D0404261EB410113F0004F52
:100300004FEA03334CEA133302D0524263EB430308
:1003100094EA050F00F0A780A4F10104D5F1200EA6
:100320000DDB02FA0EFC22FA05F2801841F1000101
:1003300003FA0EF2801843FA05F359410EE0A5F1D5
:1003400020050EF1200E012A03FA0EFC28BF4CF006
:10035000020C43FA05F3C01851EBE37101F00045BC
:1003600007D54FF0000EDCF1000C7EEB00006EEBC9
:100370000101B1F5801F1BD3B1F5001F0CD3490853
:100380005FEA30004FEA3C0C04F101044FEA4452AA
:1003900012F5800F80F09A80BCF1004F08BF5FEA31
:1003A000500C50F1000041EB045141EA050130BD11
:1003B0005FEA4C0C404141EB0101013C28BFB1F523
:1003C000801FE9D291F0000F04BF01460020B1FA6E
:1003D00081F308BF2033A3F10B03B3F120020CDA41
:1003E0000C3208DD02F1140CC2F10C0201FA0CF01F
:1003F00021FA02F10CE002F11402D8BFC2F1200C84
:1004000001FA02F120FA0CFCDCBF41EA0C01904039
:10041000E41AA2BF01EB0451294330BD6FEA040482
:100420001F3C1CDA0C340EDC04F11404C4F120026D
:1004300020FA04F001FA02F340EA030021FA04F37F
:1004400045EA030130BDC4F10C04C4F1200220FAD6
:1004500002F001FA04F340EA0300294630BD21FA14
:1004600004F0294630BD94F0000F83F4801306BFDA
:1004700081F480110134013D4EE77FEA645C18BFCE
:100480007FEA655C29D094EA050F08BF90EA020F65
:1004900005D054EA000C04BF1946104630BD91EA5D
:1004A000030F1EBF0021002030BD5FEA545C05D160
:1004B0004000494128BF41F0004130BD14F580049F
:1004C0003CBF01F5801130BD01F0004545F0FE4113
:1004D00041F470014FF0000030BD7FEA645C1ABF48
:1004E000194610467FEA655C1CBF0B46024650EA7F
:1004F000013406BF52EA033591EA030F41F40021AB
:1005000030BD00BF90F0000F04BF0021704730B530
:100510004FF4806404F132044FF000054FF0000105
:1005200050E700BF90F0000F04BF0021704730B5C6
:100530004FF4806404F1320410F0004548BF40429B
:100540004FF000013EE700BF42004FEAE2014FEAF0
:1005500031014FEA02701FBF12F07F4393F07F4FCB
:1005600081F06051704732F07F4208BF704793F0CE
:100570007F4F04BF41F40021704730B54FF46074E1
:1005800001F0004521F000411CE700BF50EA0102E4
:1005900008BF704730B54FF000050AE050EA01028D
:1005A00008BF704730B511F0004502D5404261EBFD
:1005B00041014FF4806404F132045FEA915C3FF43E
:1005C000D8AE4FF003025FEADC0C18BF03325FEADB
:1005D000DC0C18BF033202EBDC02C2F1200300FA8C
:1005E00003FC20FA02F001FA03FE40EA0E0021FAB1
:1005F00002F11444BDE600BF70B54FF0FF0C4CF49F
:10060000E06C1CEA11541DBF1CEA135594EA0C0F50
:1006100095EA0C0F00F0DEF82C4481EA030621EA8B
:100620004C5123EA4C5350EA013518BF52EA0335C6
:1006300041F4801143F4801338D0A0FB02CE4FF078
:100640000005E1FB02E506F00042E0FB03E54FF0A8
:100650000006E1FB03569CF0000F18BF4EF0010EA0
:10066000A4F1FF04B6F5007F64F5407404D25FEA9C
:100670004E0E6D4146EB060642EAC62141EA55514F
:100680004FEAC52040EA5E504FEACE2EB4F1FD0C91
:1006900088BFBCF5E06F1ED8BEF1004F08BF5FEA0F
:1006A000500E50F1000041EB045170BD06F00046C1
:1006B00046EA010140EA020081EA0301B4EB5C046E
:1006C000C2BFD4EB0C0541EA045170BD41F4801166
:1006D0004FF0000E013C00F3AB8014F1360FDEBF8B
:1006E000002001F0004170BDC4F10004203C35DA67
:1006F0000C341BDC04F11404C4F1200500FA05F3EA
:1007000020FA04F001FA05F240EA020001F000428A
:1007100021F0004110EBD37021FA04F642EB060100
:100720005EEA430E08BF20EAD37070BDC4F10C042A
:10073000C4F1200500FA04F320FA05F001FA04F2EE
:1007400040EA020001F0004110EBD37041F10001DA
:100750005EEA430E08BF20EAD37070BDC4F12005E5
:1007600000FA05F24EEA020E20FA04F301FA05F24D
:1007700043EA020321FA04F001F0004121FA04F2F5
:1007800020EA020000EBD3705EEA430E08BF20EAC5
:10079000D37070BD94F0000F0FD101F000464000FF
:1007A00041EB010111F4801F08BF013CF7D041EA81
:1007B000060195F0000F18BF704703F00046520085
:1007C00043EB030313F4801F08BF013DF7D043EA56
:1007D0000603704794EA0C0F0CEA135518BF95EA0C
:1007E0000C0F0CD050EA410618BF52EA4306D1D193
:1007F00081EA030101F000414FF0000070BD50EAB2
:10080000410606BF1046194652EA430619D094EA3B
:100810000C0F02D150EA013613D195EA0C0F05D125
:1008200052EA03361CBF104619460AD181EA030179
:1008300001F0004141F0FE4141F470014FF0000031
:1008400070BD41F0FE4141F4780170BD70B54FF0CC
:10085000FF0C4CF4E06C1CEA11541DBF1CEA13554C
:1008600094EA0C0F95EA0C0F00F0A7F8A4EB05042E
:1008700081EA030E52EA03354FEA013100F0888025
:100880004FEA03334FF0805545EA131343EA1263EE
:100890004FEA022245EA111545EA10654FEA0026A3
:1008A0000EF000419D4208BF964244F1FD0404F55C
:1008B000407402D25B084FEA3202B61A65EB0305B8
:1008C0005B084FEA32024FF480104FF4002CB6EB75
:1008D000020E75EB030E22BFB61A754640EA0C00F5
:1008E0005B084FEA3202B6EB020E75EB030E22BF35
:1008F000B61A754640EA5C005B084FEA3202B6EB76
:10090000020E75EB030E22BFB61A754640EA9C0034
:100910005B084FEA3202B6EB020E75EB030E22BF04
:10092000B61A754640EADC0055EA060E18D04FEAC2
:10093000051545EA16754FEA06164FEAC30343EA62
:1009400052734FEAC2025FEA1C1CC0D111F4801F2F
:100950000BD141EA00014FF000004FF0004CB6E728
:1009600011F4801F04BF01430020B4F1FD0C88BFC7
:10097000BCF5E06F3FF6AFAEB5EB030C04BFB6EBD2
:10098000020C5FEA500C50F1000041EB045170BDC5
:100990000EF0004E4EEA113114EB5C04C2BFD4EBF2
:1009A0000C0541EA045170BD41F480114FF0000E76
:1009B000013C90E645EA060E8DE60CEA135594EAF2
:1009C0000C0F08BF95EA0C0F3FF43BAF94EA0C0FF5
:1009D0000AD150EA01347FF434AF95EA0C0F7FF46A
:1009E00025AF104619462CE795EA0C0F06D152EABE
:1009F00003353FF4FDAE1046194622E750EA4106A2
:100A000018BF52EA43067FF4C5AE50EA41047FF4B2
:100A10000DAF52EA43057FF4EBAE12E74FF0FF3C17
:100A200006E000BF4FF0010C02E000BF4FF0010CE8
:100A30004DF804CD4FEA410C7FEA6C5C4FEA430C61
:100A400018BF7FEA6C5C1BD001B050EA410C0CBFB0
:100A500052EA430C91EA030F02BF90EA020F002012
:100A6000704710F1000F91EA030F58BF994208BF79
:100A700090422CBFD8176FEAE37040F00100704736
:100A80004FEA410C7FEA6C5C02D150EA013C07D18D
:100A90004FEA430C7FEA6C5CD6D152EA033CD3D0D8
:100AA0005DF8040B704700BF8446104662468C46D2
:100AB0001946634600E000BF01B5FFF7B7FF002805
:100AC00048BF10F1000F01BD4DF808EDFFF7F4FF2E
:100AD0000CBF012000205DF808FB00BF4DF808EDB9
:100AE000FFF7EAFF34BF012000205DF808FB00BFDC
:100AF0004DF808EDFFF7E0FF94BF012000205DF8FE
:100B000008FB00BF4DF808EDFFF7CEFF94BF0120B2
:100B100000205DF808FB00BF4DF808EDFFF7C4FFAB
:100B200034BF012000205DF808FB00BF4FEA410CF4
:100B30007FEA6C5C02D150EA013C0AD14FEA430CD7
:100B40007FEA6C5C02D152EA033C02D14FF0000014
:100B500070474FF0010070474FEA410212F5001252
:100B600015D211D56FF47873B3EB625212D94FEAF4
:100B7000C12343F0004343EA505311F0004F23FADE
:100B800002F018BF404270474FF00000704750EA33
:100B9000013005D111F0004008BF6FF000407047F0
:100BA0004FF00000704700BF4FEA4102B2F1E0434E
:100BB00024BFB3F5001CDCF1FE5C0DD901F0004C44
:100BC0004FEAC0024CEA5070B2F1004F40EB830094
:100BD00008BF20F00100704711F0804F21D113F1C0
:100BE0003872BCBF01F00040704741F480114FEAF9
:100BF0005252C2F11802C2F1200C10FA0CF320FA82
:100C000002F018BF40F001004FEAC1234FEAD3239E
:100C100003FA0CFC40EA0C0023FA02F34FEA430308
:100C2000CCE77FEA625307D150EA01331EBF4FF091
:100C3000FE4040F44000704701F0004040F0FE40AC
:100C400040F40000704700BF53B94AB9002908BFFB
:100C500000281CBF4FF0FF314FF0FF3000F070B99B
:100C6000ADF1080C6DE904CE00F006F8DDF804E003
:100C7000DDE9022304B070472DE9F047089E0D46D8
:100C800004460F46002B4AD18A42944665D9B2FAEF
:100C900082F343B102FA03FCC3F120029F4020FA21
:100CA00002F217439C404FEA1C4E1FFA8CF5B7FB2B
:100CB000FEF1220C0EFB117742EA074201FB05F020
:100CC00090420AD91CEB020201F1FF3780F01C812F
:100CD000904240F2198102396244121AA4B2B2FB66
:100CE000FEF00EFB102244EA024400FB05F5A5428B
:100CF0000AD91CEB040400F1FF3280F00781A54201
:100D000040F204816444023840EA0140641B00213F
:100D10001EB1DC400023C6E90043BDE8F0878B42EA
:100D200008D9002E00F0ED800021C6E90005084634
:100D3000BDE8F087B3FA83F1002949D1AB4202D371
:100D4000824200F2F880841A65EB03020120174604
:100D5000002EE2D0C6E90047DFE702B9FFDEB2FAB3
:100D600082F3002B40F090808A1A4FEA1C471FFA4A
:100D70008CFE0121B2FBF7F507FB1520220C42EA9D
:100D800000420EFB05F0904208D91CEB020205F16F
:100D9000FF3802D2904200F2CB804546121AA4B22C
:100DA000B2FBF7F007FB102244EA02440EFB00FE00
:100DB000A64508D91CEB040400F1FF3202D2A64577
:100DC00000F2BB801046A4EB0E0440EA05409FE70A
:100DD000C1F120078B4022FA07FC4CEA030C05FA0C
:100DE00001F420FA07F3FD404FEA1C492343B5FB09
:100DF000F9F81FFA8CFE09FB18551C0C44EA05444F
:100E000008FB0EF5A54202FA01F200FA01F00BD937
:100E10001CEB040408F1FF3A80F08880A54240F200
:100E20008580A8F102086444641B9DB2B4FBF9F309
:100E300009FB134445EA044403FB0EFEA64508D90A
:100E40001CEB040403F1FF356CD2A6456AD9023BC2
:100E5000644443EA0843A3FB0295A4EB0E04AC42AE
:100E6000C846AE4656D353D056B1B0EB080264EB39
:100E70000E0404FA07F7CA40CC401743C6E90074D1
:100E800018460021BDE8F087C3F1200102FA03FCF7
:100E900020FA01F225FA01F19D402A434FEA1C474E
:100EA0001FFA8CFEB1FBF7F007FB1015110C41EA9D
:100EB000054100FB0EF58D4204FA03F408D91CEB42
:100EC000010100F1FF382FD28D422DD90238614443
:100ED000491B92B2B1FBF7F507FB151142EA01423B
:100EE00005FB0EF1914208D91CEB020205F1FF3817
:100EF00016D2914214D9023D6244521A45EA004189
:100F000038E73146304608E73946E6E61046FBE664
:100F10004845A9D2B9EB020865EB0C0E013BA3E7EB
:100F20004546EAE72B4694E74046D1E7D0467BE7C3
:100F3000023D624432E708460AE76444023842E769
:100F4000704700BF80B584B000AF0A2001F0A6FE54
:100F50000021002000F07DFF094B1B681846FFF7B9
:100F6000F3FA02460B46381D064906F04DF93B1DC3
:100F7000184600F0C7FF00BF1037BD4680BD00BF58
:100F800014020020589E000880B584B000AF0921EB
:100F9000002000F05EFF094B1B681846FFF7D4FAEB
:100FA00002460B46381D064906F02EF93B1D184631
:100FB00000F0A8FF00BF1037BD4680BD1C02002016
:100FC000649E000880B483B000AF0346FB80094BE9
:100FD0001B6800225A6200BF064B1B685A6AFB88D6
:100FE0009A42F9D300BF00BF0C37BD465DF8047BC1
:100FF000704700BFB003002080B586B000AF00236B
:10100000FB753B4600221A605A609A60DA601A61EA
:1010100020233B6001237B600023FB600023BB6037
:101020003B4619462A4802F0D1F9002220212848DF
:1010300002F080FB142001F031FE0122202124481F
:1010400002F078FB1E20FFF7BDFF00237B60012329
:10105000BB603B4619461E4802F0B8F92820FFF74E
:10106000B1FF20211A4802F04DFB0346002B0BD1A3
:101070005020FFF7A7FF2021154802F043FB03464D
:10108000002B01D00123FB7501F0FCFD0346114A42
:10109000136001F0F7FD03460F4A136004E001F00E
:1010A000F1FD03460C4A13602021094802F02AFB97
:1010B0000346002B06D0074B1B689A1C064B1B6887
:1010C0009A42ECD8FB7D18461837BD4680BD00BF5C
:1010D000000002400C0200201002002080B582B007
:1010E00000AF0023FB7163E001F0CCFD0346344AFE
:1010F000136001F0C7FD0346324A136004E001F0BB
:10110000C1FD03462F4A136020212F4802F0FAFA4E
:101110000346002B06D12A4B1B689A1C294B1B68DF
:101120009A42ECD82820FFF74DFF2021264802F0F4
:10113000E9FA0346002B0ED1FB79C3F10703012224
:1011400002FA03F35BB2DB435AB297F9063013405D
:101150005BB2BB710BE0FB79C3F10703012202FA1A
:1011600003F35AB297F9063013435BB2BB7101F037
:1011700089FD0346124A136001F084FD0346114ABB
:10118000136004E001F07EFD03460E4A1360202147
:101190000D4802F0B7FA0346002B06D0084B1B6837
:1011A0009A1C084B1B689A42ECD8FB790133FB71FF
:1011B000FB79072B98D9BB7918460837BD4680BD07
:1011C0000C020020100200200000024080B52DED2E
:1011D000028B00AFFFF710FF0346002B7AD0FFF71A
:1011E0007DFF03461A463E4B1A70FFF777FF034612
:1011F0001A463C4B1A70FFF771FF03461A463A4BEA
:101200001A70FFF76BFF03461A46384B1A70FFF748
:1012100065FF03461A46364B1A70354B1B78194644
:101220002F4B1B781A462F4B1B7813442E4A1278EB
:1012300013442E4A1278134499424BD12A4B1B78FF
:1012400007EE903AB8EE678A284B1B781846FFF7EE
:1012500069F94FF00002274BFFF7F8FA02460B46F8
:1012600010461946FFF7A0FC07EE900A78EE277AA1
:10127000214BC3ED007A204BD3ED007AB2EE027A17
:1012800027EE877AF1EE046AC7EE267A9FED1B7A85
:1012900077EE877A1A4BC3ED007A114B1B7807EE75
:1012A000903AB8EE678A0F4B1B781846FFF73AF969
:1012B0004FF000020F4BFFF7C9FA02460B461046EB
:1012C0001946FFF771FC07EE900A78EE277A0D4B6E
:1012D000C3ED007A00BFBD46BDEC028B80BD00BFF0
:1012E0000402002005020020060200200702002060
:1012F00008020020000024401402002000000042E8
:10130000180200201C02002080B582B002AF1B4BE7
:101310001B681846FFF718F902460B46184919488A
:1013200005F072FF642300930C23164A0821164827
:1013300002F078FB14220021124805F0F6FF642029
:1013400001F0ACFC114B1B681846FFF7FDF8024694
:101350000B460F490B4805F057FF642300930C23FD
:10136000084A0821084802F05DFB142200210548C4
:1013700005F0DBFF00BFBD4680BD00BF14020020AA
:101380006C9E0008200200205C0300201C0200204C
:10139000789E000880B483B000AF78607B680F4A05
:1013A00082FB03129210DB17D31ADBB21B01D8B2F7
:1013B0007A680A4B83FB02139910D317C91A0B469C
:1013C0009B000B445B00D11ACBB20344DBB218463E
:1013D0000C37BD465DF8047B704700BF67666666E4
:1013E00080B483B000AF0346FB71FB791B09DBB20D
:1013F0001A4613469B0013445B001A46FB7903F020
:101400000F03134418460C37BD465DF8047B704744
:1014100080B586B004AF4FF47A730293072301932B
:101420003B46009301230022D0211F4802F0FCFD1F
:101430003B781846FFF7D4FF0346DAB21B4B1A700D
:101440007B781846FFF7CCFF0346DAB2174B5A7089
:10145000BB781846FFF7C4FF0346DAB2134B9A7005
:10146000FB781846FFF7BCFF0346DAB20F4BDA7081
:101470003B791846FFF7B4FF0346DAB20B4B1A71FB
:101480007B791846FFF7ACFF0346DAB2074B5A7177
:10149000BB791846FFF7A4FF0346DAB2034B9A71F3
:1014A00000BF0837BD4680BD08030020540200205D
:1014B00080B588B004AF0346FB71FB791846FFF78F
:1014C00069FF0346FB734FF47A7302930123019380
:1014D00007F10F03009301230022D021034802F0FB
:1014E000A9FC00BF1037BD4680BD00BF0803002027
:1014F00080B588B004AF0346FB71FB791846FFF74F
:1015000049FF0346FB734FF47A730293012301935F
:1015100007F10F03009301230122D021034802F0B9
:1015200089FC00BF1037BD4680BD00BF0803002006
:1015300080B588B004AF0346FB71FB791846FFF70E
:1015400029FF0346FB734FF47A730293012301933F
:1015500007F10F03009301230222D021034802F078
:1015600069FC00BF1037BD4680BD00BF08030020E6
:1015700080B588B004AF0346FB71FB791846FFF7CE
:1015800009FF0346FB734FF47A730293012301931F
:1015900007F10F03009301230422D021034802F036
:1015A00049FC00BF1037BD4680BD00BF08030020C6
:1015B00080B588B004AF0346FB71FB791846FFF78E
:1015C000E9FE0346FB734FF47A7302930123019300
:1015D00007F10F03009301230522D021034802F0F5
:1015E00029FC00BF1037BD4680BD00BF08030020A6
:1015F00080B582B002AFFFF70BFF144B9B781A4601
:10160000124B5B781249134805F0FEFD00210120C2
:1016100000F01FFC0F4800F075FC0C4B1B791A46BC
:101620000A4B5B791946094B9B7900930B460A4993
:10163000084805F0E9FD0621012000F00AFC0548F4
:1016400000F060FC00BFBD4680BD00BF540200201A
:10165000849E000834020020909E000880B588B067
:1016600000AFF860B9601346FB7100F0EBFB0A2095
:1016700001F014FB0021002000F0EBFB07F1100348
:10168000FA681249184605F0BFFD07F11003184625
:1016900000F038FC00233B740021012000F0D9FB4E
:1016A00007F11003184600F02DFCFB7907F110003C
:1016B000BA68074905F0A8FD07F11003184600F0C5
:1016C00021FC00BF2037BD4680BD00BFA49E00089E
:1016D000B09E000880B500AFAE4B1B68052B00F232
:1016E000C08101A252F823F0011700083117000849
:1016F0009317000841180008EF180008BD190008EA
:1017000000F0C6FB00F0C4F9A34800F0FBFB4FF467
:10171000FA6001F0C3FA00F095FB9E4B01221A60BB
:10172000642000F01FFF4FF47A7000F02FFFA3E158
:101730009A4B1B68012B10D14FF4FA7000F012FF86
:1017400000F080FB0A2001F0A9FAFFF73FFDFFF748
:101750001BFCFFF7F7FBFFF74BFF914B1B68012BBF
:1017600005D14FF47A7000F011FFFFF7CDFD002096
:1017700000F0CCF90346002B00F07581854B022266
:101780001A60642000F002FF864B9A78864B1A702C
:1017900069E1854B1B781A4684490220FFF75EFFFA
:1017A0007F4B1B68012B07D1642000F0EFFE4FF444
:1017B00000517F4801F0D7FF012000F0A7F9034650
:1017C000002B13D0784B1B780133DAB2764B1A70AA
:1017D000754B1B78172B02D9734B00221A70724B72
:1017E0001B781A4671490220FFF738FF022000F0EB
:1017F0008DF90346002B11D06B4B1B781846FFF771
:1018000097FE0020FFF754FE624B01221A6064200D
:1018100000F0A8FE4FF47A7000F0B8FE002000F04F
:1018200075F90346002B00F020815A4B03221A6001
:10183000642000F0ABFE5B4B5A785B4B1A7014E1EE
:10184000594B1B781A465B490320FFF707FF544B9F
:101850001B68012B07D1642000F098FE4FF4005163
:10186000534801F080FF012000F050F90346002B9F
:1018700013D04D4B1B780133DAB24B4B1A704A4BE5
:101880001B783C2B02D9484B00221A70464B1B7820
:101890001A4648490320FFF7E1FE022000F036F91E
:1018A0000346002B11D0404B1B781846FFF720FE53
:1018B0000020FFF7FDFD374B01221A60642000F085
:1018C00051FE4FF47A7000F061FE002000F01EF926
:1018D0000346002B00F0CB802E4B04221A606420BC
:1018E00000F054FE2F4B1A792F4B1A70BFE02E4B8D
:1018F0001B781A4630490420FFF7B0FE284B1B68BE
:10190000012B07D1642000F041FE4FF4005128481C
:1019100001F029FF012000F0F9F80346002B13D055
:10192000214B1B780133DAB21F4B1A701E4B1B7808
:101930001F2B02D91C4B01221A701B4B1B781A4615
:101940001D490420FFF78AFE022000F0DFF803465D
:10195000002B0ED0144B1B781846FFF709FE0D4BD9
:1019600001221A60642000F0FDFD4FF47A7000F04F
:101970000DFE002000F0CAF80346002B79D0054B7D
:1019800005221A60642000F001FE064B5A79064BCE
:101990001A706EE088040020B89E000890040020B1
:1019A00098040020540200205B020020C89E00081A
:1019B000000C0240D09E0008D89E00082F4B1B78D8
:1019C0001A462F490520FFF749FE2E4B1B68012BB5
:1019D00007D1642000F0DAFD4FF400512A4801F0ED
:1019E000C2FE012000F092F80346002B13D0234BD7
:1019F0001B780133DAB2214B1A70204B1B780C2B69
:101A000002D91E4B01221A701C4B1B781A461C4926
:101A10000520FFF723FE022000F078F80346002B94
:101A20000ED0164B1B781846FFF7C2FD174B01224C
:101A30001A60642000F096FD4FF47A7000F0A6FD65
:101A4000002000F063F80346002B14D00F4B012256
:101A50001A60642000F086FD4FF47A7000F096FD65
:101A600009E000BF08E000BF06E000BF04E000BFDF
:101A700002E000BF00E000BF00BF80BD5B020020AD
:101A8000E89E000898040020000C02408804002012
:101A900080B483B000AF00237B6020E0154A7B68F0
:101AA000012142F82310144A7B68012142F82310D7
:101AB000124A7B68012142F82310114A7B680121F8
:101AC00042F823100F4A7B68C82142F823100E4ABF
:101AD0007B68002142F823107B6801337B607B68C0
:101AE000022BDBDD00BF00BF0C37BD465DF8047B79
:101AF000704700BF7802002084020020900200207E
:101B00009C020020A8020020B402002080B483B010
:101B100000AF7860094A7B6852F82330012B06D168
:101B2000064A7B68002142F82310012300E00023CD
:101B300018460C37BD465DF8047B7047B4020020A0
:101B400080B483B000AF7860054A7B68012142F819
:101B5000231000BF0C37BD465DF8047B704700BF03
:101B6000B402002080B582B000AF00237B6076E035
:101B70003F4A7B6852F823203E497B6841F8232086
:101B80003D4A7B6852F8232039497B6841F823207D
:101B90003A4A7B6852F8232039497B6831F8133080
:101BA0001946104601F0AEFD03461946324A7B68DD
:101BB00042F823102F4A7B6852F823202C497B6877
:101BC00051F823309A4247D1294A7B6852F82320A2
:101BD00029497B6851F823309A423DD1294A7B68D4
:101BE00052F8232024497B6851F823309A4216D0BA
:101BF000214A7B6852F8232022497B6841F8232040
:101C00001D4A7B6852F82330002B25D17868FFF7F6
:101C100097FF1D4A7B68C82142F823101CE01A4A2E
:101C20007B6852F823305A1E17497B6841F82320FD
:101C3000154A7B6852F82330002B0DDC0E4A7B6876
:101C400052F82330002B02D17868FFF779FF0E4A53
:101C50007B68C82142F823107B6801337B607B6876
:101C6000022B85DD00BF00BF0837BD4680BD00BF29
:101C7000840200207802002090020020080000204A
:101C8000000000209C020020A802002080B586B041
:101C900002AF642319223549354801F0C1FF334BA7
:101CA0001B78002B58D0314B1B78622B1DD12F4B4A
:101CB0005B78742B19D12D4B9B786E2B15D12B4B48
:101CC000DB78312B02D10020FFF73AFF274BDB787E
:101CD000322B02D10120FFF733FF244BDB78332B6B
:101CE0003AD10220FFF72CFF36E0204B1B78722BF5
:101CF00032D11E4B5B78672B2ED11C4B9B78622B0D
:101D00002AD100237B6007F1080107F10C023B1D7B
:101D100000930B461749154805F096FAFB68DAB2AE
:101D2000154B1A70BB68DAB2144B1A707B68DAB2C2
:101D3000134B1A70104B1B78104A1178104A127806
:101D4000184600F0F5F80C4B00221A700B4B0022DD
:101D50001A700B4B00221A7019220021034805F05B
:101D6000E4FA00BF1037BD4680BD00BF5C02002012
:101D70005C030020F09E00088C0400208D040020ED
:101D80008E04002080B586B002AF0346FB71FB795C
:101D900023F00F03FB73FB791B01BB73FB7B43F049
:101DA0000C03DBB23B72FB7B43F00803DBB27B72BC
:101DB000BB7B43F00C03DBB2BB72BB7B43F008037D
:101DC000DBB2FB7207F108026423009304234E2167
:101DD000034801F027FE00BF1037BD4680BD00BF9D
:101DE0000803002080B586B002AF0346FB71FB7983
:101DF00023F00F03FB73FB791B01BB73FB7B43F0E9
:101E00000D03DBB23B72FB7B43F00903DBB27B7259
:101E1000BB7B43F00D03DBB2BB72BB7B43F009031A
:101E2000DBB2FB7207F108026423009304234E2106
:101E3000034801F0F7FD00BF1037BD4680BD00BF6D
:101E40000803002080B500AF0120FFF79BFF00BF13
:101E500080BD80B582B000AF786039607B68002BB0
:101E600003D07B68012B05D009E03B6843F0800379
:101E70003B6004E03B6843F0C0033B6000BF3B684D
:101E8000DBB21846FFF77EFF00BF0837BD4680BDB6
:101E900080B500AF322000F001FF3020FFF772FF65
:101EA000052000F0FBFE3020FFF76CFF012000F062
:101EB000F5FE3020FFF766FF0A2000F0EFFE20203D
:101EC000FFF760FF0A2000F0E9FE2820FFF75AFF25
:101ED000012000F0E3FE0820FFF754FF012000F08E
:101EE000DDFE0120FFF74EFF022000F0D7FE0620A6
:101EF000FFF748FF012000F0D1FE0C20FFF742FF62
:101F000000BF80BD80B582B000AF786006E07B681E
:101F10005A1C7A601B781846FFF764FF7B681B78B1
:101F2000002BF4D100BF00BF0837BD4680BD0000C4
:101F300080B483B000AF0346FB710B46BB71134600
:101F40007B71094B1B68FA795A63074B1B68BA7996
:101F50009A63054B1B687A79DA6300BF0C37BD467C
:101F60005DF8047B704700BF4004002080B500AFDF
:101F700000F022FE00F038F800F072FA00F0EEF8FF
:101F800000F048F900F098F800F090F900F014F92A
:101F900000F0DAF9104803F0C7FB0F4803F02CFCFF
:101FA0000E4803F029FC00210D4803F0EFFC04214A
:101FB0000B4803F0EBFC0821094803F0E7FC094B50
:101FC00000221A60FFF786FBFFF760FE4FF4FA70FD
:101FD00000F064FEF6E700BFB0030020F803002025
:101FE000400400208804002080B594B000AF07F1C1
:101FF000200330220021184605F097F907F10C0361
:1020000000221A605A609A60DA601A610023BB608D
:10201000274B1B6C264A43F080531364244B1B6CE4
:1020200003F08053BB60BB6800237B60214B1B68BF
:10203000204A43F4804313601E4B1B6803F4804323
:102040007B607B6801233B624FF480337B62022319
:10205000BB634FF48003FB6304233B6450237B6426
:102060000223BB640423FB6407F12003184602F03B
:1020700087FE0346002B01D000F06EFA0F23FB60B1
:1020800002233B6180237B610023BB610023FB6152
:1020900007F10C030121184603F0EAF80346002B70
:1020A00001D000F059FA00BF5037BD4680BD00BFD7
:1020B000003802400070004080B584B000AF3B465D
:1020C00000221A605A609A60DA60214B214A1A6035
:1020D0001F4B00225A601E4B00229A601C4B0022AC
:1020E0001A611B4B01221A76194B002283F820201B
:1020F000174B0022DA62164B174A9A62144B0022E1
:10210000DA60134B0122DA61114B002283F8302090
:102110000F4B01225A610E4800F0E4FD0346002BEC
:1021200001D000F019FA09233B6001237B600123F1
:10213000BB603B461946064800F018FE0346002BDC
:1021400001D000F009FA00BF1037BD4680BD00BFC6
:10215000C0020020002001400100000F80B500AF48
:10216000124B134A1A60114B124A5A600F4B00224D
:102170009A600E4B0022DA600C4B4FF480421A61D9
:102180000A4B00225A61094B00229A61074B002238
:10219000DA61064B00221A62044801F0FFFA034696
:1021A000002B01D000F0D8F900BF80BD080300204B
:1021B00000540040A086010080B500AF124B134AC6
:1021C0001A60114B124A5A600F4B00229A600E4B54
:1021D0000022DA600C4B4FF480421A610A4B002255
:1021E0005A61094B00229A61074B0022DA61064BC3
:1021F00000221A62044801F0D1FA0346002B01D0F4
:1022000000F0AAF900BF80BD5C0300200058004028
:10221000A086010080B586B000AF07F10803002258
:102220001A605A609A60DA603B4600221A605A606F
:102230001D4B4FF080421A601B4B27225A601A4BED
:1022400000229A60184B4FF6FE72DA60164B00229D
:102250001A61154B00229A61134803F015FA0346E0
:10226000002B01D000F078F94FF48053BB6007F1E8
:10227000080319460C4803F003FE0346002B01D067
:1022800000F06AF900233B6000237B603B4619465F
:10229000054804F001FA0346002B01D000F05CF978
:1022A00000BF1837BD4680BDB003002080B586B0A2
:1022B00000AF07F1080300221A605A609A60DA60E2
:1022C0003B4600221A605A601D4B1E4A1A601C4B86
:1022D00027225A601A4B00229A60194B42F20F7261
:1022E000DA60174B00221A61154B00229A611448DC
:1022F00003F0CAF90346002B01D000F02DF94FF48A
:102300008053BB6007F1080319460D4803F0B8FD80
:102310000346002B01D000F01FF900233B6000238F
:102320007B603B461946064804F0B6F90346002B8D
:1023300001D000F011F900BF1837BD4680BD00BFC5
:10234000F80300200004004080B58EB000AF07F114
:10235000280300221A605A609A60DA6007F12003AD
:1023600000221A605A603B1D00221A605A609A606F
:10237000DA601A615A619A61374B384A1A60364BF3
:1023800027225A60344B00229A60334BFF22DA60D6
:10239000314B00221A61304B00229A612E4803F023
:1023A00073F90346002B01D000F0D6F84FF48053A8
:1023B000BB6207F128031946274803F061FD034675
:1023C000002B01D000F0C8F8234803F085FA03463B
:1023D000002B01D000F0C0F800233B6200237B6299
:1023E00007F1200319461C4804F056F90346002B58
:1023F00001D000F0B1F860237B600023BB600023B4
:10240000FB6000237B613B1D00221946124803F04C
:1024100075FC0346002B01D000F09EF83B1D042202
:1024200019460D4803F06AFC0346002B01D000F06A
:1024300093F83B1D08221946074803F05FFC03464A
:10244000002B01D000F088F8034800F045FA00BFE7
:102450003837BD4680BD00BF40040020000C00405E
:1024600080B58AB000AF07F1140300221A605A60E9
:102470009A60DA601A6100233B612E4B1B6B2D4A78
:1024800043F0800313632B4B1B6B03F080033B6112
:102490003B690023FB60274B1B6B264A43F001037B
:1024A0001363244B1B6B03F00103FB60FB680023E9
:1024B000BB60204B1B6B1F4A43F0020313631D4B91
:1024C0001B6B03F00203BB60BB6800237B60194BEE
:1024D0001B6B184A43F008031363164B1B6B03F086
:1024E00008037B607B6800224FF40051124801F022
:1024F00021F94FF400537B610123BB610023FB6191
:1025000000233B6207F1140319460B4800F05EFFFD
:102510004FF4E0637B610023BB610123FB6107F1A2
:1025200014031946054800F051FF00BF2837BD4687
:1025300080BD00BF00380240000C02400000024095
:1025400080B582B000AF786000F034F8FFF70AFB86
:1025500000BF0837BD4680BD80B400AF72B600BF73
:10256000FEE7000080B483B000AF7860054A7B6866
:102570001360054B00221A6000BF0C37BD465DF8A2
:10258000047B7047940400209004002080B483B042
:1025900000AF7860054A7B681360054B00221A6023
:1025A00000BF0C37BD465DF8047B70479C040020DB
:1025B0009804002080B400AF224B1B68002B0BDD79
:1025C000204B1B68013B1F4A13601E4B1B68002BEE
:1025D00002DC1D4B01221A601C4B1B68002B0BDD1B
:1025E0001A4B1B68013B194A1360184B1B68002BE0
:1025F00002DC174B01221A60164B1B68002B0BDD07
:10260000144B1B68013B134A1360124B1B68002BD1
:1026100002DC114B01221A60104B1B68002B0BDDF2
:102620000E4B1B68013B0D4A13600C4B1B68002BC3
:1026300002DC0B4B01221A6000BFBD465DF8047B33
:10264000704700BF94040020900400209C040020E8
:1026500098040020A4040020A0040020AC04002062
:10266000A804002080B483B000AF00237B60104B2F
:102670005B6C0F4A43F4804353640D4B5B6C03F473
:1026800080437B607B6800233B60094B1B6C084ADE
:1026900043F080531364064B1B6C03F080533B6084
:1026A0003B6800BF0C37BD465DF8047B704700BF38
:1026B0000038024080B58AB000AF786007F114039B
:1026C00000221A605A609A60DA601A617B681B689F
:1026D000174A934227D100233B61164B5B6C154A86
:1026E00043F480735364134B5B6C03F480733B615E
:1026F0003B690023FB600F4B1B6B0E4A43F0020348
:1027000013630C4B1B6B03F00203FB60FB6802239B
:102710007B610323BB610023FB6107F114031946AE
:10272000054800F053FE00BF2837BD4680BD00BFFE
:1027300000200140003802400004024080B58CB007
:1027400000AF786007F11C0300221A605A609A609B
:10275000DA601A617B681B68324A93422CD10023ED
:10276000BB61314B1B6B304A43F0020313632E4BAA
:102770001B6B03F00203BB61BB69C023FB61122327
:102780003B6200237B620323BB620423FB6207F1ED
:102790001C031946254800F019FE00237B61224BDB
:1027A0001B6C214A43F4001313641F4B1B6C03F48E
:1027B00000137B617B6931E07B681B681C4A934294
:1027C0002CD100233B61184B1B6B174A43F00203CB
:1027D0001363154B1B6B03F002033B613B694FF422
:1027E0004063FB6112233B6200237B620323BB62D5
:1027F0000423FB6207F11C0319460C4800F0E6FDB8
:102800000023FB60084B1B6C074A43F480031364EE
:10281000054B1B6C03F48003FB60FB6800BF303783
:10282000BD4680BD00540040003802400004024014
:102830000058004080B586B000AF78607B681B68A8
:10284000B3F1804F0ED100237B61204B1B6C1F4ADC
:1028500043F0010313641D4B1B6C03F001037B6108
:102860007B692EE07B681B68194A934216D10023CE
:102870003B61164B1B6C154A43F002031364134B68
:102880001B6C03F002033B613B69002200211D2009
:1028900000F065FD1D2000F07EFD12E07B681B68E6
:1028A0000C4A93420DD10023FB60084B1B6C074A76
:1028B00043F008031364054B1B6C03F00803FB6033
:1028C000FB6800BF1837BD4680BD00BF003802401E
:1028D00000040040000C004080B588B000AF786074
:1028E00007F10C0300221A605A609A60DA601A61DC
:1028F0007B681B68124A93421DD10023BB60114BB9
:102900001B6B104A43F0010313630E4B1B6B03F068
:102910000103BB60BB680723FB6002233B6100230C
:102920007B610023BB610223FB6107F10C031946A5
:10293000054800F04BFD00BF2037BD4680BD00BFFD
:10294000000C0040003802400000024080B400AF9C
:10295000FEE780B400AFFEE780B400AFFEE780B4CE
:1029600000AFFEE780B400AFFEE780B400AF00BF69
:10297000BD465DF8047B704780B400AF00BFBD4624
:102980005DF8047B704780B400AF00BFBD465DF8C2
:10299000047B704780B500AF00F060F900BF80BDD8
:1029A00080B500AF024803F0B9F800BF80BD00BF9A
:1029B000F803002080B400AF01231846BD465DF83F
:1029C000047B704780B582B000AF7860396004F056
:1029D000FFFC034616221A604FF0FF3318460837F3
:1029E000BD4680BD80B582B000AF78604FF0FF314A
:1029F0007868FFF7E7FFFEE780B586B000AFF860C4
:102A0000B9607A6000237B610AE0AFF30080014681
:102A1000BB685A1CBA60CAB21A707B6901337B6109
:102A20007A697B689A42F0DB7B6818461837BD46A6
:102A300080BD80B586B000AFF860B9607A600023D1
:102A40007B6109E0BB685A1CBA601B781846AFF37B
:102A500000807B6901337B617A697B689A42F1DB94
:102A60007B6818461837BD4680BD80B483B000AF80
:102A700078604FF0FF3318460C37BD465DF8047B95
:102A8000704780B483B000AF786039603B684FF422
:102A900000525A60002318460C37BD465DF8047B8F
:102AA000704780B483B000AF7860012318460C37BC
:102AB000BD465DF8047B704780B485B000AFF86018
:102AC000B9607A60002318461437BD465DF8047B70
:102AD0007047000080B586B000AF7860144A154B8F
:102AE000D31A7B617B693B61134B1B68002B02D1BE
:102AF000114B124A1A60104B1A687B6813443A69EA
:102B00009A4207D204F064FC03460C221A604FF08C
:102B1000FF3309E0084B1B68FB60074B1A687B68B2
:102B20001344054A1360FB6818461837BD4680BD3C
:102B30000000022000040000B0040020080600206D
:102B400080B400AF064BD3F88830054A43F47003D5
:102B5000C2F8883000BFBD465DF8047B704700BFF7
:102B600000ED00E0DFF834D0FFF7EAFF0C480D4934
:102B70000D4A002302E0D458C4500433C4188C42D8
:102B8000F9D30A4A0A4C002301E013600432A2423E
:102B9000FBD304F023FCFFF7E9F9704700000220A3
:102BA00000000020E8010020C0A20008E801002089
:102BB00004060020FEE7000080B500AF0E4B1B6846
:102BC0000D4A43F4007313600B4B1B680A4A43F42D
:102BD00080631360084B1B68074A43F480731360DB
:102BE000032000F0B1FB0F2000F008F8FFF73AFDDA
:102BF0000023184680BD00BF003C024080B582B073
:102C000000AF7860124B1A68124B1B7819464FF4CC
:102C10007A73B3FBF1F3B2FBF3F3184600F0C9FB90
:102C20000346002B01D001230EE07B680F2B0AD84E
:102C3000002279684FF0FF3000F091FB064A7B6874
:102C40001360002300E0012318460837BD4680BD0D
:102C5000140000201C0000201800002080B400AFE9
:102C6000064B1B781A46064B1B681344044A136034
:102C700000BFBD465DF8047B704700BF1C0000200C
:102C8000B404002080B400AF034B1B681846BD4657
:102C90005DF8047B704700BFB404002080B584B0A9
:102CA00000AF7860FFF7EEFFB8607B68FB60FB6801
:102CB000B3F1FF3F05D00A4B1B781A46FB6813445B
:102CC000FB6000BFFFF7DEFF0246BB68D31AFA685D
:102CD0009A42F7D800BF00BF1037BD4680BD00BF85
:102CE0001C00002080B584B000AF78600023FB7327
:102CF0007B68002B01D1012333E07B681B6C002B28
:102D000009D17868FFF7D6FC7B6800225A647B689B
:102D1000002283F83C207B681B6C03F01003002B1F
:102D200018D17B681B6C23F4885323F0020343F013
:102D300002027B681A64786800F03AF97B68002226
:102D40005A647B681B6C23F0030343F001027B6829
:102D50001A6401E00123FB737B68002283F83C20A6
:102D6000FB7B18461037BD4680BD000080B485B09F
:102D700000AF786039600023BB607B6893F83C301B
:102D8000012B01D1022305E17B68012283F83C205D
:102D90003B681B68092B25D97B681B68D9683B6891
:102DA0001B689BB21A4613465B0013441E3B072266
:102DB00002FA03F3DA437B681B680A40DA607B6837
:102DC0001B68D9683B689A683B681B689BB21846C9
:102DD00003465B0003441E3B9A407B681B680A4322
:102DE000DA6022E07B681B6819693B681B689BB24C
:102DF0001A4613465B001344072202FA03F3DA4330
:102E00007B681B680A401A617B681B6819693B680C
:102E10009A683B681B689BB2184603465B000344F4
:102E20009A407B681B680A431A613B685B68062B03
:102E300024D87B681B68596B3B685A6813469B0013
:102E40001344053B1F2202FA03F3DA437B681B6835
:102E50000A405A637B681B68596B3B681B689BB2CE
:102E600018463B685A6813469B001344053B00FA1A
:102E700003F27B681B680A435A634CE03B685B685B
:102E80000C2B24D87B681B68196B3B685A68134667
:102E90009B001344233B1F2202FA03F3DA437B68AF
:102EA0001B680A401A637B681B68196B3B681B68C8
:102EB0009BB218463B685A6813469B001344233B59
:102EC00000FA03F27B681B680A431A6323E07B68FD
:102ED0001B68D96A3B685A6813469B001344413B00
:102EE0001F2202FA03F3DA437B681B680A40DA62A6
:102EF0007B681B68D96A3B681B689BB218463B68B5
:102F00005A6813469B001344413B00FA03F27B6866
:102F10001B680A43DA62224BFB607B681B68214A0C
:102F2000934209D13B681B68122B05D1FB685B6893
:102F300043F48002FB685A607B681B68194A93421D
:102F400023D13B681B68102B03D03B681B68112BF7
:102F50001BD1FB685B6843F40002FB685A603B6866
:102F60001B68102B11D1104B1B68104AA2FB0323C6
:102F70009A0C13469B0013445B00BB6002E0BB68E5
:102F8000013BBB60BB68002BF9D17B68002283F852
:102F90003C20002318461437BD465DF8047B70477B
:102FA00000230140002001401400002083DE1B4369
:102FB00080B485B000AF7860794BFB60FB685B68DC
:102FC00023F44032FB685A60FB685A687B685B6890
:102FD0001A43FB685A607B681B685A687B681B68E9
:102FE00022F480725A607B681B6859687B681B6991
:102FF0001A027B681B680A435A607B681B685A6820
:103000007B681B6822F040725A607B681B685968B5
:103010007B689A687B681B680A435A607B681B68F8
:103020009A687B681B6822F400629A607B681B6860
:1030300099687B68DA687B681B680A439A607B68DA
:103040009B6A584A934222D07B681B689A687B68C7
:103050001B6822F070629A607B681B6899687B68C5
:103060009A6A7B681B680A439A607B681B689A6847
:103070007B681B6822F040529A607B681B689968E5
:103080007B68DA6A7B681B680A439A600FE07B689A
:103090001B689A687B681B6822F070629A607B6884
:1030A0001B689A687B681B6822F040529A607B68B4
:1030B0001B689A687B681B6822F002029A607B6832
:1030C0001B6899687B681B7E5A007B681B680A43F3
:1030D0009A607B6893F82030002B1BD07B681B68BC
:1030E0005A687B681B6842F400625A607B681B6800
:1030F0005A687B681B6822F460425A607B681B68D0
:1031000059687B685B6A013B5A037B681B680A430A
:103110005A6007E07B681B685A687B681B6822F46A
:1031200000625A607B681B68DA6A7B681B6822F45D
:103130007002DA627B681B68D96A7B68DB69013BD5
:103140001A057B681B680A43DA627B681B689A6809
:103150007B681B6822F400729A607B681B68996820
:103160007B6893F830305A027B681B680A439A6088
:103170007B681B689A687B681B6822F480629A608F
:103180007B681B6899687B685B699A027B681B682F
:103190000A439A6000BF1437BD465DF8047B704750
:1031A000002301400100000F80B485B000AF7860BB
:1031B0007B6803F00703FB600C4BDB68BB60BA68FD
:1031C0004FF6FF031340BB60FB681A02BB68134352
:1031D00043F0BF6343F40033BB60044ABB68D36071
:1031E00000BF1437BD465DF8047B704700ED00E07A
:1031F00080B400AF044BDB681B0A03F007031846DA
:10320000BD465DF8047B704700ED00E080B483B0FC
:1032100000AF0346FB7197F90730002B0BDBFB79FE
:1032200003F01F02074997F907305B09012000FAF4
:1032300002F241F8232000BF0C37BD465DF8047B45
:10324000704700BF00E100E080B483B000AF0346E8
:103250003960FB7197F90730002B0ADB3B68DAB263
:103260000C4997F907301201D2B20B4483F80023BE
:103270000AE03B68DAB20849FB7903F00F03043B2C
:103280001201D2B20B441A7600BF0C37BD465DF86E
:10329000047B704700E100E000ED00E080B489B0FD
:1032A00000AFF860B9607A60FB6803F00703FB6168
:1032B000FB69C3F10703042B28BF0423BB61FB692F
:1032C0000433062B02D9FB69033B00E000237B613A
:1032D0004FF0FF32BB6902FA03F3DA43BB681A40CE
:1032E0007B699A404FF0FF317B6901FA03F3D943C0
:1032F0007B680B40134318462437BD465DF8047BBA
:103300007047000080B582B000AF78607B68013BF9
:10331000B3F1807F01D301230FE00A4A7B68013BB0
:1033200053600F214FF0FF30FFF78EFF054B002257
:103330009A60044B07221A60002318460837BD46DE
:1033400080BD00BF10E000E080B582B000AF7860C3
:103350007868FFF729FF00BF0837BD4680BD80B5FC
:1033600086B000AF0346B9607A60FB7300237B61CF
:10337000FFF73EFF78617A68B9687869FFF78EFFDA
:10338000024697F90F3011461846FFF75DFF00BF60
:103390001837BD4680BD80B582B000AF0346FB71D3
:1033A00097F907301846FFF731FF00BF0837BD46D1
:1033B00080BD80B582B000AF78607868FFF7A2FF6B
:1033C000034618460837BD4680BD000080B489B06A
:1033D00000AF7860396000237B6100233B610023EC
:1033E000BB610023FB616BE10122FB6902FA03F37D
:1033F0007B613B681B687A6913403B613A697B6972
:103400009A4240F05A813B685B6803F00303012B4A
:1034100005D03B685B6803F00303022B30D17B6867
:103420009B68BB61FB695B00032202FA03F3DB4389
:10343000BA691340BB613B68DA68FB695B0002FA5A
:1034400003F3BA691343BB617B68BA699A607B680E
:103450005B68BB610122FB6902FA03F3DB43BA69D3
:103460001340BB613B685B681B0903F00102FB6909
:1034700002FA03F3BA691343BB617B68BA695A6005
:103480003B685B6803F00303032B17D07B68DB68A2
:10349000BB61FB695B00032202FA03F3DB43BA69F9
:1034A0001340BB613B689A68FB695B0002FA03F357
:1034B000BA691343BB617B68BA69DA603B685B68D1
:1034C00003F00303022B23D1FB69DA087B6808327F
:1034D00053F82230BB61FB6903F007039B000F2206
:1034E00002FA03F3DB43BA691340BB613B681A6914
:1034F000FB6903F007039B0002FA03F3BA69134365
:10350000BB61FB69DA087B680832B96943F82210AD
:103510007B681B68BB61FB695B00032202FA03F353
:10352000DB43BA691340BB613B685B6803F003028D
:10353000FB695B0002FA03F3BA691343BB617B6862
:10354000BA691A603B685B6803F44033002B00F0F3
:10355000B4800023FB60604B5B6C5F4A43F48043A4
:1035600053645D4B5B6C03F48043FB60FB685B4A18
:10357000FB699B08023352F82330BB61FB6903F0FF
:1035800003039B000F2202FA03F3DB43BA691340E3
:10359000BB617B68524A93422BD07B68514A93426D
:1035A00025D07B68504A93421FD07B684F4A934294
:1035B00019D07B684E4A934213D07B684D4A9342A0
:1035C0000DD07B684C4A934207D07B684B4A9342AC
:1035D00001D107230EE008230CE006230AE00523AF
:1035E00008E0042306E0032304E0022302E00123B1
:1035F00000E00023FA6902F0030292009340BA69E6
:103600001343BB613549FB699B080233BA6941F832
:1036100023203B4B9B68BB613B69DB43BA6913408A
:10362000BB613B685B6803F48013002B03D0BA696D
:103630003B691343BB61324ABB699360304BDB6823
:10364000BB613B69DB43BA691340BB613B685B68A4
:1036500003F40013002B03D0BA693B691343BB6129
:10366000274ABB69D360264B5B68BB613B69DB4380
:10367000BA691340BB613B685B6803F40033002BFD
:1036800003D0BA693B691343BB611D4ABB695360F0
:103690001B4B1B68BB613B69DB43BA691340BB61D1
:1036A0003B685B6803F48033002B03D0BA693B6945
:1036B0001343BB61124ABB691360FB690133FB61B1
:1036C000FB690F2B7FF690AE00BF00BF2437BD46CD
:1036D0005DF8047B704700BF0038024000380140AD
:1036E000000002400004024000080240000C0240BA
:1036F000001002400014024000180240001C02406A
:10370000003C014080B485B000AF78600B467B8000
:103710007B681A697B881340002B02D00123FB735E
:1037200001E00023FB73FB7B18461437BD465DF8B0
:10373000047B704780B483B000AF78600B467B8019
:1037400013467B707B78002B03D07A887B689A6164
:1037500003E07B881A047B689A6100BF0C37BD4682
:103760005DF8047B704780B485B000AF78600B468D
:103770007B807B685B69FB607A88FB6813401A0476
:10378000FB68D9437B880B401A437B689A6100BF72
:103790001437BD465DF8047B7047000080B584B0E7
:1037A00000AF78607B68002B01D101232BE17B689F
:1037B00093F83D30DBB2002B06D17B68002283F802
:1037C0003C207868FEF7BAFF7B68242283F83D200E
:1037D0007B681B681A687B681B6822F001021A600C
:1037E0007B681B681A687B681B6842F400421A6099
:1037F0007B681B681A687B681B6822F400421A60A9
:1038000001F02EFFF8607B685B68814A934207D81D
:10381000FB68804A934294BF01230023DBB206E099
:10382000FB687D4A934294BF01230023DBB2002B47
:1038300001D00123E7E0FB68784AA2FB03239B0C3D
:10384000BB607B681B685B6823F03F017B681B687B
:10385000BA680A435A607B681B681B6A23F03F0101
:103860007B685B686A4A934202D8BB68013309E00F
:10387000BB684FF4967202FB03F3694AA2FB032371
:103880009B0901337A6812680B4313627B681B68DB
:10389000DB6923F44F4222F0FF027B685B685C49DE
:1038A0008B4219D8FB68591E7B685B685B00B1FBD3
:1038B000F3F3591C40F6FC730B40002B0AD0FB6855
:1038C000591E7B685B685B00B1FBF3F30133C3F304
:1038D0000B0351E004234FE07B689B68002B11D160
:1038E000FB68581E7B6859680B465B000B44B0FBB5
:1038F000F3F30133C3F30B03002B0CBF01230023AD
:10390000DBB212E0FB68581E7B6859680B469B00CF
:103910000B4499000B44B0FBF3F30133C3F30B03E7
:10392000002B0CBF01230023DBB2002B01D00123AD
:1039300022E07B689B68002B0ED1FB68581E7B68D9
:1039400059680B465B000B44B0FBF3F30133C3F340
:103950000B0343F400430FE0FB68581E7B68596873
:103960000B469B000B4499000B44B0FBF3F301336F
:10397000C3F30B0343F44043796809681343CB61F5
:103980007B681B681B6823F0C0017B68DA697B6871
:103990001B6A1A437B681B680A431A607B681B68B2
:1039A0009B6823F4034323F0FF037A6811697A6864
:1039B000D26811437A6812680B4393607B681B6876
:1039C000DB6823F0FF017B685A697B689B691A43B7
:1039D0007B681B680A43DA607B681B681A687B682F
:1039E0001B6842F001021A607B6800221A647B683F
:1039F000202283F83D207B6800221A637B68002226
:103A000083F83E20002318461037BD4680BD00BF16
:103A1000A08601007F841E00FF083D0083DE1B435B
:103A2000D34D621080B588B002AFF8607A601A4654
:103A30000B467B8113463B81FFF724F97861FB68D5
:103A400093F83D30DBB2202B40F0E0807B6900939F
:103A5000192301227049F86800F018FF0346002B73
:103A600001D00223D3E0FB6893F83C30012B01D155
:103A70000223CCE0FB68012283F83C20FB681B6832
:103A80001B6803F00103012B07D0FB681B681A6851
:103A9000FB681B6842F001021A60FB681B681A6829
:103AA000FB681B6822F400621A60FB68212283F81D
:103AB0003D20FB68102283F83E20FB6800221A6438
:103AC000FB687A685A62FB683A895A85FB685B8DA5
:103AD0009AB2FB681A85FB68504ADA6279897B6979
:103AE0003A6AF86800F0D2FC0346002B01D00123AB
:103AF0008DE000233B61FB681B685B693B61FB68F1
:103B00001B689B693B613B6966E07A69396AF868C2
:103B100000F0D6FF0346002B0DD0FB681B6C042B76
:103B200007D1FB681B681A68FB681B6842F40072C7
:103B30001A6001236BE0FB685B6A1A78FB681B68FC
:103B40001A61FB685B6A5A1CFB685A62FB685B8DF2
:103B50009BB2013B9AB2FB685A85FB681B8D013B07
:103B60009AB2FB681A85FB681B685B6903F0040363
:103B7000042B1BD1FB681B8D002B17D0FB685B6AE5
:103B80001A78FB681B681A61FB685B6A5A1CFB6841
:103B90005A62FB685B8D9BB2013B9AB2FB685A8507
:103BA000FB681B8D013B9AB2FB681A857A69396AFA
:103BB000F86800F0CDFF0346002B0DD0FB681B6CAE
:103BC000042B07D1FB681B681A68FB681B6842F46A
:103BD00000721A6001231AE0FB681B8D002B94D140
:103BE000FB681B681A68FB681B6842F400721A6065
:103BF000FB68202283F83D20FB68002283F83E20EA
:103C0000FB68002283F83C20002300E002231846D2
:103C10001837BD4680BD00BF020010000000FFFF46
:103C200080B58AB002AFF860B9603B601346FB8094
:103C3000FFF728F8F861FB6893F83D30DBB2202BE2
:103C400040F0EE80BB68002B02D0FB88002B01D136
:103C50000123E6E0FB6893F83C30012B01D10223FD
:103C6000DFE0FB68012283F83C20FB681B681B68CF
:103C700003F00103012B07D0FB681B681A68FB687F
:103C80001B6842F001021A60FB681B681A68FB6837
:103C90001B6822F400621A60FB68222283F83D2030
:103CA000FB68202283F83E20FB6800221A64FB6830
:103CB000BA685A62FB68FA885A85FB685B8D9AB2CB
:103CC000FB681A85FB68594ADA62FB681B681A6848
:103CD000FB681B6842F480621A60FB6900933B68D2
:103CE00000225349F86800F0D1FD0346002B01D0B3
:103CF000012396E00023BB61FB681B685B69BB6125
:103D0000FB681B689B69BB61BB694EE0FA69396857
:103D1000F86800F0A9FF0346002B09D0FB681B6878
:103D20001A68FB681B6822F480621A60012378E03D
:103D3000FB681B681A69FB685B6AD2B21A70FB6881
:103D40005B6A5A1CFB685A62FB681B8D013B9AB286
:103D5000FB681A85FB685B8D9BB2013B9AB2FB68DE
:103D60005A85FB681B685B6903F00403042B1CD1B4
:103D7000FB681B8D002B18D0FB681B681A69FB6859
:103D80005B6AD2B21A70FB685B6A5A1CFB685A62A3
:103D9000FB681B8D013B9AB2FB681A85FB685B8D43
:103DA0009BB2013B9AB2FB685A85FB681B8D002BC6
:103DB000ACD1FA693968F86800F012FF0346002BAD
:103DC00009D0FB681B681A68FB681B6822F48062D4
:103DD0001A60012325E000237B61FB681B685B6997
:103DE0007B61FB681B681A68FB681B6842F0010274
:103DF0001A607B69FB681B681A68FB681B6822F401
:103E000080621A60FB68202283F83D20FB68002254
:103E100083F83E20FB68002283F83C20002300E06A
:103E2000022318462037BD4680BD00BF0000FFFFBB
:103E30000200010080B588B002AFF8600846114664
:103E40001A4603467B810B463B811346FB80FEF7F7
:103E500019FF7861FB6893F83D30DBB2202B40F00E
:103E6000D9807B690093192301226D49F86800F01D
:103E70000DFD0346002B01D00223CCE0FB6893F834
:103E80003C30012B01D10223C5E0FB68012283F8FD
:103E90003C20FB681B681B6803F00103012B07D063
:103EA000FB681B681A68FB681B6842F001021A6015
:103EB000FB681B681A68FB681B6822F400621A60C2
:103EC000FB68212283F83D20FB68402283F83E20D6
:103ED000FB6800221A64FB683A6A5A62FB68BA8C73
:103EE0005A85FB685B8D9AB2FB681A85FB684D4A60
:103EF000DA62F8883A8979897B690193BB6A009311
:103F00000346F86800F044FB0346002B52D001231F
:103F100081E07A69B96AF86800F0D2FD0346002BA7
:103F20000DD0FB681B6C042B07D1FB681B681A685B
:103F3000FB681B6842F400721A6001236BE0FB68A7
:103F40005B6A1A78FB681B681A61FB685B6A5A1C1B
:103F5000FB685A62FB681B8D013B9AB2FB681A85AD
:103F6000FB685B8D9BB2013B9AB2FB685A85FB688C
:103F70001B685B6903F00403042B1BD1FB681B8DDA
:103F8000002B17D0FB685B6A1A78FB681B681A6104
:103F9000FB685B6A5A1CFB685A62FB681B8D013B1D
:103FA0009AB2FB681A85FB685B8D9BB2013B9AB2A3
:103FB000FB685A85FB681B8D002BAAD17A69B96A08
:103FC000F86800F0C5FD0346002B0DD0FB681B6CA4
:103FD000042B07D1FB681B681A68FB681B6842F456
:103FE00000721A60012316E0FB681B681A68FB6800
:103FF0001B6842F400721A60FB68202283F83D209F
:10400000FB68002283F83E20FB68002283F83C20F6
:10401000002300E0022318461837BD4680BD00BFCC
:10402000020010000000FFFF80B58CB002AFF86006
:10403000084611461A4603467B810B463B811346D0
:10404000FB80FEF71FFE7862FB6893F83D30DBB221
:10405000202B40F014827B6A0093192301227B49B4
:10406000F86800F013FC0346002B01D0022307E29E
:10407000FB6893F83C30012B01D1022300E2FB687E
:10408000012283F83C20FB681B681B6803F00103D6
:10409000012B07D0FB681B681A68FB681B6842F09D
:1040A00001021A60FB681B681A68FB681B6822F42F
:1040B00000621A60FB68222283F83D20FB684022E0
:1040C00083F83E20FB6800221A64FB683A6B5A6250
:1040D000FB68BA8E5A85FB685B8D9AB2FB681A85BD
:1040E000FB685B4ADA62F8883A8979897B6A0193CE
:1040F000BB6B00930346F86800F0E0FA0346002B20
:1041000001D00123BCE1FB681B8D002B13D10023E0
:104110003B62FB681B685B693B62FB681B689B69D1
:104120003B623B6AFB681B681A68FB681B6842F4C9
:1041300000721A6090E1FB681B8D012B1BD1FB689C
:104140001B681A68FB681B6822F480621A600023EF
:10415000FB61FB681B685B69FB61FB681B689B6913
:10416000FB61FB69FB681B681A68FB681B6842F40B
:1041700000721A6070E1FB681B8D022B1BD1FB687B
:104180001B681A68FB681B6822F480621A60FB686F
:104190001B681A68FB681B6842F400621A600023FF
:1041A000BB61FB681B685B69BB61FB681B689B6943
:1041B000BB61BB6950E100237B61FB681B685B69E5
:1041C0007B61FB681B689B697B617B6944E1FB68E1
:1041D0001B8D032B00F2F180FB681B8D012B23D17B
:1041E0007A6AB96BF86800F03FFD0346002B01D0F6
:1041F000012345E1FB681B681A69FB685B6AD2B260
:104200001A70FB685B6A5A1CFB685A62FB681B8D5C
:10421000013B9AB2FB681A85FB685B8D9BB2013B40
:104220009AB2FB685A8517E1FB681B8D022B4ED1B1
:104230007B6A0093BB6B00220649F86800F026FBFE
:104240000346002B08D001231AE100BF0200100032
:104250000000FFFF04000100FB681B681A68FB6890
:104260001B6842F400721A60FB681B681A69FB68DD
:104270005B6AD2B21A70FB685B6A5A1CFB685A62AE
:10428000FB681B8D013B9AB2FB681A85FB685B8D4E
:104290009BB2013B9AB2FB685A85FB681B681A699E
:1042A000FB685B6AD2B21A70FB685B6A5A1CFB68D7
:1042B0005A62FB681B8D013B9AB2FB681A85FB684A
:1042C0005B8D9BB2013B9AB2FB685A85C4E07B6A66
:1042D0000093BB6B00226C49F86800F0D7FA0346E4
:1042E000002B01D00123CBE0FB681B681A68FB6838
:1042F0001B6822F480621A60FB681B681A69FB68FD
:104300005B6AD2B21A70FB685B6A5A1CFB685A621D
:10431000FB681B8D013B9AB2FB681A85FB685B8DBD
:104320009BB2013B9AB2FB685A857B6A0093BB6BD8
:1043300000225549F86800F0A9FA0346002B01D085
:1043400001239DE0FB681B681A68FB681B6842F448
:1043500000721A60FB681B681A69FB685B6AD2B25C
:104360001A70FB685B6A5A1CFB685A62FB681B8DFB
:10437000013B9AB2FB681A85FB685B8D9BB2013BDF
:104380009AB2FB685A85FB681B681A69FB685B6A0E
:10439000D2B21A70FB685B6A5A1CFB685A62FB68EF
:1043A0001B8D013B9AB2FB681A85FB685B8D9BB243
:1043B000013B9AB2FB685A854EE07A6AB96BF8689D
:1043C00000F052FC0346002B01D0012358E0FB68AB
:1043D0001B681A69FB685B6AD2B21A70FB685B6A79
:1043E0005A1CFB685A62FB681B8D013B9AB2FB6842
:1043F0001A85FB685B8D9BB2013B9AB2FB685A85BC
:10440000FB681B685B6903F00403042B24D1FB6881
:104410001B8D032B07D1FB681B681A68FB681B68A0
:1044200022F480621A60FB681B681A69FB685B6A89
:10443000D2B21A70FB685B6A5A1CFB685A62FB684E
:104440001B8D013B9AB2FB681A85FB685B8D9BB2A2
:10445000013B9AB2FB685A85FB681B8D002B7FF4E9
:10446000B6AEFB68202283F83D20FB68002283F86B
:104470003E20FB68002283F83C20002300E002235A
:1044800018462837BD4680BD0400010080B588B0BD
:1044900002AFF8607A603B600B467B81FB68DB6AA9
:1044A0007B617B69082B06D07B69012B03D07B697C
:1044B00013F5803F08D1FB681B681A68FB681B680E
:1044C00042F480721A600BE0FB681B6B122B07D161
:1044D000FB681B681A68FB681B6842F480721A60EC
:1044E0003B6800937B6800224FF00111F86800F0F0
:1044F000CDF90346002B0DD0FB681B681B6803F445
:104500008073B3F5807F03D1FB684FF400721A64A7
:10451000032335E0FB681B69B3F5804F08D17B8925
:10452000DBB21A46FB681B6802F0FE021A611BE050
:104530007B89DB11DBB203F00603DBB263F00F0310
:10454000DAB2FB681B681A613B687A680E49F86842
:1045500000F016FA0346002B01D0012310E07B89FE
:10456000DAB2FB681B681A613B687A680749F86829
:1045700000F006FA0346002B01D0012300E00023DF
:1045800018461837BD4680BD080001000200010032
:1045900080B588B002AFF860084611461A46034657
:1045A0007B810B463B811346FB80FB681B681A68C6
:1045B000FB681B6842F480721A607B6A00933B6A56
:1045C00000224FF00111F86800F060F90346002B5B
:1045D0000DD0FB681B681B6803F48073B3F5807F04
:1045E00003D1FB684FF400721A6403235FE07B89F8
:1045F000DBB21A46FB681B6802F0FE021A617B6A96
:104600003A6A2D49F86800F0BBF90346002B01D047
:1046100001234CE000237B61FB681B685B697B61C5
:10462000FB681B689B697B617B697A6A396AF868F9
:1046300000F046FA0346002B0DD0FB681B6C042BE0
:1046400007D1FB681B681A68FB681B6842F400729C
:104650001A6001232BE0FB88012B05D13B89DAB2DC
:10466000FB681B681A6121E03B891B0A9BB2DAB226
:10467000FB681B681A617A6A396AF86800F020FAE8
:104680000346002B0DD0FB681B6C042B07D1FB6885
:104690001B681A68FB681B6842F400721A600123E9
:1046A00005E03B89DAB2FB681B681A6100231846F3
:1046B0001837BD4680BD00BF0200010080B588B03C
:1046C00002AFF860084611461A4603467B810B4646
:1046D0003B811346FB80FB681B681A68FB681B68FC
:1046E00042F480621A60FB681B681A68FB681B68EA
:1046F00042F480721A607B6A00933B6A00224FF09A
:104700000111F86800F0C2F80346002B0DD0FB68D9
:104710001B681B6803F48073B3F5807F03D1FB68CB
:104720004FF400721A640323AAE07B89DBB21A46B5
:10473000FB681B6802F0FE021A617B6A3A6A524902
:10474000F86800F01DF90346002B01D0012397E023
:1047500000237B61FB681B685B697B61FB681B68EE
:104760009B697B617B697A6A396AF86800F0A8F90D
:104770000346002B0DD0FB681B6C042B07D1FB6894
:104780001B681A68FB681B6842F400721A600123F8
:1047900076E0FB88012B05D13B89DAB2FB681B6808
:1047A0001A6121E03B891B0A9BB2DAB2FB681B68E5
:1047B0001A617A6A396AF86800F082F90346002BB8
:1047C0000DD0FB681B6C042B07D1FB681B681A68B3
:1047D000FB681B6842F400721A60012350E03B89B9
:1047E000DAB2FB681B681A617A6A396AF86800F005
:1047F00067F90346002B0DD0FB681B6C042B07D117
:10480000FB681B681A68FB681B6842F400721A6038
:10481000012335E0FB681B681A68FB681B6842F4DB
:1048200080721A607B6A00933B6A00224FF001118C
:10483000F86800F02BF80346002B0DD0FB681B68CE
:104840001B6803F48073B3F5807F03D1FB684FF4DA
:1048500000721A64032313E07B89DBB243F0010387
:10486000DAB2FB681B681A617B6A3A6A0649F86823
:1048700000F086F80346002B01D0012300E000235E
:1048800018461837BD4680BD0200010080B584B0CF
:1048900000AFF860B9603B601346FB7148E03B68CD
:1048A000B3F1FF3F44D0FEF7EDF90246BB69D31ADE
:1048B0003A689A4202D33B68002B39D1BB681B0C83
:1048C000DBB2012B0DD1FB681B685B69DA43BB6867
:1048D00013409BB2002B0CBF01230023DBB21A460E
:1048E0000CE0FB681B689B69DA43BB6813409BB212
:1048F000002B0CBF01230023DBB21A46FB799A423E
:1049000016D1FB6800221A63FB68202283F83D2041
:10491000FB68002283F83E20FB681B6C43F02002FA
:10492000FB681A64FB68002283F83C20012323E023
:10493000BB681B0CDBB2012B0DD1FB681B685B69EC
:10494000DA43BB6813409BB2002B0CBF012300234A
:10495000DBB21A460CE0FB681B689B69DA43BB6854
:1049600013409BB2002B0CBF01230023DBB21A467D
:10497000FB799A4293D0002318461037BD4680BD7C
:1049800080B584B000AFF860B9607A603B6071E0D8
:10499000FB681B685B6903F48063B3F5806F23D108
:1049A000FB681B681A68FB681B6842F400721A6097
:1049B000FB681B686FF480625A61FB6800221A630F
:1049C000FB68202283F83D20FB68002283F83E200C
:1049D000FB681B6C43F00402FB681A64FB6800224E
:1049E00083F83C20012367E07B68B3F1FF3F41D0AF
:1049F000FEF748F902463B68D31A7A689A4202D316
:104A00007B68002B36D1BB681B0CDBB2012B0CD1B1
:104A1000FB681B685B69DA43BB6813409BB2002BE1
:104A200014BF01230023DBB20BE0FB681B689B690A
:104A3000DA43BB6813409BB2002B14BF0123002351
:104A4000DBB2002B16D0FB6800221A63FB68202221
:104A500083F83D20FB68002283F83E20FB681B6C36
:104A600043F02002FB681A64FB68002283F83C20B4
:104A7000012321E0BB681B0CDBB2012B0CD1FB68CE
:104A80001B685B69DA43BB6813409BB2002B14BF01
:104A900001230023DBB20BE0FB681B689B69DA4350
:104AA000BB6813409BB2002B14BF01230023DBB271
:104AB000002B7FF46DAF002318461037BD4680BD34
:104AC00080B584B000AFF860B9607A6034E0F8680F
:104AD00000F027F90346002B01D0012334E0BB6826
:104AE000B3F1FF3F28D0FEF7CDF802467B68D31A1A
:104AF000BA689A4202D3BB68002B1DD1FB681B68C1
:104B00005B6903F08003802B16D0FB6800221A63D8
:104B1000FB68202283F83D20FB68002283F83E20BA
:104B2000FB681B6C43F02002FB681A64FB680022E0
:104B300083F83C20012307E0FB681B685B6903F0F6
:104B40008003802BC3D1002318461037BD4680BD9B
:104B500080B584B000AFF860B9607A6034E0F8687E
:104B600000F0DFF80346002B01D0012334E0BB68DE
:104B7000B3F1FF3F28D0FEF785F802467B68D31AD1
:104B8000BA689A4202D3BB68002B1DD1FB681B6830
:104B90005B6903F00403042B16D0FB6800221A6340
:104BA000FB68202283F83D20FB68002283F83E202A
:104BB000FB681B6C43F02002FB681A64FB68002250
:104BC00083F83C20012307E0FB681B685B6903F066
:104BD0000403042BC3D1002318461037BD4680BD03
:104BE00080B584B000AFF860B9607A6030E0F868F2
:104BF00000F097F80346002B01D0012330E0FEF7C8
:104C000041F802467B68D31ABA689A4202D3BB685D
:104C1000002B1DD1FB681B685B6903F01003102B90
:104C200016D0FB6800221A63FB68202283F83D201F
:104C3000FB68002283F83E20FB681B6C43F02002D7
:104C4000FB681A64FB68002283F83C20012307E01C
:104C5000FB681B685B6903F01003102BC7D10023AE
:104C600018461037BD4680BD80B584B000AFF860EF
:104C7000B9607A6049E0FB681B685B6903F0100368
:104C8000102B19D1FB681B686FF010025A61FB688A
:104C900000221A63FB68202283F83D20FB68002273
:104CA00083F83E20FB681A6CFB681A64FB680022DC
:104CB00083F83C20012330E0FDF7E4FF02467B68E7
:104CC000D31ABA689A4202D3BB68002B1DD1FB6885
:104CD0001B685B6903F04003402B16D0FB68002281
:104CE0001A63FB68202283F83D20FB68002283F8CA
:104CF0003E20FB681B6C43F02002FB681A64FB68D3
:104D0000002283F83C20012307E0FB681B685B69F5
:104D100003F04003402BAED1002318461037BD46A8
:104D200080BD80B483B000AF78607B681B685B692E
:104D300003F48063B3F5806F1BD17B681B686FF44D
:104D400080625A617B6800221A637B68202283F8A4
:104D50003D207B68002283F83E207B681B6C43F07B
:104D600004027B681A647B68002283F83C200123DC
:104D700000E0002318460C37BD465DF8047B704701
:104D800080B586B000AF78607B68002B01D101232D
:104D900067E27B681B6803F00103002B75D0884B2A
:104DA0009B6803F00C03042B0CD0854B9B6803F02D
:104DB0000C03082B12D1824B5B6803F48003B3F51C
:104DC000800F0BD17E4B1B6803F40033002B5BD0AC
:104DD0007B685B68002B57D1012342E27B685B68EC
:104DE000B3F5803F06D1764B1B68754A43F4803398
:104DF00013601DE07B685B68B3F5A02F0CD1704B8E
:104E00001B686F4A43F4802313606D4B1B686C4A28
:104E100043F4803313600BE0694B1B68684A23F44A
:104E200080331360664B1B68654A23F4802313604C
:104E30007B685B68002B13D0FDF724FF386108E026
:104E4000FDF720FF02463B69D31A642B01D90323E7
:104E500007E25B4B1B6803F40033002BF0D014E037
:104E6000FDF710FF386108E0FDF70CFF02463B69D3
:104E7000D31A642B01D90323F3E1514B1B6803F4CC
:104E80000033002BF0D100E000BF7B681B6803F00B
:104E90000203002B63D04A4B9B6803F00C03002BEA
:104EA0000BD0474B9B6803F00C03082B1CD1444BE1
:104EB0005B6803F48003002B16D1414B1B6803F0A1
:104EC0000203002B05D07B68DB68012B01D0012396
:104ED000C7E13B4B1B6823F0F8027B681B69DB00D2
:104EE000374913430B603AE07B68DB68002B20D026
:104EF000344B01221A60FDF7C5FE386108E0FDF76A
:104F0000C1FE02463B69D31A022B01D90323A8E153
:104F10002B4B1B6803F00203002BF0D0284B1B68BF
:104F200023F0F8027B681B69DB00254913430B6003
:104F300015E0244B00221A60FDF7A4FE386108E05A
:104F4000FDF7A0FE02463B69D31A022B01D90323C9
:104F500087E11B4B1B6803F00203002BF0D17B6839
:104F60001B6803F00803002B36D07B685B69002BBD
:104F700016D0154B01221A60FDF784FE386108E057
:104F8000FDF780FE02463B69D31A022B01D90323A9
:104F900067E10B4B5B6F03F00203002BF0D01BE0CB
:104FA000094B00221A60FDF76DFE38610EE0FDF737
:104FB00069FE02463B69D31A022B07D9032350E14D
:104FC0000038024000004742800E4742884B5B6F2A
:104FD00003F00203002BEAD17B681B6803F0040393
:104FE000002B00F097800023FB75814B1B6C03F0B6
:104FF0008053002B0FD10023BB607D4B1B6C7C4A80
:1050000043F0805313647A4B1B6C03F08053BB60F6
:10501000BB680123FB75774B1B6803F48073002B7F
:1050200018D1744B1B68734A43F480731360FDF707
:1050300029FE386108E0FDF725FE02463B69D31AD8
:10504000022B01D903230CE16A4B1B6803F4807324
:10505000002BF0D07B689B68012B06D1644B1B6F43
:10506000634A43F0010313671CE07B689B68052BD0
:105070000CD15F4B1B6F5E4A43F0040313675C4B1C
:105080001B6F5B4A43F0010313670BE0584B1B6F28
:10509000574A23F001031367554B1B6F544A23F003
:1050A000040313677B689B68002B15D0FDF7EAFDAE
:1050B00038610AE0FDF7E6FD02463B69D31A41F28A
:1050C0008832934201D90323CBE0494B1B6F03F095
:1050D0000203002BEED014E0FDF7D4FD38610AE0A6
:1050E000FDF7D0FD02463B69D31A41F28832934264
:1050F00001D90323B5E03E4B1B6F03F00203002BE5
:10510000EED1FB7D012B05D1394B1B6C384A23F0C6
:10511000805313647B689B69002B00F0A180344BA3
:105120009B6803F00C03082B5CD07B689B69022B07
:1051300041D1314B00221A60FDF7A4FD386108E02F
:10514000FDF7A0FD02463B69D31A022B01D90323C8
:1051500087E0274B1B6803F00073002BF0D17B68BE
:10516000DA697B681B6A1A437B685B6A9B011A4396
:105170007B689B6A5B08013B1B041A437B68DB6A04
:105180001B061B4913434B601B4B01221A60FDF7A2
:1051900079FD386108E0FDF775FD02463B69D31AD9
:1051A000022B01D903235CE0114B1B6803F0007351
:1051B000002BF0D054E0104B00221A60FDF762FD86
:1051C000386108E0FDF75EFD02463B69D31A022B09
:1051D00001D9032345E0064B1B6803F00073002B45
:1051E000F0D13DE07B689B69012B07D1012338E0BA
:1051F0000038024000700040600047421B4B5B6873
:10520000FB607B689B69012B28D0FB6803F480025C
:105210007B68DB699A4221D1FB6803F03F027B681F
:105220001B6A9A421AD1FA6847F6C07313407A682B
:10523000526A9201934211D1FB6803F440327B68B9
:105240009B6A5B08013B1B049A4207D1FB6803F091
:1052500070627B68DB6A1B069A4201D0012300E082
:10526000002318461837BD4680BD00BF00380240F5
:1052700080B584B000AF786039607B68002B01D1C5
:105280000123CCE0684B1B6803F007033A689A429D
:105290000CD9654B3A68D2B21A70634B1B6803F0A5
:1052A00007033A689A4201D00123B8E07B681B6883
:1052B00003F00203002B20D07B681B6803F004037B
:1052C000002B05D0594B9B68584A43F4E053936038
:1052D0007B681B6803F00803002B05D0534B9B68C9
:1052E000524A43F460439360504B9B6823F0F002B2
:1052F0007B689B684D4913438B607B681B6803F098
:105300000103002B44D07B685B68012B07D1474B1E
:105310001B6803F40033002B19D101237FE07B6865
:105320005B68022B03D07B685B68032B07D13F4B84
:105330001B6803F00073002B09D101236FE03B4B86
:105340001B6803F00203002B01D1012367E0374BF8
:105350009B6823F003027B685B68344913438B60CE
:10536000FDF790FCF8600AE0FDF78CFC0246FB6854
:10537000D31A41F28832934201D903234FE02B4BD9
:105380009B6803F00C027B685B689B009A42EBD140
:10539000254B1B6803F007033A689A420CD2224B54
:1053A0003A68D2B21A70204B1B6803F007033A68C0
:1053B0009A4201D0012332E07B681B6803F00403AA
:1053C000002B08D0194B9B6823F4E0527B68DB6804
:1053D000164913438B607B681B6803F00803002B9E
:1053E00009D0124B9B6823F460427B681B69DB0089
:1053F0000E4913438B6000F021F802460B4B9B686B
:105400001B0903F00F030A49CB5C22FA03F3094A94
:105410001360094B1B681846FDF7F0FB0023184684
:105420001037BD4680BD00BF003C0240003802403E
:105430000C9F000814000020180000202DE9B04F38
:1054400094B000AF00237B640023FB6400233B6423
:105450000023BB64794B9B6803F00C03082B0DD031
:10546000082B00F2E180002B02D0042B03D0DBE0FC
:10547000734BBB64DBE0734BBB64D8E06F4B5B6882
:1054800003F03F037B646D4B5B6803F48003002BE8
:1054900063D06A4B5B689B090022BB63FA63BB6BFA
:1054A000C3F308033B6300237B63D7E90C45224623
:1054B0002B464FF000004FF00001590141EAD26144
:1054C000500102460B462146511A3961294663EBC9
:1054D00001037B614FF000024FF00003D7E904ABFA
:1054E00059468B01514643EA916351468A01514620
:1054F000B2EB0108594663EB01094FF000024FF08F
:1055000000034FEAC90343EA58734FEAC8029046C2
:105510009946234618EB0303BB602B4649EB030374
:10552000FB604FF000024FF00003D7E90245294627
:105530004B02214643EAD15321464A0210461946FE
:105540007B6C0022BB62FA62D7E90A23FBF77CFB83
:1055500002460B461346FB6458E0384B5B689B09D8
:10556000002218461146C0F308033B6200237B6209
:10557000D7E9088942464B464FF000004FF0000142
:10558000590141EAD261500102460B464146B2EB55
:10559000010A494663EB010B4FF000024FF0000394
:1055A0004FEA8B1343EA9A634FEA8A12B2EB0A047A
:1055B00063EB0B054FF000024FF00003EB0043EAF2
:1055C0005473E20014461D464346E3183B604B46C5
:1055D00045EB03037B604FF000024FF00003D7E977
:1055E000004529468B02214643EA915321468A020F
:1055F000104619467B6C0022BB61FA61D7E906238D
:10560000FBF722FB02460B461346FB640B4B5B6821
:105610001B0C03F0030301335B003B64FA6C3B6C2F
:10562000B2FBF3F3BB6402E0054BBB6400BFBB6C91
:1056300018465037BD46BDE8B08F00BF0038024065
:105640000024F40000127A0080B400AF034B1B6802
:105650001846BD465DF8047B704700BF140000206B
:1056600080B500AFFFF7F0FF0246054B9B689B0A31
:1056700003F007030349CB5C22FA03F3184680BD0D
:10568000003802401C9F000880B582B000AF7860EF
:105690007B68002B01D1012341E07B6893F83D300A
:1056A000DBB2002B06D17B68002283F83C207868AF
:1056B000FDF7C0F87B68022283F83D207B681A68FA
:1056C0007B6804331946104600F0CAFC7B6801224F
:1056D00083F846207B68012283F83E207B68012204
:1056E00083F83F207B68012283F840207B680122F9
:1056F00083F841207B68012283F842207B680122E5
:1057000083F843207B68012283F844207B680122D0
:1057100083F845207B68012283F83D20002318464A
:105720000837BD4680BD000080B485B000AF78600A
:105730007B6893F83D30DBB2012B01D0012346E0BA
:105740007B68022283F83D207B681B68234A9342D2
:1057500022D07B681B68B3F1804F1DD07B681B682B
:105760001F4A934218D07B681B681E4A934213D08D
:105770007B681B681C4A93420ED07B681B681B4ADF
:10578000934209D07B681B68194A934204D07B6816
:105790001B68184A934211D17B681B689B6803F011
:1057A0000703FB60FB68062B10D07B681B681A6838
:1057B0007B681B6842F001021A6007E07B681B6887
:1057C0001A687B681B6842F001021A6000231846C1
:1057D0001437BD465DF8047B704700BF00000140F0
:1057E0000004004000080040000C0040000401409C
:1057F000004001400018004080B485B000AF7860E0
:105800007B6893F83D30DBB2012B01D001234EE0E1
:105810007B68022283F83D207B681B68DA687B681E
:105820001B6842F00102DA607B681B68234A9342DE
:1058300022D07B681B68B3F1804F1DD07B681B684A
:105840001F4A934218D07B681B681E4A934213D0AC
:105850007B681B681C4A93420ED07B681B681B4AFE
:10586000934209D07B681B68194A934204D07B6835
:105870001B68184A934211D17B681B689B6803F030
:105880000703FB60FB68062B10D07B681B681A6857
:105890007B681B6842F001021A6007E07B681B68A6
:1058A0001A687B681B6842F001021A6000231846E0
:1058B0001437BD465DF8047B704700BF000001400F
:1058C0000004004000080040000C004000040140BB
:1058D000004001400018004080B582B000AF786001
:1058E0007B68002B01D1012341E07B6893F83D30B8
:1058F000DBB2002B06D17B68002283F83C2078685D
:1059000000F039F87B68022283F83D207B681A6832
:105910007B6804331946104600F0A2FB7B68012225
:1059200083F846207B68012283F83E207B680122B1
:1059300083F83F207B68012283F840207B680122A6
:1059400083F841207B68012283F842207B68012292
:1059500083F843207B68012283F844207B6801227E
:1059600083F845207B68012283F83D2000231846F8
:105970000837BD4680BD80B483B000AF786000BFFB
:105980000C37BD465DF8047B7047000080B584B0DD
:1059900000AF786039603B68002B09D17B6893F8D1
:1059A0003E30DBB2012B14BF01230023DBB222E027
:1059B0003B68042B09D17B6893F83F30DBB2012BA5
:1059C00014BF01230023DBB215E03B68082B09D18B
:1059D0007B6893F84030DBB2012B14BF0123002316
:1059E000DBB208E07B6893F84130DBB2012B14BFD7
:1059F00001230023DBB2002B01D001237CE03B68B4
:105A0000002B04D17B68022283F83E2013E03B6820
:105A1000042B04D17B68022283F83F200BE03B6813
:105A2000082B04D17B68022283F8402003E07B68C6
:105A3000022283F841207B681B68012239681846DE
:105A400000F004FE7B681B682D4A934204D07B68FB
:105A50001B682C4A934201D1012300E00023002B54
:105A600007D07B681B685A6C7B681B6842F4004255
:105A70005A647B681B68224A934222D07B681B6869
:105A8000B3F1804F1DD07B681B681F4A934218D02A
:105A90007B681B681D4A934213D07B681B681C4AB5
:105AA00093420ED07B681B68164A934209D07B68EC
:105AB0001B68184A934204D07B681B68164A9342BD
:105AC00011D17B681B689B6803F00703FB60FB68D0
:105AD000062B10D07B681B681A687B681B6842F035
